{
  "_format": "hh-sol-artifact-1",
  "contractName": "TrustDrops",
  "sourceName": "contracts/TrustDrops.sol",
  "abi": [
    {
      "inputs": [],
      "stateMutability": "nonpayable",
      "type": "constructor"
    },
    {
      "inputs": [
        {
          "internalType": "address",
          "name": "owner",
          "type": "address"
        }
      ],
      "name": "OwnableInvalidOwner",
      "type": "error"
    },
    {
      "inputs": [
        {
          "internalType": "address",
          "name": "account",
          "type": "address"
        }
      ],
      "name": "OwnableUnauthorizedAccount",
      "type": "error"
    },
    {
      "anonymous": false,
      "inputs": [
        {
          "indexed": true,
          "internalType": "address",
          "name": "previousOwner",
          "type": "address"
        },
        {
          "indexed": true,
          "internalType": "address",
          "name": "newOwner",
          "type": "address"
        }
      ],
      "name": "OwnershipTransferred",
      "type": "event"
    },
    {
      "anonymous": false,
      "inputs": [
        {
          "indexed": true,
          "internalType": "address",
          "name": "staker",
          "type": "address"
        },
        {
          "indexed": true,
          "internalType": "address",
          "name": "candidate",
          "type": "address"
        },
        {
          "indexed": false,
          "internalType": "uint256",
          "name": "amount",
          "type": "uint256"
        },
        {
          "indexed": false,
          "internalType": "uint256",
          "name": "cred",
          "type": "uint256"
        },
        {
          "indexed": false,
          "internalType": "uint256",
          "name": "timestamp",
          "type": "uint256"
        }
      ],
      "name": "Staked",
      "type": "event"
    },
    {
      "anonymous": false,
      "inputs": [
        {
          "indexed": true,
          "internalType": "address",
          "name": "candidate",
          "type": "address"
        },
        {
          "indexed": false,
          "internalType": "uint256",
          "name": "amount",
          "type": "uint256"
        }
      ],
      "name": "TokensClaimed",
      "type": "event"
    },
    {
      "anonymous": false,
      "inputs": [
        {
          "indexed": true,
          "internalType": "address",
          "name": "staker",
          "type": "address"
        },
        {
          "indexed": true,
          "internalType": "address",
          "name": "candidate",
          "type": "address"
        },
        {
          "indexed": false,
          "internalType": "uint256",
          "name": "amount",
          "type": "uint256"
        },
        {
          "indexed": false,
          "internalType": "uint256",
          "name": "cred",
          "type": "uint256"
        },
        {
          "indexed": false,
          "internalType": "uint256",
          "name": "timestamp",
          "type": "uint256"
        }
      ],
      "name": "Unstaked",
      "type": "event"
    },
    {
      "inputs": [
        {
          "internalType": "address",
          "name": "_user",
          "type": "address"
        }
      ],
      "name": "allocation",
      "outputs": [
        {
          "internalType": "uint256",
          "name": "",
          "type": "uint256"
        }
      ],
      "stateMutability": "view",
      "type": "function"
    },
    {
      "inputs": [],
      "name": "approvalAirdropAmount",
      "outputs": [
        {
          "internalType": "uint256",
          "name": "",
          "type": "uint256"
        }
      ],
      "stateMutability": "view",
      "type": "function"
    },
    {
      "inputs": [
        {
          "internalType": "address",
          "name": "_user",
          "type": "address"
        },
        {
          "internalType": "bytes32",
          "name": "_id",
          "type": "bytes32"
        },
        {
          "internalType": "uint256",
          "name": "_amount",
          "type": "uint256"
        }
      ],
      "name": "approve",
      "outputs": [],
      "stateMutability": "nonpayable",
      "type": "function"
    },
    {
      "inputs": [
        {
          "internalType": "address",
          "name": "",
          "type": "address"
        }
      ],
      "name": "approvedAddress",
      "outputs": [
        {
          "internalType": "bool",
          "name": "",
          "type": "bool"
        }
      ],
      "stateMutability": "view",
      "type": "function"
    },
    {
      "inputs": [
        {
          "internalType": "bytes32",
          "name": "",
          "type": "bytes32"
        }
      ],
      "name": "approvedId",
      "outputs": [
        {
          "internalType": "bool",
          "name": "",
          "type": "bool"
        }
      ],
      "stateMutability": "view",
      "type": "function"
    },
    {
      "inputs": [],
      "name": "approver",
      "outputs": [
        {
          "internalType": "address",
          "name": "",
          "type": "address"
        }
      ],
      "stateMutability": "view",
      "type": "function"
    },
    {
      "inputs": [],
      "name": "claimTokens",
      "outputs": [],
      "stateMutability": "nonpayable",
      "type": "function"
    },
    {
      "inputs": [],
      "name": "deploymentWeek",
      "outputs": [
        {
          "internalType": "uint256",
          "name": "",
          "type": "uint256"
        }
      ],
      "stateMutability": "view",
      "type": "function"
    },
    {
      "inputs": [],
      "name": "depositSeedFunds",
      "outputs": [],
      "stateMutability": "payable",
      "type": "function"
    },
    {
      "inputs": [],
      "name": "owner",
      "outputs": [
        {
          "internalType": "address",
          "name": "",
          "type": "address"
        }
      ],
      "stateMutability": "view",
      "type": "function"
    },
    {
      "inputs": [],
      "name": "renounceOwnership",
      "outputs": [],
      "stateMutability": "nonpayable",
      "type": "function"
    },
    {
      "inputs": [
        {
          "internalType": "address",
          "name": "",
          "type": "address"
        }
      ],
      "name": "reputation",
      "outputs": [
        {
          "internalType": "uint256",
          "name": "",
          "type": "uint256"
        }
      ],
      "stateMutability": "view",
      "type": "function"
    },
    {
      "inputs": [],
      "name": "rewardDetails",
      "outputs": [
        {
          "internalType": "uint256",
          "name": "lastUpdatedWeek",
          "type": "uint256"
        },
        {
          "internalType": "uint256",
          "name": "lastWeeklyTotalCred",
          "type": "uint256"
        }
      ],
      "stateMutability": "view",
      "type": "function"
    },
    {
      "inputs": [],
      "name": "seedFund",
      "outputs": [
        {
          "internalType": "uint256",
          "name": "",
          "type": "uint256"
        }
      ],
      "stateMutability": "view",
      "type": "function"
    },
    {
      "inputs": [
        {
          "internalType": "address",
          "name": "candidate",
          "type": "address"
        }
      ],
      "name": "stake",
      "outputs": [],
      "stateMutability": "payable",
      "type": "function"
    },
    {
      "inputs": [
        {
          "internalType": "address",
          "name": "",
          "type": "address"
        },
        {
          "internalType": "address",
          "name": "",
          "type": "address"
        }
      ],
      "name": "stakes",
      "outputs": [
        {
          "internalType": "uint256",
          "name": "amount",
          "type": "uint256"
        }
      ],
      "stateMutability": "view",
      "type": "function"
    },
    {
      "inputs": [],
      "name": "totalReputation",
      "outputs": [
        {
          "internalType": "uint256",
          "name": "",
          "type": "uint256"
        }
      ],
      "stateMutability": "view",
      "type": "function"
    },
    {
      "inputs": [
        {
          "internalType": "address",
          "name": "",
          "type": "address"
        }
      ],
      "name": "totalStakedByUser",
      "outputs": [
        {
          "internalType": "uint256",
          "name": "",
          "type": "uint256"
        }
      ],
      "stateMutability": "view",
      "type": "function"
    },
    {
      "inputs": [
        {
          "internalType": "address",
          "name": "newOwner",
          "type": "address"
        }
      ],
      "name": "transferOwnership",
      "outputs": [],
      "stateMutability": "nonpayable",
      "type": "function"
    },
    {
      "inputs": [
        {
          "internalType": "address",
          "name": "candidate",
          "type": "address"
        },
        {
          "internalType": "uint256",
          "name": "amount",
          "type": "uint256"
        }
      ],
      "name": "unstake",
      "outputs": [],
      "stateMutability": "nonpayable",
      "type": "function"
    },
    {
      "inputs": [
        {
          "internalType": "uint256",
          "name": "_updatedAmount",
          "type": "uint256"
        }
      ],
      "name": "updateAirdropAmount",
      "outputs": [],
      "stateMutability": "nonpayable",
      "type": "function"
    },
    {
      "inputs": [
        {
          "internalType": "address",
          "name": "_newApprover",
          "type": "address"
        }
      ],
      "name": "updateApprover",
      "outputs": [],
      "stateMutability": "nonpayable",
      "type": "function"
    },
    {
      "inputs": [
        {
          "components": [
            {
              "internalType": "uint256",
              "name": "weekNumber",
              "type": "uint256"
            },
            {
              "internalType": "uint256",
              "name": "reward",
              "type": "uint256"
            }
          ],
          "internalType": "struct TrustDrops.WeeklyRewardsParam[]",
          "name": "_weeklyRewards",
          "type": "tuple[]"
        }
      ],
      "name": "updateWeeklyTotalRewards",
      "outputs": [],
      "stateMutability": "nonpayable",
      "type": "function"
    },
    {
      "inputs": [
        {
          "internalType": "address",
          "name": "",
          "type": "address"
        }
      ],
      "name": "userAdded",
      "outputs": [
        {
          "internalType": "bool",
          "name": "",
          "type": "bool"
        }
      ],
      "stateMutability": "view",
      "type": "function"
    },
    {
      "inputs": [
        {
          "internalType": "uint256",
          "name": "",
          "type": "uint256"
        }
      ],
      "name": "users",
      "outputs": [
        {
          "internalType": "address",
          "name": "",
          "type": "address"
        }
      ],
      "stateMutability": "view",
      "type": "function"
    },
    {
      "inputs": [],
      "name": "weeklyYield",
      "outputs": [
        {
          "internalType": "uint256",
          "name": "",
          "type": "uint256"
        }
      ],
      "stateMutability": "view",
      "type": "function"
    },
    {
      "stateMutability": "payable",
      "type": "receive"
    }
  ],
  "bytecode": "0x60806040526801a055690d9db800006004553480156200001e57600080fd5b5033600073ffffffffffffffffffffffffffffffffffffffff168173ffffffffffffffffffffffffffffffffffffffff1603620000955760006040517f1e4fbdf70000000000000000000000000000000000000000000000000000000081526004016200008c91906200020e565b60405180910390fd5b620000a6816200010560201b60201c565b5033600560006101000a81548173ffffffffffffffffffffffffffffffffffffffff021916908373ffffffffffffffffffffffffffffffffffffffff16021790555062093a8042620000f9919062000264565b6003819055506200029c565b60008060009054906101000a900473ffffffffffffffffffffffffffffffffffffffff169050816000806101000a81548173ffffffffffffffffffffffffffffffffffffffff021916908373ffffffffffffffffffffffffffffffffffffffff1602179055508173ffffffffffffffffffffffffffffffffffffffff168173ffffffffffffffffffffffffffffffffffffffff167f8be0079c531659141344cd1fd0a4f28419497f9722a3daafe3b4186f6b6457e060405160405180910390a35050565b600073ffffffffffffffffffffffffffffffffffffffff82169050919050565b6000620001f682620001c9565b9050919050565b6200020881620001e9565b82525050565b6000602082019050620002256000830184620001fd565b92915050565b6000819050919050565b7f4e487b7100000000000000000000000000000000000000000000000000000000600052601260045260246000fd5b600062000271826200022b565b91506200027e836200022b565b92508262000291576200029062000235565b5b828204905092915050565b612ee980620002ac6000396000f3fe6080604052600436106101855760003560e01c8063a4e47b66116100d1578063c7d7e8d31161008a578063d263c61d11610064578063d263c61d14610560578063dfdf06181461059d578063e5835241146105c8578063f2fde38b146105f35761018c565b8063c7d7e8d3146104e1578063d0b2b5791461050a578063d1aeece5146105355761018c565b8063a4e47b66146103af578063ac824b23146103ec578063b81b863014610415578063b9f7945114610452578063bd7da6541461048f578063c2a672e0146104b85761018c565b806348c54b9d1161013e578063715018a611610118578063715018a61461033757806388b648191461034e5780638da5cb5b1461037a5780638e09cbd0146103a55761018c565b806348c54b9d146102a65780636a85f2c3146102bd5780636bda722b146102fa5761018c565b8063141a8dd814610191578063202dc181146101bc57806326476204146101e5578063365b98b21461020157806347b3ac6e1461023e578063489aa033146102695761018c565b3661018c57005b600080fd5b34801561019d57600080fd5b506101a661061c565b6040516101b39190612370565b60405180910390f35b3480156101c857600080fd5b506101e360048036038101906101de91906123d5565b610642565b005b6101ff60048036038101906101fa919061242e565b610654565b005b34801561020d57600080fd5b50610228600480360381019061022391906123d5565b610d58565b6040516102359190612370565b60405180910390f35b34801561024a57600080fd5b50610253610d97565b604051610260919061246a565b60405180910390f35b34801561027557600080fd5b50610290600480360381019061028b919061242e565b610d9d565b60405161029d919061246a565b60405180910390f35b3480156102b257600080fd5b506102bb610db5565b005b3480156102c957600080fd5b506102e460048036038101906102df919061242e565b610fbc565b6040516102f191906124a0565b60405180910390f35b34801561030657600080fd5b50610321600480360381019061031c919061242e565b610fdc565b60405161032e91906124a0565b60405180910390f35b34801561034357600080fd5b5061034c610ffc565b005b34801561035a57600080fd5b50610363611010565b6040516103719291906124bb565b60405180910390f35b34801561038657600080fd5b5061038f611022565b60405161039c9190612370565b60405180910390f35b6103ad61104b565b005b3480156103bb57600080fd5b506103d660048036038101906103d191906124e4565b611066565b6040516103e3919061246a565b60405180910390f35b3480156103f857600080fd5b50610413600480360381019061040e91906126d2565b611091565b005b34801561042157600080fd5b5061043c6004803603810190610437919061242e565b611113565b604051610449919061246a565b60405180910390f35b34801561045e57600080fd5b506104796004803603810190610474919061242e565b611125565b604051610486919061246a565b60405180910390f35b34801561049b57600080fd5b506104b660048036038101906104b1919061242e565b61113d565b005b3480156104c457600080fd5b506104df60048036038101906104da919061271b565b611189565b005b3480156104ed57600080fd5b5061050860048036038101906105039190612791565b61161c565b005b34801561051657600080fd5b5061051f6118f5565b60405161052c919061246a565b60405180910390f35b34801561054157600080fd5b5061054a6118fb565b604051610557919061246a565b60405180910390f35b34801561056c57600080fd5b50610587600480360381019061058291906127e4565b611901565b60405161059491906124a0565b60405180910390f35b3480156105a957600080fd5b506105b2611921565b6040516105bf919061246a565b60405180910390f35b3480156105d457600080fd5b506105dd61196c565b6040516105ea919061246a565b60405180910390f35b3480156105ff57600080fd5b5061061a6004803603810190610615919061242e565b611972565b005b600560009054906101000a900473ffffffffffffffffffffffffffffffffffffffff1681565b61064a6119f8565b8060048190555050565b601260003373ffffffffffffffffffffffffffffffffffffffff1673ffffffffffffffffffffffffffffffffffffffff16815260200190815260200160002060009054906101000a900460ff166106e0576040517f08c379a00000000000000000000000000000000000000000000000000000000081526004016106d790612894565b60405180910390fd5b600034905060008111610728576040517f08c379a000000000000000000000000000000000000000000000000000000000815260040161071f90612926565b60405180910390fd5b601560008373ffffffffffffffffffffffffffffffffffffffff1673ffffffffffffffffffffffffffffffffffffffff16815260200190815260200160002060009054906101000a900460ff16610835576014829080600181540180825580915050600190039060005260206000200160009091909190916101000a81548173ffffffffffffffffffffffffffffffffffffffff021916908373ffffffffffffffffffffffffffffffffffffffff1602179055506001601560008473ffffffffffffffffffffffffffffffffffffffff1673ffffffffffffffffffffffffffffffffffffffff16815260200190815260200160002060006101000a81548160ff0219169083151502179055505b600e60008373ffffffffffffffffffffffffffffffffffffffff1673ffffffffffffffffffffffffffffffffffffffff16815260200190815260200160002060010160003373ffffffffffffffffffffffffffffffffffffffff1673ffffffffffffffffffffffffffffffffffffffff16815260200190815260200160002060009054906101000a900460ff16610a0257600e60008373ffffffffffffffffffffffffffffffffffffffff1673ffffffffffffffffffffffffffffffffffffffff168152602001908152602001600020600001339080600181540180825580915050600190039060005260206000200160009091909190916101000a81548173ffffffffffffffffffffffffffffffffffffffff021916908373ffffffffffffffffffffffffffffffffffffffff1602179055506001600e60008473ffffffffffffffffffffffffffffffffffffffff1673ffffffffffffffffffffffffffffffffffffffff16815260200190815260200160002060010160003373ffffffffffffffffffffffffffffffffffffffff1673ffffffffffffffffffffffffffffffffffffffff16815260200190815260200160002060006101000a81548160ff0219169083151502179055505b6000610a8c600f60003373ffffffffffffffffffffffffffffffffffffffff1673ffffffffffffffffffffffffffffffffffffffff16815260200190815260200160002060008573ffffffffffffffffffffffffffffffffffffffff1673ffffffffffffffffffffffffffffffffffffffff16815260200190815260200160002060000154611a7f565b905081600f60003373ffffffffffffffffffffffffffffffffffffffff1673ffffffffffffffffffffffffffffffffffffffff16815260200190815260200160002060008573ffffffffffffffffffffffffffffffffffffffff1673ffffffffffffffffffffffffffffffffffffffff1681526020019081526020016000206000016000828254610b1d9190612975565b9250508190555081601060003373ffffffffffffffffffffffffffffffffffffffff1673ffffffffffffffffffffffffffffffffffffffff1681526020019081526020016000206000828254610b739190612975565b925050819055506000610c04600f60003373ffffffffffffffffffffffffffffffffffffffff1673ffffffffffffffffffffffffffffffffffffffff16815260200190815260200160002060008673ffffffffffffffffffffffffffffffffffffffff1673ffffffffffffffffffffffffffffffffffffffff16815260200190815260200160002060000154611a7f565b90508082601160008773ffffffffffffffffffffffffffffffffffffffff1673ffffffffffffffffffffffffffffffffffffffff16815260200190815260200160002054610c5291906129a9565b610c5c9190612975565b601160008673ffffffffffffffffffffffffffffffffffffffff1673ffffffffffffffffffffffffffffffffffffffff168152602001908152602001600020819055508181600154610cae9190612975565b610cb891906129a9565b600181905550610cc784611b02565b610cde848383610cd791906129a9565b6000611df1565b8373ffffffffffffffffffffffffffffffffffffffff163373ffffffffffffffffffffffffffffffffffffffff167fad3fa07f4195b47e64892eb944ecbfc253384053c119852bb2bcae484c2fcb69858585610d3a91906129a9565b42604051610d4a939291906129dd565b60405180910390a350505050565b60148181548110610d6857600080fd5b906000526020600020016000915054906101000a900473ffffffffffffffffffffffffffffffffffffffff1681565b60045481565b60106020528060005260406000206000915090505481565b6000610dc033612052565b9050600060025447610dd291906129a9565b905080821115610e17576040517f08c379a0000000000000000000000000000000000000000000000000000000008152600401610e0e90612a60565b60405180910390fd5b60008211610e5a576040517f08c379a0000000000000000000000000000000000000000000000000000000008152600401610e5190612acc565b60405180910390fd5b610e6333611b02565b6001610e6d612234565b610e7791906129a9565b600660050160003373ffffffffffffffffffffffffffffffffffffffff1673ffffffffffffffffffffffffffffffffffffffff1681526020019081526020016000208190555060003373ffffffffffffffffffffffffffffffffffffffff1683604051610ee390612b1d565b60006040518083038185875af1925050503d8060008114610f20576040519150601f19603f3d011682016040523d82523d6000602084013e610f25565b606091505b5050905080610f69576040517f08c379a0000000000000000000000000000000000000000000000000000000008152600401610f6090612b7e565b60405180910390fd5b3373ffffffffffffffffffffffffffffffffffffffff167f896e034966eaaf1adc54acc0f257056febbd300c9e47182cf761982cf1f5e43084604051610faf919061246a565b60405180910390a2505050565b60126020528060005260406000206000915054906101000a900460ff1681565b60156020528060005260406000206000915054906101000a900460ff1681565b6110046119f8565b61100e6000612263565b565b60068060000154908060010154905082565b60008060009054906101000a900473ffffffffffffffffffffffffffffffffffffffff16905090565b346002600082825461105d9190612975565b92505081905550565b600f602052816000526040600020602052806000526040600020600091509150508060000154905081565b6110996119f8565b60005b815181101561110f578181815181106110b8576110b7612b9e565b5b602002602001015160200151600660030160008484815181106110de576110dd612b9e565b5b602002602001015160000151815260200190815260200160002081905550808061110790612bcd565b91505061109c565b5050565b600061111e82612052565b9050919050565b60116020528060005260406000206000915090505481565b6111456119f8565b80600560006101000a81548173ffffffffffffffffffffffffffffffffffffffff021916908373ffffffffffffffffffffffffffffffffffffffff16021790555050565b600081116111cc576040517f08c379a00000000000000000000000000000000000000000000000000000000081526004016111c390612926565b60405180910390fd5b6000600f60003373ffffffffffffffffffffffffffffffffffffffff1673ffffffffffffffffffffffffffffffffffffffff16815260200190815260200160002060008473ffffffffffffffffffffffffffffffffffffffff1673ffffffffffffffffffffffffffffffffffffffff16815260200190815260200160002090508181600001541015611293576040517f08c379a000000000000000000000000000000000000000000000000000000000815260040161128a90612c87565b60405180910390fd5b600061131d600f60003373ffffffffffffffffffffffffffffffffffffffff1673ffffffffffffffffffffffffffffffffffffffff16815260200190815260200160002060008673ffffffffffffffffffffffffffffffffffffffff1673ffffffffffffffffffffffffffffffffffffffff16815260200190815260200160002060000154611a7f565b90508282600001600082825461133391906129a9565b9250508190555082601060003373ffffffffffffffffffffffffffffffffffffffff1673ffffffffffffffffffffffffffffffffffffffff168152602001908152602001600020600082825461138991906129a9565b92505081905550600061141a600f60003373ffffffffffffffffffffffffffffffffffffffff1673ffffffffffffffffffffffffffffffffffffffff16815260200190815260200160002060008773ffffffffffffffffffffffffffffffffffffffff1673ffffffffffffffffffffffffffffffffffffffff16815260200190815260200160002060000154611a7f565b90508181601160008873ffffffffffffffffffffffffffffffffffffffff1673ffffffffffffffffffffffffffffffffffffffff168152602001908152602001600020546114689190612975565b61147291906129a9565b601160008773ffffffffffffffffffffffffffffffffffffffff1673ffffffffffffffffffffffffffffffffffffffff1681526020019081526020016000208190555081816001546114c49190612975565b6114ce91906129a9565b6001819055506114dd85611b02565b6114f48582846114ed91906129a9565b6001611df1565b60003373ffffffffffffffffffffffffffffffffffffffff168560405161151a90612b1d565b60006040518083038185875af1925050503d8060008114611557576040519150601f19603f3d011682016040523d82523d6000602084013e61155c565b606091505b50509050806115a0576040517f08c379a000000000000000000000000000000000000000000000000000000000815260040161159790612b7e565b60405180910390fd5b8573ffffffffffffffffffffffffffffffffffffffff163373ffffffffffffffffffffffffffffffffffffffff167f9ad65b6c7ddab48c57c60229304ab9d8a7726f680d2319c0704c705eb3f8c6358785876115fc91906129a9565b4260405161160c939291906129dd565b60405180910390a3505050505050565b600560009054906101000a900473ffffffffffffffffffffffffffffffffffffffff1673ffffffffffffffffffffffffffffffffffffffff163373ffffffffffffffffffffffffffffffffffffffff16146116ac576040517f08c379a00000000000000000000000000000000000000000000000000000000081526004016116a390612cf3565b60405180910390fd5b60001515601260008573ffffffffffffffffffffffffffffffffffffffff1673ffffffffffffffffffffffffffffffffffffffff16815260200190815260200160002060009054906101000a900460ff1615151461173f576040517f08c379a000000000000000000000000000000000000000000000000000000000815260040161173690612d85565b60405180910390fd5b600015156013600084815260200190815260200160002060009054906101000a900460ff161515146117a6576040517f08c379a000000000000000000000000000000000000000000000000000000000815260040161179d90612df1565b60405180910390fd5b6001601260008573ffffffffffffffffffffffffffffffffffffffff1673ffffffffffffffffffffffffffffffffffffffff16815260200190815260200160002060006101000a81548160ff02191690831515021790555060016013600084815260200190815260200160002060006101000a81548160ff021916908315150217905550806002600082825461183c91906129a9565b9250508190555060008373ffffffffffffffffffffffffffffffffffffffff168260405161186990612b1d565b60006040518083038185875af1925050503d80600081146118a6576040519150601f19603f3d011682016040523d82523d6000602084013e6118ab565b606091505b50509050806118ef576040517f08c379a00000000000000000000000000000000000000000000000000000000081526004016118e690612b7e565b60405180910390fd5b50505050565b60025481565b60035481565b60136020528060005260406000206000915054906101000a900460ff1681565b60008061192c612234565b9050600660020160008281526020019081526020016000205460066003016000838152602001908152602001600020546119669190612e40565b91505090565b60015481565b61197a6119f8565b600073ffffffffffffffffffffffffffffffffffffffff168173ffffffffffffffffffffffffffffffffffffffff16036119ec5760006040517f1e4fbdf70000000000000000000000000000000000000000000000000000000081526004016119e39190612370565b60405180910390fd5b6119f581612263565b50565b611a00612327565b73ffffffffffffffffffffffffffffffffffffffff16611a1e611022565b73ffffffffffffffffffffffffffffffffffffffff1614611a7d57611a41612327565b6040517f118cdaa7000000000000000000000000000000000000000000000000000000008152600401611a749190612370565b60405180910390fd5b565b6000808203611a915760009050611afd565b60006002600184611aa29190612975565b611aac9190612e40565b905060008390505b80821015611ae9578190506002828386611ace9190612e40565b611ad89190612975565b611ae29190612e40565b9150611ab4565b6298968081611af89190612e40565b925050505b919050565b6000611b0c612234565b905060006001600660000154611b229190612975565b90505b818111611b7e576000600660020160008381526020019081526020016000205403611b6b5760066001015460066002016000838152602001908152602001600020819055505b8080611b7690612bcd565b915050611b25565b5080600660000181905550600660020160008281526020019081526020016000205460066001018190555060006001600660040160008573ffffffffffffffffffffffffffffffffffffffff1673ffffffffffffffffffffffffffffffffffffffff16815260200190815260200160002054611bfa9190612975565b90505b818111611d0c576000600660070160008573ffffffffffffffffffffffffffffffffffffffff1673ffffffffffffffffffffffffffffffffffffffff16815260200190815260200160002060008381526020019081526020016000205403611cf9576006800160008473ffffffffffffffffffffffffffffffffffffffff1673ffffffffffffffffffffffffffffffffffffffff16815260200190815260200160002054600660070160008573ffffffffffffffffffffffffffffffffffffffff1673ffffffffffffffffffffffffffffffffffffffff1681526020019081526020016000206000838152602001908152602001600020819055505b8080611d0490612bcd565b915050611bfd565b5080600660040160008473ffffffffffffffffffffffffffffffffffffffff1673ffffffffffffffffffffffffffffffffffffffff16815260200190815260200160002081905550600660070160008373ffffffffffffffffffffffffffffffffffffffff1673ffffffffffffffffffffffffffffffffffffffff1681526020019081526020016000206000828152602001908152602001600020546006800160008473ffffffffffffffffffffffffffffffffffffffff1673ffffffffffffffffffffffffffffffffffffffff168152602001908152602001600020819055505050565b6000611dfb612234565b905060008203611ea15782600660020160008381526020019081526020016000206000828254611e2b9190612975565b9250508190555082600660070160008673ffffffffffffffffffffffffffffffffffffffff1673ffffffffffffffffffffffffffffffffffffffff16815260200190815260200160002060008381526020019081526020016000206000828254611e959190612975565b92505081905550611f42565b60018203611f415782600660020160008381526020019081526020016000206000828254611ecf91906129a9565b9250508190555082600660070160008673ffffffffffffffffffffffffffffffffffffffff1673ffffffffffffffffffffffffffffffffffffffff16815260200190815260200160002060008381526020019081526020016000206000828254611f3991906129a9565b925050819055505b5b8060066000018190555080600660040160008673ffffffffffffffffffffffffffffffffffffffff1673ffffffffffffffffffffffffffffffffffffffff168152602001908152602001600020819055506006600201600082815260200190815260200160002054600660010181905550600660070160008573ffffffffffffffffffffffffffffffffffffffff1673ffffffffffffffffffffffffffffffffffffffff1681526020019081526020016000206000828152602001908152602001600020546006800160008673ffffffffffffffffffffffffffffffffffffffff1673ffffffffffffffffffffffffffffffffffffffff1681526020019081526020016000208190555050505050565b6000600161205e612234565b0361206c576000905061222f565b60006001612078612234565b61208291906129a9565b90506000600660050160008573ffffffffffffffffffffffffffffffffffffffff1673ffffffffffffffffffffffffffffffffffffffff168152602001908152602001600020549050600081146120e3576001816120e09190612975565b90505b6000808290505b838111612227576000600660070160008873ffffffffffffffffffffffffffffffffffffffff1673ffffffffffffffffffffffffffffffffffffffff1681526020019081526020016000206000838152602001908152602001600020549050600060066002016000848152602001908152602001600020549050600060066003016000858152602001908152602001600020549050600083036121cc576006800160008a73ffffffffffffffffffffffffffffffffffffffff1673ffffffffffffffffffffffffffffffffffffffff1681526020019081526020016000205492505b600082036121dd5760066001015491505b60008211156122115760008284836121f59190612e71565b6121ff9190612e40565b9050808661220d9190612975565b9550505b505050808061221f90612bcd565b9150506120ea565b508093505050505b919050565b6000600160035462093a804261224a9190612e40565b61225491906129a9565b61225e9190612975565b905090565b60008060009054906101000a900473ffffffffffffffffffffffffffffffffffffffff169050816000806101000a81548173ffffffffffffffffffffffffffffffffffffffff021916908373ffffffffffffffffffffffffffffffffffffffff1602179055508173ffffffffffffffffffffffffffffffffffffffff168173ffffffffffffffffffffffffffffffffffffffff167f8be0079c531659141344cd1fd0a4f28419497f9722a3daafe3b4186f6b6457e060405160405180910390a35050565b600033905090565b600073ffffffffffffffffffffffffffffffffffffffff82169050919050565b600061235a8261232f565b9050919050565b61236a8161234f565b82525050565b60006020820190506123856000830184612361565b92915050565b6000604051905090565b600080fd5b600080fd5b6000819050919050565b6123b28161239f565b81146123bd57600080fd5b50565b6000813590506123cf816123a9565b92915050565b6000602082840312156123eb576123ea612395565b5b60006123f9848285016123c0565b91505092915050565b61240b8161234f565b811461241657600080fd5b50565b60008135905061242881612402565b92915050565b60006020828403121561244457612443612395565b5b600061245284828501612419565b91505092915050565b6124648161239f565b82525050565b600060208201905061247f600083018461245b565b92915050565b60008115159050919050565b61249a81612485565b82525050565b60006020820190506124b56000830184612491565b92915050565b60006040820190506124d0600083018561245b565b6124dd602083018461245b565b9392505050565b600080604083850312156124fb576124fa612395565b5b600061250985828601612419565b925050602061251a85828601612419565b9150509250929050565b600080fd5b6000601f19601f8301169050919050565b7f4e487b7100000000000000000000000000000000000000000000000000000000600052604160045260246000fd5b61257282612529565b810181811067ffffffffffffffff821117156125915761259061253a565b5b80604052505050565b60006125a461238b565b90506125b08282612569565b919050565b600067ffffffffffffffff8211156125d0576125cf61253a565b5b602082029050602081019050919050565b600080fd5b600080fd5b600060408284031215612601576126006125e6565b5b61260b604061259a565b9050600061261b848285016123c0565b600083015250602061262f848285016123c0565b60208301525092915050565b600061264e612649846125b5565b61259a565b90508083825260208201905060408402830185811115612671576126706125e1565b5b835b8181101561269a578061268688826125eb565b845260208401935050604081019050612673565b5050509392505050565b600082601f8301126126b9576126b8612524565b5b81356126c984826020860161263b565b91505092915050565b6000602082840312156126e8576126e7612395565b5b600082013567ffffffffffffffff8111156127065761270561239a565b5b612712848285016126a4565b91505092915050565b6000806040838503121561273257612731612395565b5b600061274085828601612419565b9250506020612751858286016123c0565b9150509250929050565b6000819050919050565b61276e8161275b565b811461277957600080fd5b50565b60008135905061278b81612765565b92915050565b6000806000606084860312156127aa576127a9612395565b5b60006127b886828701612419565b93505060206127c98682870161277c565b92505060406127da868287016123c0565b9150509250925092565b6000602082840312156127fa576127f9612395565b5b60006128088482850161277c565b91505092915050565b600082825260208201905092915050565b7f4c696e6b20796f75722077616c6c65742077697468207477697474657220746f60008201527f207374616b650000000000000000000000000000000000000000000000000000602082015250565b600061287e602683612811565b915061288982612822565b604082019050919050565b600060208201905081810360008301526128ad81612871565b9050919050565b7f547275737444726f70733a3a416d6f756e74206d75737420626520706f73697460008201527f6976650000000000000000000000000000000000000000000000000000000000602082015250565b6000612910602383612811565b915061291b826128b4565b604082019050919050565b6000602082019050818103600083015261293f81612903565b9050919050565b7f4e487b7100000000000000000000000000000000000000000000000000000000600052601160045260246000fd5b60006129808261239f565b915061298b8361239f565b92508282019050808211156129a3576129a2612946565b5b92915050565b60006129b48261239f565b91506129bf8361239f565b92508282039050818111156129d7576129d6612946565b5b92915050565b60006060820190506129f2600083018661245b565b6129ff602083018561245b565b612a0c604083018461245b565b949350505050565b7f46756e647320756e617661696c61626c65000000000000000000000000000000600082015250565b6000612a4a601183612811565b9150612a5582612a14565b602082019050919050565b60006020820190508181036000830152612a7981612a3d565b9050919050565b7f4e6f2072657761726420616c6c6f636174696f6e000000000000000000000000600082015250565b6000612ab6601483612811565b9150612ac182612a80565b602082019050919050565b60006020820190508181036000830152612ae581612aa9565b9050919050565b600081905092915050565b50565b6000612b07600083612aec565b9150612b1282612af7565b600082019050919050565b6000612b2882612afa565b9150819050919050565b7f547275737444726f70733a3a4661696c656420746f2073656e64204574686572600082015250565b6000612b68602083612811565b9150612b7382612b32565b602082019050919050565b60006020820190508181036000830152612b9781612b5b565b9050919050565b7f4e487b7100000000000000000000000000000000000000000000000000000000600052603260045260246000fd5b6000612bd88261239f565b91507fffffffffffffffffffffffffffffffffffffffffffffffffffffffffffffffff8203612c0a57612c09612946565b5b600182019050919050565b7f547275737444726f70733a3a496e73756666696369656e74207374616b65642060008201527f616d6f756e740000000000000000000000000000000000000000000000000000602082015250565b6000612c71602683612811565b9150612c7c82612c15565b604082019050919050565b60006020820190508181036000830152612ca081612c64565b9050919050565b7f547275737444726f70733a3a4e6f7420617574686f7269736564000000000000600082015250565b6000612cdd601a83612811565b9150612ce882612ca7565b602082019050919050565b60006020820190508181036000830152612d0c81612cd0565b9050919050565b7f547275737444726f70733a3a4164647265737320616c7265616479206170707260008201527f6f76656400000000000000000000000000000000000000000000000000000000602082015250565b6000612d6f602483612811565b9150612d7a82612d13565b604082019050919050565b60006020820190508181036000830152612d9e81612d62565b9050919050565b7f547275737444726f70733a3a496420616c726561647920617070726f76656400600082015250565b6000612ddb601f83612811565b9150612de682612da5565b602082019050919050565b60006020820190508181036000830152612e0a81612dce565b9050919050565b7f4e487b7100000000000000000000000000000000000000000000000000000000600052601260045260246000fd5b6000612e4b8261239f565b9150612e568361239f565b925082612e6657612e65612e11565b5b828204905092915050565b6000612e7c8261239f565b9150612e878361239f565b9250828202612e958161239f565b91508282048414831517612eac57612eab612946565b5b509291505056fea2646970667358221220833147349bff65e75c7a57989606282cc9bc5695513cff222830f6f97fb1866764736f6c63430008140033",
  "linkReferences": {},
  "deployedLinkReferences": {}
}