{
  "_format": "hh-sol-artifact-1",
  "contractName": "TrustDrops",
  "sourceName": "contracts/TrustDrops.sol",
  "abi": [
    {
      "inputs": [],
      "stateMutability": "nonpayable",
      "type": "constructor"
    },
    {
      "inputs": [
        {
          "internalType": "address",
          "name": "owner",
          "type": "address"
        }
      ],
      "name": "OwnableInvalidOwner",
      "type": "error"
    },
    {
      "inputs": [
        {
          "internalType": "address",
          "name": "account",
          "type": "address"
        }
      ],
      "name": "OwnableUnauthorizedAccount",
      "type": "error"
    },
    {
      "anonymous": false,
      "inputs": [
        {
          "indexed": true,
          "internalType": "address",
          "name": "previousOwner",
          "type": "address"
        },
        {
          "indexed": true,
          "internalType": "address",
          "name": "newOwner",
          "type": "address"
        }
      ],
      "name": "OwnershipTransferred",
      "type": "event"
    },
    {
      "anonymous": false,
      "inputs": [
        {
          "indexed": true,
          "internalType": "address",
          "name": "staker",
          "type": "address"
        },
        {
          "indexed": true,
          "internalType": "address",
          "name": "candidate",
          "type": "address"
        },
        {
          "indexed": false,
          "internalType": "uint256",
          "name": "amount",
          "type": "uint256"
        },
        {
          "indexed": false,
          "internalType": "uint256",
          "name": "cred",
          "type": "uint256"
        }
      ],
      "name": "Staked",
      "type": "event"
    },
    {
      "anonymous": false,
      "inputs": [
        {
          "indexed": true,
          "internalType": "address",
          "name": "candidate",
          "type": "address"
        },
        {
          "indexed": false,
          "internalType": "uint256",
          "name": "amount",
          "type": "uint256"
        }
      ],
      "name": "TokensClaimed",
      "type": "event"
    },
    {
      "anonymous": false,
      "inputs": [
        {
          "indexed": true,
          "internalType": "address",
          "name": "staker",
          "type": "address"
        },
        {
          "indexed": true,
          "internalType": "address",
          "name": "candidate",
          "type": "address"
        },
        {
          "indexed": false,
          "internalType": "uint256",
          "name": "amount",
          "type": "uint256"
        },
        {
          "indexed": false,
          "internalType": "uint256",
          "name": "cred",
          "type": "uint256"
        }
      ],
      "name": "Unstaked",
      "type": "event"
    },
    {
      "inputs": [],
      "name": "APPROVAL_AIRDROP_AMOUNT",
      "outputs": [
        {
          "internalType": "uint256",
          "name": "",
          "type": "uint256"
        }
      ],
      "stateMutability": "view",
      "type": "function"
    },
    {
      "inputs": [
        {
          "internalType": "address",
          "name": "",
          "type": "address"
        }
      ],
      "name": "allocation",
      "outputs": [
        {
          "internalType": "uint256",
          "name": "",
          "type": "uint256"
        }
      ],
      "stateMutability": "view",
      "type": "function"
    },
    {
      "inputs": [
        {
          "internalType": "address",
          "name": "_user",
          "type": "address"
        },
        {
          "internalType": "bytes32",
          "name": "_id",
          "type": "bytes32"
        }
      ],
      "name": "approve",
      "outputs": [],
      "stateMutability": "nonpayable",
      "type": "function"
    },
    {
      "inputs": [
        {
          "internalType": "address",
          "name": "",
          "type": "address"
        }
      ],
      "name": "approvedAddress",
      "outputs": [
        {
          "internalType": "bool",
          "name": "",
          "type": "bool"
        }
      ],
      "stateMutability": "view",
      "type": "function"
    },
    {
      "inputs": [
        {
          "internalType": "bytes32",
          "name": "",
          "type": "bytes32"
        }
      ],
      "name": "approvedId",
      "outputs": [
        {
          "internalType": "bool",
          "name": "",
          "type": "bool"
        }
      ],
      "stateMutability": "view",
      "type": "function"
    },
    {
      "inputs": [],
      "name": "approver",
      "outputs": [
        {
          "internalType": "address",
          "name": "",
          "type": "address"
        }
      ],
      "stateMutability": "view",
      "type": "function"
    },
    {
      "inputs": [],
      "name": "claimTokens",
      "outputs": [],
      "stateMutability": "nonpayable",
      "type": "function"
    },
    {
      "inputs": [],
      "name": "depositSeedFunds",
      "outputs": [],
      "stateMutability": "payable",
      "type": "function"
    },
    {
      "inputs": [],
      "name": "owner",
      "outputs": [
        {
          "internalType": "address",
          "name": "",
          "type": "address"
        }
      ],
      "stateMutability": "view",
      "type": "function"
    },
    {
      "inputs": [],
      "name": "renounceOwnership",
      "outputs": [],
      "stateMutability": "nonpayable",
      "type": "function"
    },
    {
      "inputs": [
        {
          "internalType": "address",
          "name": "",
          "type": "address"
        }
      ],
      "name": "reputation",
      "outputs": [
        {
          "internalType": "uint256",
          "name": "",
          "type": "uint256"
        }
      ],
      "stateMutability": "view",
      "type": "function"
    },
    {
      "inputs": [],
      "name": "seedFund",
      "outputs": [
        {
          "internalType": "uint256",
          "name": "",
          "type": "uint256"
        }
      ],
      "stateMutability": "view",
      "type": "function"
    },
    {
      "inputs": [
        {
          "internalType": "address",
          "name": "candidate",
          "type": "address"
        }
      ],
      "name": "stake",
      "outputs": [],
      "stateMutability": "payable",
      "type": "function"
    },
    {
      "inputs": [
        {
          "internalType": "address",
          "name": "",
          "type": "address"
        },
        {
          "internalType": "address",
          "name": "",
          "type": "address"
        }
      ],
      "name": "stakes",
      "outputs": [
        {
          "internalType": "uint256",
          "name": "amount",
          "type": "uint256"
        }
      ],
      "stateMutability": "view",
      "type": "function"
    },
    {
      "inputs": [],
      "name": "totalAllocationLocked",
      "outputs": [
        {
          "internalType": "uint256",
          "name": "",
          "type": "uint256"
        }
      ],
      "stateMutability": "view",
      "type": "function"
    },
    {
      "inputs": [],
      "name": "totalReputation",
      "outputs": [
        {
          "internalType": "uint256",
          "name": "",
          "type": "uint256"
        }
      ],
      "stateMutability": "view",
      "type": "function"
    },
    {
      "inputs": [
        {
          "internalType": "address",
          "name": "",
          "type": "address"
        }
      ],
      "name": "totalStakedByUser",
      "outputs": [
        {
          "internalType": "uint256",
          "name": "",
          "type": "uint256"
        }
      ],
      "stateMutability": "view",
      "type": "function"
    },
    {
      "inputs": [
        {
          "internalType": "address",
          "name": "newOwner",
          "type": "address"
        }
      ],
      "name": "transferOwnership",
      "outputs": [],
      "stateMutability": "nonpayable",
      "type": "function"
    },
    {
      "inputs": [
        {
          "internalType": "address",
          "name": "candidate",
          "type": "address"
        },
        {
          "internalType": "uint256",
          "name": "amount",
          "type": "uint256"
        }
      ],
      "name": "unstake",
      "outputs": [],
      "stateMutability": "nonpayable",
      "type": "function"
    },
    {
      "inputs": [
        {
          "internalType": "address",
          "name": "_newApprover",
          "type": "address"
        }
      ],
      "name": "updateApprover",
      "outputs": [],
      "stateMutability": "nonpayable",
      "type": "function"
    },
    {
      "inputs": [
        {
          "internalType": "address",
          "name": "",
          "type": "address"
        }
      ],
      "name": "userAdded",
      "outputs": [
        {
          "internalType": "bool",
          "name": "",
          "type": "bool"
        }
      ],
      "stateMutability": "view",
      "type": "function"
    },
    {
      "inputs": [
        {
          "internalType": "uint256",
          "name": "",
          "type": "uint256"
        }
      ],
      "name": "users",
      "outputs": [
        {
          "internalType": "address",
          "name": "",
          "type": "address"
        }
      ],
      "stateMutability": "view",
      "type": "function"
    },
    {
      "stateMutability": "payable",
      "type": "receive"
    }
  ],
  "bytecode": "0x60806040523480156200001157600080fd5b5033600073ffffffffffffffffffffffffffffffffffffffff168173ffffffffffffffffffffffffffffffffffffffff1603620000885760006040517f1e4fbdf70000000000000000000000000000000000000000000000000000000081526004016200007f9190620001ea565b60405180910390fd5b6200009981620000e160201b60201c565b5033600460006101000a81548173ffffffffffffffffffffffffffffffffffffffff021916908373ffffffffffffffffffffffffffffffffffffffff16021790555062000207565b60008060009054906101000a900473ffffffffffffffffffffffffffffffffffffffff169050816000806101000a81548173ffffffffffffffffffffffffffffffffffffffff021916908373ffffffffffffffffffffffffffffffffffffffff1602179055508173ffffffffffffffffffffffffffffffffffffffff168173ffffffffffffffffffffffffffffffffffffffff167f8be0079c531659141344cd1fd0a4f28419497f9722a3daafe3b4186f6b6457e060405160405180910390a35050565b600073ffffffffffffffffffffffffffffffffffffffff82169050919050565b6000620001d282620001a5565b9050919050565b620001e481620001c5565b82525050565b6000602082019050620002016000830184620001d9565b92915050565b61238280620002176000396000f3fe6080604052600436106101395760003560e01c80638da5cb5b116100ab578063bd7da6541161006f578063bd7da65414610584578063c2a672e0146105ad578063d0b2b579146105d6578063d263c61d14610601578063e58352411461063e578063f2fde38b14610669576102ab565b80638da5cb5b146104985780638e09cbd0146104c3578063a4e47b66146104cd578063b81b86301461050a578063b9f7945114610547576102ab565b806348c54b9d116100fd57806348c54b9d1461039c5780635cd2f4d3146103b35780636a2c91b3146103dc5780636a85f2c3146104075780636bda722b14610444578063715018a614610481576102ab565b8063141a8dd8146102b057806326476204146102db578063365b98b2146102f75780634419695114610334578063489aa0331461035f576102ab565b366102ab5760005b600c805490508110156102a957600060015460086000600c858154811061016b5761016a611b82565b5b9060005260206000200160009054906101000a900473ffffffffffffffffffffffffffffffffffffffff1673ffffffffffffffffffffffffffffffffffffffff1673ffffffffffffffffffffffffffffffffffffffff16815260200190815260200160002054346101dc9190611bea565b6101e69190611c5b565b905080600b6000600c858154811061020157610200611b82565b5b9060005260206000200160009054906101000a900473ffffffffffffffffffffffffffffffffffffffff1673ffffffffffffffffffffffffffffffffffffffff1673ffffffffffffffffffffffffffffffffffffffff16815260200190815260200160002060008282546102759190611c8c565b92505081905550806003600082825461028e9190611c8c565b925050819055505080806102a190611cc0565b915050610141565b005b600080fd5b3480156102bc57600080fd5b506102c5610692565b6040516102d29190611d49565b60405180910390f35b6102f560048036038101906102f09190611d95565b6106b8565b005b34801561030357600080fd5b5061031e60048036038101906103199190611dee565b610d9a565b60405161032b9190611d49565b60405180910390f35b34801561034057600080fd5b50610349610dd9565b6040516103569190611e2a565b60405180910390f35b34801561036b57600080fd5b5061038660048036038101906103819190611d95565b610ddf565b6040516103939190611e2a565b60405180910390f35b3480156103a857600080fd5b506103b1610df7565b005b3480156103bf57600080fd5b506103da60048036038101906103d59190611e7b565b610f97565b005b3480156103e857600080fd5b506103f161133c565b6040516103fe9190611e2a565b60405180910390f35b34801561041357600080fd5b5061042e60048036038101906104299190611d95565b611349565b60405161043b9190611ed6565b60405180910390f35b34801561045057600080fd5b5061046b60048036038101906104669190611d95565b611369565b6040516104789190611ed6565b60405180910390f35b34801561048d57600080fd5b50610496611389565b005b3480156104a457600080fd5b506104ad61139d565b6040516104ba9190611d49565b60405180910390f35b6104cb6113c6565b005b3480156104d957600080fd5b506104f460048036038101906104ef9190611ef1565b6113e1565b6040516105019190611e2a565b60405180910390f35b34801561051657600080fd5b50610531600480360381019061052c9190611d95565b61140c565b60405161053e9190611e2a565b60405180910390f35b34801561055357600080fd5b5061056e60048036038101906105699190611d95565b611424565b60405161057b9190611e2a565b60405180910390f35b34801561059057600080fd5b506105ab60048036038101906105a69190611d95565b61143c565b005b3480156105b957600080fd5b506105d460048036038101906105cf9190611f31565b611488565b005b3480156105e257600080fd5b506105eb6118f9565b6040516105f89190611e2a565b60405180910390f35b34801561060d57600080fd5b5061062860048036038101906106239190611f71565b6118ff565b6040516106359190611ed6565b60405180910390f35b34801561064a57600080fd5b5061065361191f565b6040516106609190611e2a565b60405180910390f35b34801561067557600080fd5b50610690600480360381019061068b9190611d95565b611925565b005b600460009054906101000a900473ffffffffffffffffffffffffffffffffffffffff1681565b600960003373ffffffffffffffffffffffffffffffffffffffff1673ffffffffffffffffffffffffffffffffffffffff16815260200190815260200160002060009054906101000a900460ff16610744576040517f08c379a000000000000000000000000000000000000000000000000000000000815260040161073b90611ffb565b60405180910390fd5b60003490506000811161078c576040517f08c379a00000000000000000000000000000000000000000000000000000000081526004016107839061208d565b60405180910390fd5b600d60008373ffffffffffffffffffffffffffffffffffffffff1673ffffffffffffffffffffffffffffffffffffffff16815260200190815260200160002060009054906101000a900460ff1661089957600c829080600181540180825580915050600190039060005260206000200160009091909190916101000a81548173ffffffffffffffffffffffffffffffffffffffff021916908373ffffffffffffffffffffffffffffffffffffffff1602179055506001600d60008473ffffffffffffffffffffffffffffffffffffffff1673ffffffffffffffffffffffffffffffffffffffff16815260200190815260200160002060006101000a81548160ff0219169083151502179055505b600560008373ffffffffffffffffffffffffffffffffffffffff1673ffffffffffffffffffffffffffffffffffffffff16815260200190815260200160002060010160003373ffffffffffffffffffffffffffffffffffffffff1673ffffffffffffffffffffffffffffffffffffffff16815260200190815260200160002060009054906101000a900460ff16610a6657600560008373ffffffffffffffffffffffffffffffffffffffff1673ffffffffffffffffffffffffffffffffffffffff168152602001908152602001600020600001339080600181540180825580915050600190039060005260206000200160009091909190916101000a81548173ffffffffffffffffffffffffffffffffffffffff021916908373ffffffffffffffffffffffffffffffffffffffff1602179055506001600560008473ffffffffffffffffffffffffffffffffffffffff1673ffffffffffffffffffffffffffffffffffffffff16815260200190815260200160002060010160003373ffffffffffffffffffffffffffffffffffffffff1673ffffffffffffffffffffffffffffffffffffffff16815260200190815260200160002060006101000a81548160ff0219169083151502179055505b6000610af0600660003373ffffffffffffffffffffffffffffffffffffffff1673ffffffffffffffffffffffffffffffffffffffff16815260200190815260200160002060008573ffffffffffffffffffffffffffffffffffffffff1673ffffffffffffffffffffffffffffffffffffffff168152602001908152602001600020600001546119ab565b905081600660003373ffffffffffffffffffffffffffffffffffffffff1673ffffffffffffffffffffffffffffffffffffffff16815260200190815260200160002060008573ffffffffffffffffffffffffffffffffffffffff1673ffffffffffffffffffffffffffffffffffffffff1681526020019081526020016000206000016000828254610b819190611c8c565b9250508190555081600760003373ffffffffffffffffffffffffffffffffffffffff1673ffffffffffffffffffffffffffffffffffffffff1681526020019081526020016000206000828254610bd79190611c8c565b925050819055506000610c68600660003373ffffffffffffffffffffffffffffffffffffffff1673ffffffffffffffffffffffffffffffffffffffff16815260200190815260200160002060008673ffffffffffffffffffffffffffffffffffffffff1673ffffffffffffffffffffffffffffffffffffffff168152602001908152602001600020600001546119ab565b90508082600860008773ffffffffffffffffffffffffffffffffffffffff1673ffffffffffffffffffffffffffffffffffffffff16815260200190815260200160002054610cb691906120ad565b610cc09190611c8c565b600860008673ffffffffffffffffffffffffffffffffffffffff1673ffffffffffffffffffffffffffffffffffffffff168152602001908152602001600020819055508181600154610d129190611c8c565b610d1c91906120ad565b6001819055508373ffffffffffffffffffffffffffffffffffffffff163373ffffffffffffffffffffffffffffffffffffffff167f6c86f3fd5118b3aa8bb4f389a617046de0a3d3d477de1a1673d227f802f616dc858585610d7e91906120ad565b604051610d8c9291906120e1565b60405180910390a350505050565b600c8181548110610daa57600080fd5b906000526020600020016000915054906101000a900473ffffffffffffffffffffffffffffffffffffffff1681565b60035481565b60076020528060005260406000206000915090505481565b6000600b60003373ffffffffffffffffffffffffffffffffffffffff1673ffffffffffffffffffffffffffffffffffffffff1681526020019081526020016000205490506000600b60003373ffffffffffffffffffffffffffffffffffffffff1673ffffffffffffffffffffffffffffffffffffffff1681526020019081526020016000208190555060003373ffffffffffffffffffffffffffffffffffffffff1682604051610ea69061213b565b60006040518083038185875af1925050503d8060008114610ee3576040519150601f19603f3d011682016040523d82523d6000602084013e610ee8565b606091505b505090508160036000828254610efe91906120ad565b9250508190555080610f45576040517f08c379a0000000000000000000000000000000000000000000000000000000008152600401610f3c9061219c565b60405180910390fd5b3373ffffffffffffffffffffffffffffffffffffffff167f896e034966eaaf1adc54acc0f257056febbd300c9e47182cf761982cf1f5e43083604051610f8b9190611e2a565b60405180910390a25050565b600460009054906101000a900473ffffffffffffffffffffffffffffffffffffffff1673ffffffffffffffffffffffffffffffffffffffff163373ffffffffffffffffffffffffffffffffffffffff1614611027576040517f08c379a000000000000000000000000000000000000000000000000000000000815260040161101e90611ffb565b60405180910390fd5b60001515600960008473ffffffffffffffffffffffffffffffffffffffff1673ffffffffffffffffffffffffffffffffffffffff16815260200190815260200160002060009054906101000a900460ff161515146110ba576040517f08c379a00000000000000000000000000000000000000000000000000000000081526004016110b19061222e565b60405180910390fd5b60001515600a600083815260200190815260200160002060009054906101000a900460ff16151514611121576040517f08c379a00000000000000000000000000000000000000000000000000000000081526004016111189061229a565b60405180910390fd5b6001600960008473ffffffffffffffffffffffffffffffffffffffff1673ffffffffffffffffffffffffffffffffffffffff16815260200190815260200160002060006101000a81548160ff0219169083151502179055506001600a600083815260200190815260200160002060006101000a81548160ff021916908315150217905550600c339080600181540180825580915050600190039060005260206000200160009091909190916101000a81548173ffffffffffffffffffffffffffffffffffffffff021916908373ffffffffffffffffffffffffffffffffffffffff1602179055506001600d60003373ffffffffffffffffffffffffffffffffffffffff1673ffffffffffffffffffffffffffffffffffffffff16815260200190815260200160002060006101000a81548160ff02191690831515021790555060003373ffffffffffffffffffffffffffffffffffffffff166801a055690d9db8000060405161128f9061213b565b60006040518083038185875af1925050503d80600081146112cc576040519150601f19603f3d011682016040523d82523d6000602084013e6112d1565b606091505b505090506801a055690d9db80000600260008282546112f091906120ad565b9250508190555080611337576040517f08c379a000000000000000000000000000000000000000000000000000000000815260040161132e9061219c565b60405180910390fd5b505050565b6801a055690d9db8000081565b60096020528060005260406000206000915054906101000a900460ff1681565b600d6020528060005260406000206000915054906101000a900460ff1681565b611391611a2f565b61139b6000611ab6565b565b60008060009054906101000a900473ffffffffffffffffffffffffffffffffffffffff16905090565b34600260008282546113d89190611c8c565b92505081905550565b6006602052816000526040600020602052806000526040600020600091509150508060000154905081565b600b6020528060005260406000206000915090505481565b60086020528060005260406000206000915090505481565b611444611a2f565b80600460006101000a81548173ffffffffffffffffffffffffffffffffffffffff021916908373ffffffffffffffffffffffffffffffffffffffff16021790555050565b600081116114cb576040517f08c379a00000000000000000000000000000000000000000000000000000000081526004016114c29061208d565b60405180910390fd5b6000600660003373ffffffffffffffffffffffffffffffffffffffff1673ffffffffffffffffffffffffffffffffffffffff16815260200190815260200160002060008473ffffffffffffffffffffffffffffffffffffffff1673ffffffffffffffffffffffffffffffffffffffff16815260200190815260200160002090508181600001541015611592576040517f08c379a00000000000000000000000000000000000000000000000000000000081526004016115899061232c565b60405180910390fd5b600061161c600660003373ffffffffffffffffffffffffffffffffffffffff1673ffffffffffffffffffffffffffffffffffffffff16815260200190815260200160002060008673ffffffffffffffffffffffffffffffffffffffff1673ffffffffffffffffffffffffffffffffffffffff168152602001908152602001600020600001546119ab565b90508282600001600082825461163291906120ad565b9250508190555082600760003373ffffffffffffffffffffffffffffffffffffffff1673ffffffffffffffffffffffffffffffffffffffff168152602001908152602001600020600082825461168891906120ad565b925050819055506000611719600660003373ffffffffffffffffffffffffffffffffffffffff1673ffffffffffffffffffffffffffffffffffffffff16815260200190815260200160002060008773ffffffffffffffffffffffffffffffffffffffff1673ffffffffffffffffffffffffffffffffffffffff168152602001908152602001600020600001546119ab565b90508181600860008873ffffffffffffffffffffffffffffffffffffffff1673ffffffffffffffffffffffffffffffffffffffff168152602001908152602001600020546117679190611c8c565b61177191906120ad565b600860008773ffffffffffffffffffffffffffffffffffffffff1673ffffffffffffffffffffffffffffffffffffffff1681526020019081526020016000208190555081816001546117c39190611c8c565b6117cd91906120ad565b60018190555060003373ffffffffffffffffffffffffffffffffffffffff16856040516117f99061213b565b60006040518083038185875af1925050503d8060008114611836576040519150601f19603f3d011682016040523d82523d6000602084013e61183b565b606091505b505090508061187f576040517f08c379a00000000000000000000000000000000000000000000000000000000081526004016118769061219c565b60405180910390fd5b8573ffffffffffffffffffffffffffffffffffffffff163373ffffffffffffffffffffffffffffffffffffffff167f06cc7e90b4f2b554a9614b0caa84f909f3498c820ae47c731f490c28c07f7d3b8785876118db91906120ad565b6040516118e99291906120e1565b60405180910390a3505050505050565b60025481565b600a6020528060005260406000206000915054906101000a900460ff1681565b60015481565b61192d611a2f565b600073ffffffffffffffffffffffffffffffffffffffff168173ffffffffffffffffffffffffffffffffffffffff160361199f5760006040517f1e4fbdf70000000000000000000000000000000000000000000000000000000081526004016119969190611d49565b60405180910390fd5b6119a881611ab6565b50565b60008082036119bd5760009050611a2a565b600060026001846119ce9190611c8c565b6119d89190611c5b565b905060008390505b80821015611a155781905060028283866119fa9190611c5b565b611a049190611c8c565b611a0e9190611c5b565b91506119e0565b633b9aca0081611a259190611c5b565b925050505b919050565b611a37611b7a565b73ffffffffffffffffffffffffffffffffffffffff16611a5561139d565b73ffffffffffffffffffffffffffffffffffffffff1614611ab457611a78611b7a565b6040517f118cdaa7000000000000000000000000000000000000000000000000000000008152600401611aab9190611d49565b60405180910390fd5b565b60008060009054906101000a900473ffffffffffffffffffffffffffffffffffffffff169050816000806101000a81548173ffffffffffffffffffffffffffffffffffffffff021916908373ffffffffffffffffffffffffffffffffffffffff1602179055508173ffffffffffffffffffffffffffffffffffffffff168173ffffffffffffffffffffffffffffffffffffffff167f8be0079c531659141344cd1fd0a4f28419497f9722a3daafe3b4186f6b6457e060405160405180910390a35050565b600033905090565b7f4e487b7100000000000000000000000000000000000000000000000000000000600052603260045260246000fd5b6000819050919050565b7f4e487b7100000000000000000000000000000000000000000000000000000000600052601160045260246000fd5b6000611bf582611bb1565b9150611c0083611bb1565b9250828202611c0e81611bb1565b91508282048414831517611c2557611c24611bbb565b5b5092915050565b7f4e487b7100000000000000000000000000000000000000000000000000000000600052601260045260246000fd5b6000611c6682611bb1565b9150611c7183611bb1565b925082611c8157611c80611c2c565b5b828204905092915050565b6000611c9782611bb1565b9150611ca283611bb1565b9250828201905080821115611cba57611cb9611bbb565b5b92915050565b6000611ccb82611bb1565b91507fffffffffffffffffffffffffffffffffffffffffffffffffffffffffffffffff8203611cfd57611cfc611bbb565b5b600182019050919050565b600073ffffffffffffffffffffffffffffffffffffffff82169050919050565b6000611d3382611d08565b9050919050565b611d4381611d28565b82525050565b6000602082019050611d5e6000830184611d3a565b92915050565b600080fd5b611d7281611d28565b8114611d7d57600080fd5b50565b600081359050611d8f81611d69565b92915050565b600060208284031215611dab57611daa611d64565b5b6000611db984828501611d80565b91505092915050565b611dcb81611bb1565b8114611dd657600080fd5b50565b600081359050611de881611dc2565b92915050565b600060208284031215611e0457611e03611d64565b5b6000611e1284828501611dd9565b91505092915050565b611e2481611bb1565b82525050565b6000602082019050611e3f6000830184611e1b565b92915050565b6000819050919050565b611e5881611e45565b8114611e6357600080fd5b50565b600081359050611e7581611e4f565b92915050565b60008060408385031215611e9257611e91611d64565b5b6000611ea085828601611d80565b9250506020611eb185828601611e66565b9150509250929050565b60008115159050919050565b611ed081611ebb565b82525050565b6000602082019050611eeb6000830184611ec7565b92915050565b60008060408385031215611f0857611f07611d64565b5b6000611f1685828601611d80565b9250506020611f2785828601611d80565b9150509250929050565b60008060408385031215611f4857611f47611d64565b5b6000611f5685828601611d80565b9250506020611f6785828601611dd9565b9150509250929050565b600060208284031215611f8757611f86611d64565b5b6000611f9584828501611e66565b91505092915050565b600082825260208201905092915050565b7f547275737444726f70733a3a4e6f7420617574686f7269736564000000000000600082015250565b6000611fe5601a83611f9e565b9150611ff082611faf565b602082019050919050565b6000602082019050818103600083015261201481611fd8565b9050919050565b7f547275737444726f70733a3a416d6f756e74206d75737420626520706f73697460008201527f6976650000000000000000000000000000000000000000000000000000000000602082015250565b6000612077602383611f9e565b91506120828261201b565b604082019050919050565b600060208201905081810360008301526120a68161206a565b9050919050565b60006120b882611bb1565b91506120c383611bb1565b92508282039050818111156120db576120da611bbb565b5b92915050565b60006040820190506120f66000830185611e1b565b6121036020830184611e1b565b9392505050565b600081905092915050565b50565b600061212560008361210a565b915061213082612115565b600082019050919050565b600061214682612118565b9150819050919050565b7f547275737444726f70733a3a4661696c656420746f2073656e64204574686572600082015250565b6000612186602083611f9e565b915061219182612150565b602082019050919050565b600060208201905081810360008301526121b581612179565b9050919050565b7f547275737444726f70733a3a4164647265737320616c7265616479206170707260008201527f6f76656400000000000000000000000000000000000000000000000000000000602082015250565b6000612218602483611f9e565b9150612223826121bc565b604082019050919050565b600060208201905081810360008301526122478161220b565b9050919050565b7f547275737444726f70733a3a496420616c726561647920617070726f76656400600082015250565b6000612284601f83611f9e565b915061228f8261224e565b602082019050919050565b600060208201905081810360008301526122b381612277565b9050919050565b7f547275737444726f70733a3a496e73756666696369656e74207374616b65642060008201527f616d6f756e740000000000000000000000000000000000000000000000000000602082015250565b6000612316602683611f9e565b9150612321826122ba565b604082019050919050565b6000602082019050818103600083015261234581612309565b905091905056fea26469706673582212203d0de970f20948b80a90d90fe6e945fc290e1cfb9eb28198527b9a209aaade2a64736f6c63430008140033",
  "linkReferences": {},
  "deployedLinkReferences": {}
}