{
  "_format": "hh-sol-artifact-1",
  "contractName": "TrustDrops",
  "sourceName": "contracts/TrustDrops.sol",
  "abi": [
    {
      "inputs": [
        {
          "internalType": "address",
          "name": "_mandTokenAddress",
          "type": "address"
        },
        {
          "internalType": "address",
          "name": "_anonAadhaarVerifierAddr",
          "type": "address"
        }
      ],
      "stateMutability": "nonpayable",
      "type": "constructor"
    },
    {
      "inputs": [
        {
          "internalType": "address",
          "name": "owner",
          "type": "address"
        }
      ],
      "name": "OwnableInvalidOwner",
      "type": "error"
    },
    {
      "inputs": [
        {
          "internalType": "address",
          "name": "account",
          "type": "address"
        }
      ],
      "name": "OwnableUnauthorizedAccount",
      "type": "error"
    },
    {
      "anonymous": false,
      "inputs": [
        {
          "indexed": true,
          "internalType": "address",
          "name": "previousOwner",
          "type": "address"
        },
        {
          "indexed": true,
          "internalType": "address",
          "name": "newOwner",
          "type": "address"
        }
      ],
      "name": "OwnershipTransferred",
      "type": "event"
    },
    {
      "anonymous": false,
      "inputs": [
        {
          "indexed": true,
          "internalType": "address",
          "name": "staker",
          "type": "address"
        },
        {
          "indexed": true,
          "internalType": "address",
          "name": "candidate",
          "type": "address"
        },
        {
          "indexed": false,
          "internalType": "uint256",
          "name": "amount",
          "type": "uint256"
        },
        {
          "indexed": false,
          "internalType": "uint256",
          "name": "cred",
          "type": "uint256"
        }
      ],
      "name": "Staked",
      "type": "event"
    },
    {
      "anonymous": false,
      "inputs": [
        {
          "indexed": true,
          "internalType": "address",
          "name": "candidate",
          "type": "address"
        },
        {
          "indexed": false,
          "internalType": "uint256",
          "name": "amount",
          "type": "uint256"
        }
      ],
      "name": "TokensClaimed",
      "type": "event"
    },
    {
      "anonymous": false,
      "inputs": [
        {
          "indexed": true,
          "internalType": "address",
          "name": "staker",
          "type": "address"
        },
        {
          "indexed": true,
          "internalType": "address",
          "name": "candidate",
          "type": "address"
        },
        {
          "indexed": false,
          "internalType": "uint256",
          "name": "amount",
          "type": "uint256"
        }
      ],
      "name": "Unstaked",
      "type": "event"
    },
    {
      "inputs": [],
      "name": "DISTRIBUTION_DENOMINATOR",
      "outputs": [
        {
          "internalType": "uint256",
          "name": "",
          "type": "uint256"
        }
      ],
      "stateMutability": "view",
      "type": "function"
    },
    {
      "inputs": [],
      "name": "DISTRIBUTION_INTERVAL",
      "outputs": [
        {
          "internalType": "uint256",
          "name": "",
          "type": "uint256"
        }
      ],
      "stateMutability": "view",
      "type": "function"
    },
    {
      "inputs": [],
      "name": "LOGIN_AIRDROP_AMOUNT",
      "outputs": [
        {
          "internalType": "uint256",
          "name": "",
          "type": "uint256"
        }
      ],
      "stateMutability": "view",
      "type": "function"
    },
    {
      "inputs": [
        {
          "internalType": "address",
          "name": "",
          "type": "address"
        }
      ],
      "name": "alreadyLoggedIn",
      "outputs": [
        {
          "internalType": "bool",
          "name": "",
          "type": "bool"
        }
      ],
      "stateMutability": "view",
      "type": "function"
    },
    {
      "inputs": [
        {
          "internalType": "uint256",
          "name": "",
          "type": "uint256"
        }
      ],
      "name": "alreadyVerified",
      "outputs": [
        {
          "internalType": "bool",
          "name": "",
          "type": "bool"
        }
      ],
      "stateMutability": "view",
      "type": "function"
    },
    {
      "inputs": [],
      "name": "anonAadhaarVerifierAddr",
      "outputs": [
        {
          "internalType": "address",
          "name": "",
          "type": "address"
        }
      ],
      "stateMutability": "view",
      "type": "function"
    },
    {
      "inputs": [
        {
          "internalType": "address",
          "name": "candidate",
          "type": "address"
        }
      ],
      "name": "calculateIndividualAllocation",
      "outputs": [
        {
          "internalType": "uint256",
          "name": "",
          "type": "uint256"
        }
      ],
      "stateMutability": "view",
      "type": "function"
    },
    {
      "inputs": [],
      "name": "claimTokens",
      "outputs": [],
      "stateMutability": "nonpayable",
      "type": "function"
    },
    {
      "inputs": [
        {
          "internalType": "address",
          "name": "",
          "type": "address"
        }
      ],
      "name": "lastClaimTime",
      "outputs": [
        {
          "internalType": "uint256",
          "name": "",
          "type": "uint256"
        }
      ],
      "stateMutability": "view",
      "type": "function"
    },
    {
      "inputs": [],
      "name": "mandToken",
      "outputs": [
        {
          "internalType": "contract IERC20",
          "name": "",
          "type": "address"
        }
      ],
      "stateMutability": "view",
      "type": "function"
    },
    {
      "inputs": [],
      "name": "owner",
      "outputs": [
        {
          "internalType": "address",
          "name": "",
          "type": "address"
        }
      ],
      "stateMutability": "view",
      "type": "function"
    },
    {
      "inputs": [],
      "name": "renounceOwnership",
      "outputs": [],
      "stateMutability": "nonpayable",
      "type": "function"
    },
    {
      "inputs": [
        {
          "internalType": "address",
          "name": "",
          "type": "address"
        }
      ],
      "name": "reputation",
      "outputs": [
        {
          "internalType": "uint256",
          "name": "",
          "type": "uint256"
        }
      ],
      "stateMutability": "view",
      "type": "function"
    },
    {
      "inputs": [
        {
          "internalType": "address",
          "name": "candidate",
          "type": "address"
        },
        {
          "internalType": "uint256",
          "name": "amount",
          "type": "uint256"
        }
      ],
      "name": "stake",
      "outputs": [],
      "stateMutability": "nonpayable",
      "type": "function"
    },
    {
      "inputs": [
        {
          "internalType": "address",
          "name": "",
          "type": "address"
        },
        {
          "internalType": "address",
          "name": "",
          "type": "address"
        }
      ],
      "name": "stakes",
      "outputs": [
        {
          "internalType": "uint256",
          "name": "amount",
          "type": "uint256"
        }
      ],
      "stateMutability": "view",
      "type": "function"
    },
    {
      "inputs": [],
      "name": "totalReputation",
      "outputs": [
        {
          "internalType": "uint256",
          "name": "",
          "type": "uint256"
        }
      ],
      "stateMutability": "view",
      "type": "function"
    },
    {
      "inputs": [
        {
          "internalType": "address",
          "name": "",
          "type": "address"
        }
      ],
      "name": "totalStakedByUser",
      "outputs": [
        {
          "internalType": "uint256",
          "name": "",
          "type": "uint256"
        }
      ],
      "stateMutability": "view",
      "type": "function"
    },
    {
      "inputs": [
        {
          "internalType": "address",
          "name": "newOwner",
          "type": "address"
        }
      ],
      "name": "transferOwnership",
      "outputs": [],
      "stateMutability": "nonpayable",
      "type": "function"
    },
    {
      "inputs": [
        {
          "internalType": "address",
          "name": "candidate",
          "type": "address"
        },
        {
          "internalType": "uint256",
          "name": "amount",
          "type": "uint256"
        }
      ],
      "name": "unstake",
      "outputs": [],
      "stateMutability": "nonpayable",
      "type": "function"
    },
    {
      "inputs": [
        {
          "internalType": "uint256[2]",
          "name": "_pA",
          "type": "uint256[2]"
        },
        {
          "internalType": "uint256[2][2]",
          "name": "_pB",
          "type": "uint256[2][2]"
        },
        {
          "internalType": "uint256[2]",
          "name": "_pC",
          "type": "uint256[2]"
        },
        {
          "internalType": "uint256[34]",
          "name": "_pubSignals",
          "type": "uint256[34]"
        }
      ],
      "name": "verifyAadhaar",
      "outputs": [],
      "stateMutability": "nonpayable",
      "type": "function"
    }
  ],
  "bytecode": "0x60806040523480156200001157600080fd5b506040516200256d3803806200256d833981810160405281019062000037919062000277565b33600073ffffffffffffffffffffffffffffffffffffffff168173ffffffffffffffffffffffffffffffffffffffff1603620000ad5760006040517f1e4fbdf7000000000000000000000000000000000000000000000000000000008152600401620000a49190620002cf565b60405180910390fd5b620000be816200014960201b60201c565b5081600160006101000a81548173ffffffffffffffffffffffffffffffffffffffff021916908373ffffffffffffffffffffffffffffffffffffffff16021790555080600260006101000a81548173ffffffffffffffffffffffffffffffffffffffff021916908373ffffffffffffffffffffffffffffffffffffffff1602179055505050620002ec565b60008060009054906101000a900473ffffffffffffffffffffffffffffffffffffffff169050816000806101000a81548173ffffffffffffffffffffffffffffffffffffffff021916908373ffffffffffffffffffffffffffffffffffffffff1602179055508173ffffffffffffffffffffffffffffffffffffffff168173ffffffffffffffffffffffffffffffffffffffff167f8be0079c531659141344cd1fd0a4f28419497f9722a3daafe3b4186f6b6457e060405160405180910390a35050565b600080fd5b600073ffffffffffffffffffffffffffffffffffffffff82169050919050565b60006200023f8262000212565b9050919050565b620002518162000232565b81146200025d57600080fd5b50565b600081519050620002718162000246565b92915050565b600080604083850312156200029157620002906200020d565b5b6000620002a18582860162000260565b9250506020620002b48582860162000260565b9150509250929050565b620002c98162000232565b82525050565b6000602082019050620002e66000830184620002be565b92915050565b61227180620002fc6000396000f3fe608060405234801561001057600080fd5b506004361061012c5760003560e01c8063896854d8116100ad578063b77cf9c611610071578063b77cf9c614610321578063b9f7945114610351578063c2a672e014610381578063e58352411461039d578063f2fde38b146103bb5761012c565b8063896854d8146102575780638da5cb5b14610287578063a4e47b66146102a5578063a5652880146102d5578063adc9772e146103055761012c565b8063489aa033116100f4578063489aa033146101d757806348c54b9d1461020757806349d17ec5146102115780636a6904fb1461022f578063715018a61461024d5761012c565b806308b26b75146101315780630dbffbcd1461014f57806317f5e33d1461016d57806321f052491461018b5780633148c441146101a7575b600080fd5b6101396103d7565b604051610146919061188e565b60405180910390f35b6101576103dd565b60405161016491906118ea565b60405180910390f35b610175610403565b6040516101829190611964565b60405180910390f35b6101a560048036038101906101a091906119ef565b610429565b005b6101c160048036038101906101bc9190611a84565b6106e1565b6040516101ce9190611acc565b60405180910390f35b6101f160048036038101906101ec9190611b13565b610701565b6040516101fe919061188e565b60405180910390f35b61020f610719565b005b61021961092e565b604051610226919061188e565b60405180910390f35b61023761093b565b604051610244919061188e565b60405180910390f35b610255610940565b005b610271600480360381019061026c9190611b13565b610954565b60405161027e9190611acc565b60405180910390f35b61028f610974565b60405161029c91906118ea565b60405180910390f35b6102bf60048036038101906102ba9190611b40565b61099d565b6040516102cc919061188e565b60405180910390f35b6102ef60048036038101906102ea9190611b13565b6109c8565b6040516102fc919061188e565b60405180910390f35b61031f600480360381019061031a9190611b80565b610b45565b005b61033b60048036038101906103369190611b13565b61113d565b604051610348919061188e565b60405180910390f35b61036b60048036038101906103669190611b13565b611155565b604051610378919061188e565b60405180910390f35b61039b60048036038101906103969190611b80565b61116d565b005b6103a561153d565b6040516103b2919061188e565b60405180910390f35b6103d560048036038101906103d09190611b13565b611543565b005b61012c81565b600260009054906101000a900473ffffffffffffffffffffffffffffffffffffffff1681565b600160009054906101000a900473ffffffffffffffffffffffffffffffffffffffff1681565b60001515600960008360006022811061044557610444611bc0565b5b6020020135815260200190815260200160002060009054906101000a900460ff161515146104a8576040517f08c379a000000000000000000000000000000000000000000000000000000000815260040161049f90611c4c565b60405180910390fd5b6000600260009054906101000a900473ffffffffffffffffffffffffffffffffffffffff1673ffffffffffffffffffffffffffffffffffffffff16638525a61d868686866040518563ffffffff1660e01b815260040161050b9493929190611d55565b602060405180830381865afa158015610528573d6000803e3d6000fd5b505050506040513d601f19601f8201168201806040525081019061054c9190611dc8565b9050801561069f576001600960008460006022811061056e5761056d611bc0565b5b6020020135815260200190815260200160002060006101000a81548160ff0219169083151502179055506001600a60003373ffffffffffffffffffffffffffffffffffffffff1673ffffffffffffffffffffffffffffffffffffffff16815260200190815260200160002060006101000a81548160ff021916908315150217905550600160009054906101000a900473ffffffffffffffffffffffffffffffffffffffff1673ffffffffffffffffffffffffffffffffffffffff1663a9059cbb3368056bc75e2d631000006040518363ffffffff1660e01b8152600401610656929190611df5565b6020604051808303816000875af1158015610675573d6000803e3d6000fd5b505050506040513d601f19601f820116820180604052508101906106999190611dc8565b506106da565b6040517f08c379a00000000000000000000000000000000000000000000000000000000081526004016106d190611e6a565b60405180910390fd5b5050505050565b60096020528060005260406000206000915054906101000a900460ff1681565b60066020528060005260406000206000915090505481565b61012c600860003373ffffffffffffffffffffffffffffffffffffffff1673ffffffffffffffffffffffffffffffffffffffff168152602001908152602001600020546107669190611eb9565b4210156107a8576040517f08c379a000000000000000000000000000000000000000000000000000000000815260040161079f90611f5f565b60405180910390fd5b60006107b3336109c8565b9050600081116107f8576040517f08c379a00000000000000000000000000000000000000000000000000000000081526004016107ef90611fcb565b60405180910390fd5b42600860003373ffffffffffffffffffffffffffffffffffffffff1673ffffffffffffffffffffffffffffffffffffffff16815260200190815260200160002081905550600160009054906101000a900473ffffffffffffffffffffffffffffffffffffffff1673ffffffffffffffffffffffffffffffffffffffff1663a9059cbb33836040518363ffffffff1660e01b8152600401610899929190611df5565b6020604051808303816000875af11580156108b8573d6000803e3d6000fd5b505050506040513d601f19601f820116820180604052508101906108dc9190611dc8565b503373ffffffffffffffffffffffffffffffffffffffff167f896e034966eaaf1adc54acc0f257056febbd300c9e47182cf761982cf1f5e43082604051610923919061188e565b60405180910390a250565b68056bc75e2d6310000081565b60c881565b6109486115c9565b6109526000611650565b565b600a6020528060005260406000206000915054906101000a900460ff1681565b60008060009054906101000a900473ffffffffffffffffffffffffffffffffffffffff16905090565b6005602052816000526040600020602052806000526040600020600091509150508060000154905081565b600061012c600860003373ffffffffffffffffffffffffffffffffffffffff1673ffffffffffffffffffffffffffffffffffffffff16815260200190815260200160002054610a179190611eb9565b4210610b3b576000600160009054906101000a900473ffffffffffffffffffffffffffffffffffffffff1673ffffffffffffffffffffffffffffffffffffffff166370a08231306040518263ffffffff1660e01b8152600401610a7a91906118ea565b602060405180830381865afa158015610a97573d6000803e3d6000fd5b505050506040513d601f19601f82011682018060405250810190610abb9190612000565b9050600060c882610acc919061205c565b90506000600760008673ffffffffffffffffffffffffffffffffffffffff1673ffffffffffffffffffffffffffffffffffffffff16815260200190815260200160002054905060006003548284610b23919061208d565b610b2d919061205c565b905080945050505050610b40565b600090505b919050565b60008111610b88576040517f08c379a0000000000000000000000000000000000000000000000000000000008152600401610b7f9061211b565b60405180910390fd5b600160009054906101000a900473ffffffffffffffffffffffffffffffffffffffff1673ffffffffffffffffffffffffffffffffffffffff166323b872dd3330846040518463ffffffff1660e01b8152600401610be79392919061213b565b6020604051808303816000875af1158015610c06573d6000803e3d6000fd5b505050506040513d601f19601f82011682018060405250810190610c2a9190611dc8565b50600460008373ffffffffffffffffffffffffffffffffffffffff1673ffffffffffffffffffffffffffffffffffffffff16815260200190815260200160002060010160003373ffffffffffffffffffffffffffffffffffffffff1673ffffffffffffffffffffffffffffffffffffffff16815260200190815260200160002060009054906101000a900460ff16610df857600460008373ffffffffffffffffffffffffffffffffffffffff1673ffffffffffffffffffffffffffffffffffffffff168152602001908152602001600020600001339080600181540180825580915050600190039060005260206000200160009091909190916101000a81548173ffffffffffffffffffffffffffffffffffffffff021916908373ffffffffffffffffffffffffffffffffffffffff1602179055506001600460008473ffffffffffffffffffffffffffffffffffffffff1673ffffffffffffffffffffffffffffffffffffffff16815260200190815260200160002060010160003373ffffffffffffffffffffffffffffffffffffffff1673ffffffffffffffffffffffffffffffffffffffff16815260200190815260200160002060006101000a81548160ff0219169083151502179055505b610e80600560003373ffffffffffffffffffffffffffffffffffffffff1673ffffffffffffffffffffffffffffffffffffffff16815260200190815260200160002060008473ffffffffffffffffffffffffffffffffffffffff1673ffffffffffffffffffffffffffffffffffffffff16815260200190815260200160002060000154611714565b60036000828254610e919190612172565b925050819055506000610f22600560003373ffffffffffffffffffffffffffffffffffffffff1673ffffffffffffffffffffffffffffffffffffffff16815260200190815260200160002060008573ffffffffffffffffffffffffffffffffffffffff1673ffffffffffffffffffffffffffffffffffffffff16815260200190815260200160002060000154611714565b905081600560003373ffffffffffffffffffffffffffffffffffffffff1673ffffffffffffffffffffffffffffffffffffffff16815260200190815260200160002060008573ffffffffffffffffffffffffffffffffffffffff1673ffffffffffffffffffffffffffffffffffffffff1681526020019081526020016000206000016000828254610fb39190611eb9565b9250508190555081600660003373ffffffffffffffffffffffffffffffffffffffff1673ffffffffffffffffffffffffffffffffffffffff16815260200190815260200160002060008282546110099190611eb9565b9250508190555061101a3384611798565b60006110a4600560003373ffffffffffffffffffffffffffffffffffffffff1673ffffffffffffffffffffffffffffffffffffffff16815260200190815260200160002060008673ffffffffffffffffffffffffffffffffffffffff1673ffffffffffffffffffffffffffffffffffffffff16815260200190815260200160002060000154611714565b905081816003546110b59190611eb9565b6110bf9190612172565b6003819055508373ffffffffffffffffffffffffffffffffffffffff163373ffffffffffffffffffffffffffffffffffffffff167f6c86f3fd5118b3aa8bb4f389a617046de0a3d3d477de1a1673d227f802f616dc8585856111219190612172565b60405161112f9291906121a6565b60405180910390a350505050565b60086020528060005260406000206000915090505481565b60076020528060005260406000206000915090505481565b600081116111b0576040517f08c379a00000000000000000000000000000000000000000000000000000000081526004016111a79061211b565b60405180910390fd5b6000600560003373ffffffffffffffffffffffffffffffffffffffff1673ffffffffffffffffffffffffffffffffffffffff16815260200190815260200160002060008473ffffffffffffffffffffffffffffffffffffffff1673ffffffffffffffffffffffffffffffffffffffff16815260200190815260200160002090508181600001541015611277576040517f08c379a000000000000000000000000000000000000000000000000000000000815260040161126e9061221b565b60405180910390fd5b6112ff600560003373ffffffffffffffffffffffffffffffffffffffff1673ffffffffffffffffffffffffffffffffffffffff16815260200190815260200160002060008573ffffffffffffffffffffffffffffffffffffffff1673ffffffffffffffffffffffffffffffffffffffff16815260200190815260200160002060000154611714565b600360008282546113109190612172565b925050819055508181600001600082825461132b9190612172565b9250508190555081600660003373ffffffffffffffffffffffffffffffffffffffff1673ffffffffffffffffffffffffffffffffffffffff16815260200190815260200160002060008282546113819190612172565b925050819055506113923384611798565b61141a600560003373ffffffffffffffffffffffffffffffffffffffff1673ffffffffffffffffffffffffffffffffffffffff16815260200190815260200160002060008573ffffffffffffffffffffffffffffffffffffffff1673ffffffffffffffffffffffffffffffffffffffff16815260200190815260200160002060000154611714565b6003600082825461142b9190611eb9565b92505081905550600160009054906101000a900473ffffffffffffffffffffffffffffffffffffffff1673ffffffffffffffffffffffffffffffffffffffff1663a9059cbb33846040518363ffffffff1660e01b815260040161148f929190611df5565b6020604051808303816000875af11580156114ae573d6000803e3d6000fd5b505050506040513d601f19601f820116820180604052508101906114d29190611dc8565b508273ffffffffffffffffffffffffffffffffffffffff163373ffffffffffffffffffffffffffffffffffffffff167fd8654fcc8cf5b36d30b3f5e4688fc78118e6d68de60b9994e09902268b57c3e384604051611530919061188e565b60405180910390a3505050565b60035481565b61154b6115c9565b600073ffffffffffffffffffffffffffffffffffffffff168173ffffffffffffffffffffffffffffffffffffffff16036115bd5760006040517f1e4fbdf70000000000000000000000000000000000000000000000000000000081526004016115b491906118ea565b60405180910390fd5b6115c681611650565b50565b6115d161186d565b73ffffffffffffffffffffffffffffffffffffffff166115ef610974565b73ffffffffffffffffffffffffffffffffffffffff161461164e5761161261186d565b6040517f118cdaa700000000000000000000000000000000000000000000000000000000815260040161164591906118ea565b60405180910390fd5b565b60008060009054906101000a900473ffffffffffffffffffffffffffffffffffffffff169050816000806101000a81548173ffffffffffffffffffffffffffffffffffffffff021916908373ffffffffffffffffffffffffffffffffffffffff1602179055508173ffffffffffffffffffffffffffffffffffffffff168173ffffffffffffffffffffffffffffffffffffffff167f8be0079c531659141344cd1fd0a4f28419497f9722a3daafe3b4186f6b6457e060405160405180910390a35050565b60008082036117265760009050611793565b600060026001846117379190611eb9565b611741919061205c565b905060008390505b8082101561177e578190506002828386611763919061205c565b61176d9190611eb9565b611777919061205c565b9150611749565b633b9aca008161178e919061205c565b925050505b919050565b6000600560008473ffffffffffffffffffffffffffffffffffffffff1673ffffffffffffffffffffffffffffffffffffffff16815260200190815260200160002060008373ffffffffffffffffffffffffffffffffffffffff1673ffffffffffffffffffffffffffffffffffffffff16815260200190815260200160002090506118258160000154611714565b600760008473ffffffffffffffffffffffffffffffffffffffff1673ffffffffffffffffffffffffffffffffffffffff16815260200190815260200160002081905550505050565b600033905090565b6000819050919050565b61188881611875565b82525050565b60006020820190506118a3600083018461187f565b92915050565b600073ffffffffffffffffffffffffffffffffffffffff82169050919050565b60006118d4826118a9565b9050919050565b6118e4816118c9565b82525050565b60006020820190506118ff60008301846118db565b92915050565b6000819050919050565b600061192a611925611920846118a9565b611905565b6118a9565b9050919050565b600061193c8261190f565b9050919050565b600061194e82611931565b9050919050565b61195e81611943565b82525050565b60006020820190506119796000830184611955565b92915050565b600080fd5b600080fd5b6000819050826020600202820111156119a5576119a4611984565b5b92915050565b6000819050826040600202820111156119c7576119c6611984565b5b92915050565b6000819050826020602202820111156119e9576119e8611984565b5b92915050565b6000806000806105408587031215611a0a57611a0961197f565b5b6000611a1887828801611989565b9450506040611a29878288016119ab565b93505060c0611a3a87828801611989565b925050610100611a4c878288016119cd565b91505092959194509250565b611a6181611875565b8114611a6c57600080fd5b50565b600081359050611a7e81611a58565b92915050565b600060208284031215611a9a57611a9961197f565b5b6000611aa884828501611a6f565b91505092915050565b60008115159050919050565b611ac681611ab1565b82525050565b6000602082019050611ae16000830184611abd565b92915050565b611af0816118c9565b8114611afb57600080fd5b50565b600081359050611b0d81611ae7565b92915050565b600060208284031215611b2957611b2861197f565b5b6000611b3784828501611afe565b91505092915050565b60008060408385031215611b5757611b5661197f565b5b6000611b6585828601611afe565b9250506020611b7685828601611afe565b9150509250929050565b60008060408385031215611b9757611b9661197f565b5b6000611ba585828601611afe565b9250506020611bb685828601611a6f565b9150509250929050565b7f4e487b7100000000000000000000000000000000000000000000000000000000600052603260045260246000fd5b600082825260208201905092915050565b7f4161646861617220616c72656164792076657269666965640000000000000000600082015250565b6000611c36601883611bef565b9150611c4182611c00565b602082019050919050565b60006020820190508181036000830152611c6581611c29565b9050919050565b82818337505050565b611c8160408383611c6c565b5050565b600060029050919050565b600081905092915050565b6000819050919050565b611cb160408383611c6c565b5050565b6000611cc18383611ca5565b60408301905092915050565b600082905092915050565b6000604082019050919050565b611cee81611c85565b611cf88184611c90565b9250611d0382611c9b565b8060005b83811015611d3c57611d198284611ccd565b611d238782611cb5565b9650611d2e83611cd8565b925050600181019050611d07565b505050505050565b611d516104408383611c6c565b5050565b600061054082019050611d6b6000830187611c75565b611d786040830186611ce5565b611d8560c0830185611c75565b611d93610100830184611d44565b95945050505050565b611da581611ab1565b8114611db057600080fd5b50565b600081519050611dc281611d9c565b92915050565b600060208284031215611dde57611ddd61197f565b5b6000611dec84828501611db3565b91505092915050565b6000604082019050611e0a60008301856118db565b611e17602083018461187f565b9392505050565b7f496e76616c696420616164686161722070726f6f660000000000000000000000600082015250565b6000611e54601583611bef565b9150611e5f82611e1e565b602082019050919050565b60006020820190508181036000830152611e8381611e47565b9050919050565b7f4e487b7100000000000000000000000000000000000000000000000000000000600052601160045260246000fd5b6000611ec482611875565b9150611ecf83611875565b9250828201905080821115611ee757611ee6611e8a565b5b92915050565b7f416c726561647920636c61696d656420666f7220746865206c6174657374206460008201527f6973747269627574696f6e000000000000000000000000000000000000000000602082015250565b6000611f49602b83611bef565b9150611f5482611eed565b604082019050919050565b60006020820190508181036000830152611f7881611f3c565b9050919050565b7f4e6f20746f6b656e7320746f20636c61696d0000000000000000000000000000600082015250565b6000611fb5601283611bef565b9150611fc082611f7f565b602082019050919050565b60006020820190508181036000830152611fe481611fa8565b9050919050565b600081519050611ffa81611a58565b92915050565b6000602082840312156120165761201561197f565b5b600061202484828501611feb565b91505092915050565b7f4e487b7100000000000000000000000000000000000000000000000000000000600052601260045260246000fd5b600061206782611875565b915061207283611875565b9250826120825761208161202d565b5b828204905092915050565b600061209882611875565b91506120a383611875565b92508282026120b181611875565b915082820484148315176120c8576120c7611e8a565b5b5092915050565b7f416d6f756e74206d75737420626520706f736974697665000000000000000000600082015250565b6000612105601783611bef565b9150612110826120cf565b602082019050919050565b60006020820190508181036000830152612134816120f8565b9050919050565b600060608201905061215060008301866118db565b61215d60208301856118db565b61216a604083018461187f565b949350505050565b600061217d82611875565b915061218883611875565b92508282039050818111156121a05761219f611e8a565b5b92915050565b60006040820190506121bb600083018561187f565b6121c8602083018461187f565b9392505050565b7f496e73756666696369656e74207374616b656420616d6f756e74000000000000600082015250565b6000612205601a83611bef565b9150612210826121cf565b602082019050919050565b60006020820190508181036000830152612234816121f8565b905091905056fea2646970667358221220c6dedabafb109081696629fcd1905bf58c70af6bad7c5e521f9c70d3354859b164736f6c63430008140033",
  "linkReferences": {},
  "deployedLinkReferences": {}
}