{
  "_format": "hh-sol-artifact-1",
  "contractName": "TrustDrops",
  "sourceName": "contracts/TrustDrops.sol",
  "abi": [
    {
      "inputs": [],
      "stateMutability": "nonpayable",
      "type": "constructor"
    },
    {
      "inputs": [
        {
          "internalType": "address",
          "name": "owner",
          "type": "address"
        }
      ],
      "name": "OwnableInvalidOwner",
      "type": "error"
    },
    {
      "inputs": [
        {
          "internalType": "address",
          "name": "account",
          "type": "address"
        }
      ],
      "name": "OwnableUnauthorizedAccount",
      "type": "error"
    },
    {
      "anonymous": false,
      "inputs": [
        {
          "indexed": true,
          "internalType": "address",
          "name": "previousOwner",
          "type": "address"
        },
        {
          "indexed": true,
          "internalType": "address",
          "name": "newOwner",
          "type": "address"
        }
      ],
      "name": "OwnershipTransferred",
      "type": "event"
    },
    {
      "anonymous": false,
      "inputs": [
        {
          "indexed": true,
          "internalType": "address",
          "name": "staker",
          "type": "address"
        },
        {
          "indexed": true,
          "internalType": "address",
          "name": "candidate",
          "type": "address"
        },
        {
          "indexed": false,
          "internalType": "uint256",
          "name": "amount",
          "type": "uint256"
        },
        {
          "indexed": false,
          "internalType": "uint256",
          "name": "cred",
          "type": "uint256"
        },
        {
          "indexed": false,
          "internalType": "uint256",
          "name": "timestamp",
          "type": "uint256"
        }
      ],
      "name": "Staked",
      "type": "event"
    },
    {
      "anonymous": false,
      "inputs": [
        {
          "indexed": true,
          "internalType": "address",
          "name": "candidate",
          "type": "address"
        },
        {
          "indexed": false,
          "internalType": "uint256",
          "name": "amount",
          "type": "uint256"
        }
      ],
      "name": "TokensClaimed",
      "type": "event"
    },
    {
      "anonymous": false,
      "inputs": [
        {
          "indexed": true,
          "internalType": "address",
          "name": "staker",
          "type": "address"
        },
        {
          "indexed": true,
          "internalType": "address",
          "name": "candidate",
          "type": "address"
        },
        {
          "indexed": false,
          "internalType": "uint256",
          "name": "amount",
          "type": "uint256"
        },
        {
          "indexed": false,
          "internalType": "uint256",
          "name": "cred",
          "type": "uint256"
        },
        {
          "indexed": false,
          "internalType": "uint256",
          "name": "timestamp",
          "type": "uint256"
        }
      ],
      "name": "Unstaked",
      "type": "event"
    },
    {
      "inputs": [
        {
          "internalType": "address",
          "name": "_user",
          "type": "address"
        }
      ],
      "name": "allocation",
      "outputs": [
        {
          "internalType": "uint256",
          "name": "",
          "type": "uint256"
        }
      ],
      "stateMutability": "view",
      "type": "function"
    },
    {
      "inputs": [],
      "name": "approvalAirdropAmount",
      "outputs": [
        {
          "internalType": "uint256",
          "name": "",
          "type": "uint256"
        }
      ],
      "stateMutability": "view",
      "type": "function"
    },
    {
      "inputs": [
        {
          "internalType": "address",
          "name": "_user",
          "type": "address"
        },
        {
          "internalType": "bytes32",
          "name": "_id",
          "type": "bytes32"
        },
        {
          "internalType": "uint256",
          "name": "_amount",
          "type": "uint256"
        }
      ],
      "name": "approve",
      "outputs": [],
      "stateMutability": "nonpayable",
      "type": "function"
    },
    {
      "inputs": [
        {
          "internalType": "address",
          "name": "",
          "type": "address"
        }
      ],
      "name": "approvedAddress",
      "outputs": [
        {
          "internalType": "bool",
          "name": "",
          "type": "bool"
        }
      ],
      "stateMutability": "view",
      "type": "function"
    },
    {
      "inputs": [
        {
          "internalType": "bytes32",
          "name": "",
          "type": "bytes32"
        }
      ],
      "name": "approvedId",
      "outputs": [
        {
          "internalType": "bool",
          "name": "",
          "type": "bool"
        }
      ],
      "stateMutability": "view",
      "type": "function"
    },
    {
      "inputs": [],
      "name": "approver",
      "outputs": [
        {
          "internalType": "address",
          "name": "",
          "type": "address"
        }
      ],
      "stateMutability": "view",
      "type": "function"
    },
    {
      "inputs": [],
      "name": "claimTokens",
      "outputs": [],
      "stateMutability": "nonpayable",
      "type": "function"
    },
    {
      "inputs": [],
      "name": "deploymentWeek",
      "outputs": [
        {
          "internalType": "uint256",
          "name": "",
          "type": "uint256"
        }
      ],
      "stateMutability": "view",
      "type": "function"
    },
    {
      "inputs": [],
      "name": "depositSeedFunds",
      "outputs": [],
      "stateMutability": "payable",
      "type": "function"
    },
    {
      "inputs": [],
      "name": "owner",
      "outputs": [
        {
          "internalType": "address",
          "name": "",
          "type": "address"
        }
      ],
      "stateMutability": "view",
      "type": "function"
    },
    {
      "inputs": [],
      "name": "renounceOwnership",
      "outputs": [],
      "stateMutability": "nonpayable",
      "type": "function"
    },
    {
      "inputs": [
        {
          "internalType": "address",
          "name": "",
          "type": "address"
        }
      ],
      "name": "reputation",
      "outputs": [
        {
          "internalType": "uint256",
          "name": "",
          "type": "uint256"
        }
      ],
      "stateMutability": "view",
      "type": "function"
    },
    {
      "inputs": [],
      "name": "rewardDetails",
      "outputs": [
        {
          "internalType": "uint256",
          "name": "lastUpdatedWeek",
          "type": "uint256"
        },
        {
          "internalType": "uint256",
          "name": "lastWeeklyTotalCred",
          "type": "uint256"
        }
      ],
      "stateMutability": "view",
      "type": "function"
    },
    {
      "inputs": [],
      "name": "seedFund",
      "outputs": [
        {
          "internalType": "uint256",
          "name": "",
          "type": "uint256"
        }
      ],
      "stateMutability": "view",
      "type": "function"
    },
    {
      "inputs": [
        {
          "internalType": "address",
          "name": "candidate",
          "type": "address"
        }
      ],
      "name": "stake",
      "outputs": [],
      "stateMutability": "payable",
      "type": "function"
    },
    {
      "inputs": [
        {
          "internalType": "address",
          "name": "",
          "type": "address"
        },
        {
          "internalType": "address",
          "name": "",
          "type": "address"
        }
      ],
      "name": "stakes",
      "outputs": [
        {
          "internalType": "uint256",
          "name": "amount",
          "type": "uint256"
        }
      ],
      "stateMutability": "view",
      "type": "function"
    },
    {
      "inputs": [],
      "name": "tempCurrentRelativeWeek",
      "outputs": [
        {
          "internalType": "uint256",
          "name": "",
          "type": "uint256"
        }
      ],
      "stateMutability": "view",
      "type": "function"
    },
    {
      "inputs": [],
      "name": "totalReputation",
      "outputs": [
        {
          "internalType": "uint256",
          "name": "",
          "type": "uint256"
        }
      ],
      "stateMutability": "view",
      "type": "function"
    },
    {
      "inputs": [
        {
          "internalType": "address",
          "name": "",
          "type": "address"
        }
      ],
      "name": "totalStakedByUser",
      "outputs": [
        {
          "internalType": "uint256",
          "name": "",
          "type": "uint256"
        }
      ],
      "stateMutability": "view",
      "type": "function"
    },
    {
      "inputs": [
        {
          "internalType": "address",
          "name": "newOwner",
          "type": "address"
        }
      ],
      "name": "transferOwnership",
      "outputs": [],
      "stateMutability": "nonpayable",
      "type": "function"
    },
    {
      "inputs": [
        {
          "internalType": "address",
          "name": "candidate",
          "type": "address"
        },
        {
          "internalType": "uint256",
          "name": "amount",
          "type": "uint256"
        }
      ],
      "name": "unstake",
      "outputs": [],
      "stateMutability": "nonpayable",
      "type": "function"
    },
    {
      "inputs": [
        {
          "internalType": "uint256",
          "name": "_updatedAmount",
          "type": "uint256"
        }
      ],
      "name": "updateAirdropAmount",
      "outputs": [],
      "stateMutability": "nonpayable",
      "type": "function"
    },
    {
      "inputs": [
        {
          "internalType": "address",
          "name": "_newApprover",
          "type": "address"
        }
      ],
      "name": "updateApprover",
      "outputs": [],
      "stateMutability": "nonpayable",
      "type": "function"
    },
    {
      "inputs": [
        {
          "components": [
            {
              "internalType": "uint256",
              "name": "weekNumber",
              "type": "uint256"
            },
            {
              "internalType": "uint256",
              "name": "reward",
              "type": "uint256"
            }
          ],
          "internalType": "struct TrustDrops.WeeklyRewardsParam[]",
          "name": "_weeklyRewards",
          "type": "tuple[]"
        }
      ],
      "name": "updateWeeklyTotalRewards",
      "outputs": [],
      "stateMutability": "nonpayable",
      "type": "function"
    },
    {
      "inputs": [
        {
          "internalType": "address",
          "name": "",
          "type": "address"
        }
      ],
      "name": "userAdded",
      "outputs": [
        {
          "internalType": "bool",
          "name": "",
          "type": "bool"
        }
      ],
      "stateMutability": "view",
      "type": "function"
    },
    {
      "inputs": [
        {
          "internalType": "uint256",
          "name": "",
          "type": "uint256"
        }
      ],
      "name": "users",
      "outputs": [
        {
          "internalType": "address",
          "name": "",
          "type": "address"
        }
      ],
      "stateMutability": "view",
      "type": "function"
    },
    {
      "inputs": [],
      "name": "weeklyYield",
      "outputs": [
        {
          "internalType": "uint256",
          "name": "",
          "type": "uint256"
        }
      ],
      "stateMutability": "view",
      "type": "function"
    },
    {
      "stateMutability": "payable",
      "type": "receive"
    }
  ],
  "bytecode": "0x60806040526801a055690d9db800006004553480156200001e57600080fd5b5033600073ffffffffffffffffffffffffffffffffffffffff168173ffffffffffffffffffffffffffffffffffffffff1603620000955760006040517f1e4fbdf70000000000000000000000000000000000000000000000000000000081526004016200008c91906200020e565b60405180910390fd5b620000a6816200010560201b60201c565b5033600560006101000a81548173ffffffffffffffffffffffffffffffffffffffff021916908373ffffffffffffffffffffffffffffffffffffffff16021790555062093a8042620000f9919062000264565b6003819055506200029c565b60008060009054906101000a900473ffffffffffffffffffffffffffffffffffffffff169050816000806101000a81548173ffffffffffffffffffffffffffffffffffffffff021916908373ffffffffffffffffffffffffffffffffffffffff1602179055508173ffffffffffffffffffffffffffffffffffffffff168173ffffffffffffffffffffffffffffffffffffffff167f8be0079c531659141344cd1fd0a4f28419497f9722a3daafe3b4186f6b6457e060405160405180910390a35050565b600073ffffffffffffffffffffffffffffffffffffffff82169050919050565b6000620001f682620001c9565b9050919050565b6200020881620001e9565b82525050565b6000602082019050620002256000830184620001fd565b92915050565b6000819050919050565b7f4e487b7100000000000000000000000000000000000000000000000000000000600052601260045260246000fd5b600062000271826200022b565b91506200027e836200022b565b92508262000291576200029062000235565b5b828204905092915050565b612e9480620002ac6000396000f3fe6080604052600436106101a05760003560e01c80638e09cbd0116100ec578063c7d7e8d31161008a578063d263c61d11610064578063d263c61d146105a6578063dfdf0618146105e3578063e58352411461060e578063f2fde38b14610639576101a7565b8063c7d7e8d314610527578063d0b2b57914610550578063d1aeece51461057b576101a7565b8063b81b8630116100c6578063b81b86301461045b578063b9f7945114610498578063bd7da654146104d5578063c2a672e0146104fe576101a7565b80638e09cbd0146103eb578063a4e47b66146103f5578063ac824b2314610432576101a7565b806348c54b9d11610159578063715018a611610133578063715018a61461035257806388b64819146103695780638b0b84e5146103955780638da5cb5b146103c0576101a7565b806348c54b9d146102c15780636a85f2c3146102d85780636bda722b14610315576101a7565b8063141a8dd8146101ac578063202dc181146101d75780632647620414610200578063365b98b21461021c57806347b3ac6e14610259578063489aa03314610284576101a7565b366101a757005b600080fd5b3480156101b857600080fd5b506101c1610662565b6040516101ce9190612387565b60405180910390f35b3480156101e357600080fd5b506101fe60048036038101906101f991906123ec565b610688565b005b61021a60048036038101906102159190612445565b61069a565b005b34801561022857600080fd5b50610243600480360381019061023e91906123ec565b610d9e565b6040516102509190612387565b60405180910390f35b34801561026557600080fd5b5061026e610ddd565b60405161027b9190612481565b60405180910390f35b34801561029057600080fd5b506102ab60048036038101906102a69190612445565b610de3565b6040516102b89190612481565b60405180910390f35b3480156102cd57600080fd5b506102d6610dfb565b005b3480156102e457600080fd5b506102ff60048036038101906102fa9190612445565b610fac565b60405161030c91906124b7565b60405180910390f35b34801561032157600080fd5b5061033c60048036038101906103379190612445565b610fcc565b60405161034991906124b7565b60405180910390f35b34801561035e57600080fd5b50610367610fec565b005b34801561037557600080fd5b5061037e611000565b60405161038c9291906124d2565b60405180910390f35b3480156103a157600080fd5b506103aa611012565b6040516103b79190612481565b60405180910390f35b3480156103cc57600080fd5b506103d5611041565b6040516103e29190612387565b60405180910390f35b6103f361106a565b005b34801561040157600080fd5b5061041c600480360381019061041791906124fb565b611085565b6040516104299190612481565b60405180910390f35b34801561043e57600080fd5b50610459600480360381019061045491906126e9565b6110b0565b005b34801561046757600080fd5b50610482600480360381019061047d9190612445565b61112a565b60405161048f9190612481565b60405180910390f35b3480156104a457600080fd5b506104bf60048036038101906104ba9190612445565b61113c565b6040516104cc9190612481565b60405180910390f35b3480156104e157600080fd5b506104fc60048036038101906104f79190612445565b611154565b005b34801561050a57600080fd5b5061052560048036038101906105209190612732565b6111a0565b005b34801561053357600080fd5b5061054e600480360381019061054991906127a8565b611633565b005b34801561055c57600080fd5b5061056561190c565b6040516105729190612481565b60405180910390f35b34801561058757600080fd5b50610590611912565b60405161059d9190612481565b60405180910390f35b3480156105b257600080fd5b506105cd60048036038101906105c891906127fb565b611918565b6040516105da91906124b7565b60405180910390f35b3480156105ef57600080fd5b506105f8611938565b6040516106059190612481565b60405180910390f35b34801561061a57600080fd5b50610623611983565b6040516106309190612481565b60405180910390f35b34801561064557600080fd5b50610660600480360381019061065b9190612445565b611989565b005b600560009054906101000a900473ffffffffffffffffffffffffffffffffffffffff1681565b610690611a0f565b8060048190555050565b601260003373ffffffffffffffffffffffffffffffffffffffff1673ffffffffffffffffffffffffffffffffffffffff16815260200190815260200160002060009054906101000a900460ff16610726576040517f08c379a000000000000000000000000000000000000000000000000000000000815260040161071d906128ab565b60405180910390fd5b60003490506000811161076e576040517f08c379a00000000000000000000000000000000000000000000000000000000081526004016107659061293d565b60405180910390fd5b601560008373ffffffffffffffffffffffffffffffffffffffff1673ffffffffffffffffffffffffffffffffffffffff16815260200190815260200160002060009054906101000a900460ff1661087b576014829080600181540180825580915050600190039060005260206000200160009091909190916101000a81548173ffffffffffffffffffffffffffffffffffffffff021916908373ffffffffffffffffffffffffffffffffffffffff1602179055506001601560008473ffffffffffffffffffffffffffffffffffffffff1673ffffffffffffffffffffffffffffffffffffffff16815260200190815260200160002060006101000a81548160ff0219169083151502179055505b600e60008373ffffffffffffffffffffffffffffffffffffffff1673ffffffffffffffffffffffffffffffffffffffff16815260200190815260200160002060010160003373ffffffffffffffffffffffffffffffffffffffff1673ffffffffffffffffffffffffffffffffffffffff16815260200190815260200160002060009054906101000a900460ff16610a4857600e60008373ffffffffffffffffffffffffffffffffffffffff1673ffffffffffffffffffffffffffffffffffffffff168152602001908152602001600020600001339080600181540180825580915050600190039060005260206000200160009091909190916101000a81548173ffffffffffffffffffffffffffffffffffffffff021916908373ffffffffffffffffffffffffffffffffffffffff1602179055506001600e60008473ffffffffffffffffffffffffffffffffffffffff1673ffffffffffffffffffffffffffffffffffffffff16815260200190815260200160002060010160003373ffffffffffffffffffffffffffffffffffffffff1673ffffffffffffffffffffffffffffffffffffffff16815260200190815260200160002060006101000a81548160ff0219169083151502179055505b6000610ad2600f60003373ffffffffffffffffffffffffffffffffffffffff1673ffffffffffffffffffffffffffffffffffffffff16815260200190815260200160002060008573ffffffffffffffffffffffffffffffffffffffff1673ffffffffffffffffffffffffffffffffffffffff16815260200190815260200160002060000154611a96565b905081600f60003373ffffffffffffffffffffffffffffffffffffffff1673ffffffffffffffffffffffffffffffffffffffff16815260200190815260200160002060008573ffffffffffffffffffffffffffffffffffffffff1673ffffffffffffffffffffffffffffffffffffffff1681526020019081526020016000206000016000828254610b63919061298c565b9250508190555081601060003373ffffffffffffffffffffffffffffffffffffffff1673ffffffffffffffffffffffffffffffffffffffff1681526020019081526020016000206000828254610bb9919061298c565b925050819055506000610c4a600f60003373ffffffffffffffffffffffffffffffffffffffff1673ffffffffffffffffffffffffffffffffffffffff16815260200190815260200160002060008673ffffffffffffffffffffffffffffffffffffffff1673ffffffffffffffffffffffffffffffffffffffff16815260200190815260200160002060000154611a96565b90508082601160008773ffffffffffffffffffffffffffffffffffffffff1673ffffffffffffffffffffffffffffffffffffffff16815260200190815260200160002054610c9891906129c0565b610ca2919061298c565b601160008673ffffffffffffffffffffffffffffffffffffffff1673ffffffffffffffffffffffffffffffffffffffff168152602001908152602001600020819055508181600154610cf4919061298c565b610cfe91906129c0565b600181905550610d0d84611b19565b610d24848383610d1d91906129c0565b6000611e08565b8373ffffffffffffffffffffffffffffffffffffffff163373ffffffffffffffffffffffffffffffffffffffff167fad3fa07f4195b47e64892eb944ecbfc253384053c119852bb2bcae484c2fcb69858585610d8091906129c0565b42604051610d90939291906129f4565b60405180910390a350505050565b60148181548110610dae57600080fd5b906000526020600020016000915054906101000a900473ffffffffffffffffffffffffffffffffffffffff1681565b60045481565b60106020528060005260406000206000915090505481565b6000610e0633612069565b905060008111610e4b576040517f08c379a0000000000000000000000000000000000000000000000000000000008152600401610e4290612a77565b60405180910390fd5b610e5433611b19565b6001610e5e61224b565b610e6891906129c0565b600660050160003373ffffffffffffffffffffffffffffffffffffffff1673ffffffffffffffffffffffffffffffffffffffff1681526020019081526020016000208190555060003373ffffffffffffffffffffffffffffffffffffffff1682604051610ed490612ac8565b60006040518083038185875af1925050503d8060008114610f11576040519150601f19603f3d011682016040523d82523d6000602084013e610f16565b606091505b5050905080610f5a576040517f08c379a0000000000000000000000000000000000000000000000000000000008152600401610f5190612b29565b60405180910390fd5b3373ffffffffffffffffffffffffffffffffffffffff167f896e034966eaaf1adc54acc0f257056febbd300c9e47182cf761982cf1f5e43083604051610fa09190612481565b60405180910390a25050565b60126020528060005260406000206000915054906101000a900460ff1681565b60156020528060005260406000206000915054906101000a900460ff1681565b610ff4611a0f565b610ffe600061227a565b565b60068060000154908060010154905082565b6000600160035462093a80426110289190612b78565b61103291906129c0565b61103c919061298c565b905090565b60008060009054906101000a900473ffffffffffffffffffffffffffffffffffffffff16905090565b346002600082825461107c919061298c565b92505081905550565b600f602052816000526040600020602052806000526040600020600091509150508060000154905081565b60005b8151811015611126578181815181106110cf576110ce612ba9565b5b602002602001015160200151600660030160008484815181106110f5576110f4612ba9565b5b602002602001015160000151815260200190815260200160002081905550808061111e90612bd8565b9150506110b3565b5050565b600061113582612069565b9050919050565b60116020528060005260406000206000915090505481565b61115c611a0f565b80600560006101000a81548173ffffffffffffffffffffffffffffffffffffffff021916908373ffffffffffffffffffffffffffffffffffffffff16021790555050565b600081116111e3576040517f08c379a00000000000000000000000000000000000000000000000000000000081526004016111da9061293d565b60405180910390fd5b6000600f60003373ffffffffffffffffffffffffffffffffffffffff1673ffffffffffffffffffffffffffffffffffffffff16815260200190815260200160002060008473ffffffffffffffffffffffffffffffffffffffff1673ffffffffffffffffffffffffffffffffffffffff168152602001908152602001600020905081816000015410156112aa576040517f08c379a00000000000000000000000000000000000000000000000000000000081526004016112a190612c92565b60405180910390fd5b6000611334600f60003373ffffffffffffffffffffffffffffffffffffffff1673ffffffffffffffffffffffffffffffffffffffff16815260200190815260200160002060008673ffffffffffffffffffffffffffffffffffffffff1673ffffffffffffffffffffffffffffffffffffffff16815260200190815260200160002060000154611a96565b90508282600001600082825461134a91906129c0565b9250508190555082601060003373ffffffffffffffffffffffffffffffffffffffff1673ffffffffffffffffffffffffffffffffffffffff16815260200190815260200160002060008282546113a091906129c0565b925050819055506000611431600f60003373ffffffffffffffffffffffffffffffffffffffff1673ffffffffffffffffffffffffffffffffffffffff16815260200190815260200160002060008773ffffffffffffffffffffffffffffffffffffffff1673ffffffffffffffffffffffffffffffffffffffff16815260200190815260200160002060000154611a96565b90508181601160008873ffffffffffffffffffffffffffffffffffffffff1673ffffffffffffffffffffffffffffffffffffffff1681526020019081526020016000205461147f919061298c565b61148991906129c0565b601160008773ffffffffffffffffffffffffffffffffffffffff1673ffffffffffffffffffffffffffffffffffffffff1681526020019081526020016000208190555081816001546114db919061298c565b6114e591906129c0565b6001819055506114f485611b19565b61150b85828461150491906129c0565b6001611e08565b60003373ffffffffffffffffffffffffffffffffffffffff168560405161153190612ac8565b60006040518083038185875af1925050503d806000811461156e576040519150601f19603f3d011682016040523d82523d6000602084013e611573565b606091505b50509050806115b7576040517f08c379a00000000000000000000000000000000000000000000000000000000081526004016115ae90612b29565b60405180910390fd5b8573ffffffffffffffffffffffffffffffffffffffff163373ffffffffffffffffffffffffffffffffffffffff167f9ad65b6c7ddab48c57c60229304ab9d8a7726f680d2319c0704c705eb3f8c63587858761161391906129c0565b42604051611623939291906129f4565b60405180910390a3505050505050565b600560009054906101000a900473ffffffffffffffffffffffffffffffffffffffff1673ffffffffffffffffffffffffffffffffffffffff163373ffffffffffffffffffffffffffffffffffffffff16146116c3576040517f08c379a00000000000000000000000000000000000000000000000000000000081526004016116ba90612cfe565b60405180910390fd5b60001515601260008573ffffffffffffffffffffffffffffffffffffffff1673ffffffffffffffffffffffffffffffffffffffff16815260200190815260200160002060009054906101000a900460ff16151514611756576040517f08c379a000000000000000000000000000000000000000000000000000000000815260040161174d90612d90565b60405180910390fd5b600015156013600084815260200190815260200160002060009054906101000a900460ff161515146117bd576040517f08c379a00000000000000000000000000000000000000000000000000000000081526004016117b490612dfc565b60405180910390fd5b6001601260008573ffffffffffffffffffffffffffffffffffffffff1673ffffffffffffffffffffffffffffffffffffffff16815260200190815260200160002060006101000a81548160ff02191690831515021790555060016013600084815260200190815260200160002060006101000a81548160ff02191690831515021790555060008373ffffffffffffffffffffffffffffffffffffffff168260405161186790612ac8565b60006040518083038185875af1925050503d80600081146118a4576040519150601f19603f3d011682016040523d82523d6000602084013e6118a9565b606091505b5050905081600260008282546118bf91906129c0565b9250508190555080611906576040517f08c379a00000000000000000000000000000000000000000000000000000000081526004016118fd90612b29565b60405180910390fd5b50505050565b60025481565b60035481565b60136020528060005260406000206000915054906101000a900460ff1681565b60008061194361224b565b90506006600201600082815260200190815260200160002054600660030160008381526020019081526020016000205461197d9190612b78565b91505090565b60015481565b611991611a0f565b600073ffffffffffffffffffffffffffffffffffffffff168173ffffffffffffffffffffffffffffffffffffffff1603611a035760006040517f1e4fbdf70000000000000000000000000000000000000000000000000000000081526004016119fa9190612387565b60405180910390fd5b611a0c8161227a565b50565b611a1761233e565b73ffffffffffffffffffffffffffffffffffffffff16611a35611041565b73ffffffffffffffffffffffffffffffffffffffff1614611a9457611a5861233e565b6040517f118cdaa7000000000000000000000000000000000000000000000000000000008152600401611a8b9190612387565b60405180910390fd5b565b6000808203611aa85760009050611b14565b60006002600184611ab9919061298c565b611ac39190612b78565b905060008390505b80821015611b00578190506002828386611ae59190612b78565b611aef919061298c565b611af99190612b78565b9150611acb565b6298968081611b0f9190612b78565b925050505b919050565b6000611b2361224b565b905060006001600660000154611b39919061298c565b90505b818111611b95576000600660020160008381526020019081526020016000205403611b825760066001015460066002016000838152602001908152602001600020819055505b8080611b8d90612bd8565b915050611b3c565b5080600660000181905550600660020160008281526020019081526020016000205460066001018190555060006001600660040160008573ffffffffffffffffffffffffffffffffffffffff1673ffffffffffffffffffffffffffffffffffffffff16815260200190815260200160002054611c11919061298c565b90505b818111611d23576000600660070160008573ffffffffffffffffffffffffffffffffffffffff1673ffffffffffffffffffffffffffffffffffffffff16815260200190815260200160002060008381526020019081526020016000205403611d10576006800160008473ffffffffffffffffffffffffffffffffffffffff1673ffffffffffffffffffffffffffffffffffffffff16815260200190815260200160002054600660070160008573ffffffffffffffffffffffffffffffffffffffff1673ffffffffffffffffffffffffffffffffffffffff1681526020019081526020016000206000838152602001908152602001600020819055505b8080611d1b90612bd8565b915050611c14565b5080600660040160008473ffffffffffffffffffffffffffffffffffffffff1673ffffffffffffffffffffffffffffffffffffffff16815260200190815260200160002081905550600660070160008373ffffffffffffffffffffffffffffffffffffffff1673ffffffffffffffffffffffffffffffffffffffff1681526020019081526020016000206000828152602001908152602001600020546006800160008473ffffffffffffffffffffffffffffffffffffffff1673ffffffffffffffffffffffffffffffffffffffff168152602001908152602001600020819055505050565b6000611e1261224b565b905060008203611eb85782600660020160008381526020019081526020016000206000828254611e42919061298c565b9250508190555082600660070160008673ffffffffffffffffffffffffffffffffffffffff1673ffffffffffffffffffffffffffffffffffffffff16815260200190815260200160002060008381526020019081526020016000206000828254611eac919061298c565b92505081905550611f59565b60018203611f585782600660020160008381526020019081526020016000206000828254611ee691906129c0565b9250508190555082600660070160008673ffffffffffffffffffffffffffffffffffffffff1673ffffffffffffffffffffffffffffffffffffffff16815260200190815260200160002060008381526020019081526020016000206000828254611f5091906129c0565b925050819055505b5b8060066000018190555080600660040160008673ffffffffffffffffffffffffffffffffffffffff1673ffffffffffffffffffffffffffffffffffffffff168152602001908152602001600020819055506006600201600082815260200190815260200160002054600660010181905550600660070160008573ffffffffffffffffffffffffffffffffffffffff1673ffffffffffffffffffffffffffffffffffffffff1681526020019081526020016000206000828152602001908152602001600020546006800160008673ffffffffffffffffffffffffffffffffffffffff1673ffffffffffffffffffffffffffffffffffffffff1681526020019081526020016000208190555050505050565b6000600161207561224b565b036120835760009050612246565b6000600161208f61224b565b61209991906129c0565b90506000600660050160008573ffffffffffffffffffffffffffffffffffffffff1673ffffffffffffffffffffffffffffffffffffffff168152602001908152602001600020549050600081146120fa576001816120f7919061298c565b90505b6000808290505b83811161223e576000600660070160008873ffffffffffffffffffffffffffffffffffffffff1673ffffffffffffffffffffffffffffffffffffffff1681526020019081526020016000206000838152602001908152602001600020549050600060066002016000848152602001908152602001600020549050600060066003016000858152602001908152602001600020549050600083036121e3576006800160008a73ffffffffffffffffffffffffffffffffffffffff1673ffffffffffffffffffffffffffffffffffffffff1681526020019081526020016000205492505b600082036121f45760066001015491505b600082111561222857600082848361220c9190612e1c565b6122169190612b78565b90508086612224919061298c565b9550505b505050808061223690612bd8565b915050612101565b508093505050505b919050565b6000600160035462093a80426122619190612b78565b61226b91906129c0565b612275919061298c565b905090565b60008060009054906101000a900473ffffffffffffffffffffffffffffffffffffffff169050816000806101000a81548173ffffffffffffffffffffffffffffffffffffffff021916908373ffffffffffffffffffffffffffffffffffffffff1602179055508173ffffffffffffffffffffffffffffffffffffffff168173ffffffffffffffffffffffffffffffffffffffff167f8be0079c531659141344cd1fd0a4f28419497f9722a3daafe3b4186f6b6457e060405160405180910390a35050565b600033905090565b600073ffffffffffffffffffffffffffffffffffffffff82169050919050565b600061237182612346565b9050919050565b61238181612366565b82525050565b600060208201905061239c6000830184612378565b92915050565b6000604051905090565b600080fd5b600080fd5b6000819050919050565b6123c9816123b6565b81146123d457600080fd5b50565b6000813590506123e6816123c0565b92915050565b600060208284031215612402576124016123ac565b5b6000612410848285016123d7565b91505092915050565b61242281612366565b811461242d57600080fd5b50565b60008135905061243f81612419565b92915050565b60006020828403121561245b5761245a6123ac565b5b600061246984828501612430565b91505092915050565b61247b816123b6565b82525050565b60006020820190506124966000830184612472565b92915050565b60008115159050919050565b6124b18161249c565b82525050565b60006020820190506124cc60008301846124a8565b92915050565b60006040820190506124e76000830185612472565b6124f46020830184612472565b9392505050565b60008060408385031215612512576125116123ac565b5b600061252085828601612430565b925050602061253185828601612430565b9150509250929050565b600080fd5b6000601f19601f8301169050919050565b7f4e487b7100000000000000000000000000000000000000000000000000000000600052604160045260246000fd5b61258982612540565b810181811067ffffffffffffffff821117156125a8576125a7612551565b5b80604052505050565b60006125bb6123a2565b90506125c78282612580565b919050565b600067ffffffffffffffff8211156125e7576125e6612551565b5b602082029050602081019050919050565b600080fd5b600080fd5b600060408284031215612618576126176125fd565b5b61262260406125b1565b90506000612632848285016123d7565b6000830152506020612646848285016123d7565b60208301525092915050565b6000612665612660846125cc565b6125b1565b90508083825260208201905060408402830185811115612688576126876125f8565b5b835b818110156126b1578061269d8882612602565b84526020840193505060408101905061268a565b5050509392505050565b600082601f8301126126d0576126cf61253b565b5b81356126e0848260208601612652565b91505092915050565b6000602082840312156126ff576126fe6123ac565b5b600082013567ffffffffffffffff81111561271d5761271c6123b1565b5b612729848285016126bb565b91505092915050565b60008060408385031215612749576127486123ac565b5b600061275785828601612430565b9250506020612768858286016123d7565b9150509250929050565b6000819050919050565b61278581612772565b811461279057600080fd5b50565b6000813590506127a28161277c565b92915050565b6000806000606084860312156127c1576127c06123ac565b5b60006127cf86828701612430565b93505060206127e086828701612793565b92505060406127f1868287016123d7565b9150509250925092565b600060208284031215612811576128106123ac565b5b600061281f84828501612793565b91505092915050565b600082825260208201905092915050565b7f4c696e6b20796f75722077616c6c65742077697468207477697474657220746f60008201527f207374616b650000000000000000000000000000000000000000000000000000602082015250565b6000612895602683612828565b91506128a082612839565b604082019050919050565b600060208201905081810360008301526128c481612888565b9050919050565b7f547275737444726f70733a3a416d6f756e74206d75737420626520706f73697460008201527f6976650000000000000000000000000000000000000000000000000000000000602082015250565b6000612927602383612828565b9150612932826128cb565b604082019050919050565b600060208201905081810360008301526129568161291a565b9050919050565b7f4e487b7100000000000000000000000000000000000000000000000000000000600052601160045260246000fd5b6000612997826123b6565b91506129a2836123b6565b92508282019050808211156129ba576129b961295d565b5b92915050565b60006129cb826123b6565b91506129d6836123b6565b92508282039050818111156129ee576129ed61295d565b5b92915050565b6000606082019050612a096000830186612472565b612a166020830185612472565b612a236040830184612472565b949350505050565b7f4e6f2072657761726420616c6c6f636174696f6e000000000000000000000000600082015250565b6000612a61601483612828565b9150612a6c82612a2b565b602082019050919050565b60006020820190508181036000830152612a9081612a54565b9050919050565b600081905092915050565b50565b6000612ab2600083612a97565b9150612abd82612aa2565b600082019050919050565b6000612ad382612aa5565b9150819050919050565b7f547275737444726f70733a3a4661696c656420746f2073656e64204574686572600082015250565b6000612b13602083612828565b9150612b1e82612add565b602082019050919050565b60006020820190508181036000830152612b4281612b06565b9050919050565b7f4e487b7100000000000000000000000000000000000000000000000000000000600052601260045260246000fd5b6000612b83826123b6565b9150612b8e836123b6565b925082612b9e57612b9d612b49565b5b828204905092915050565b7f4e487b7100000000000000000000000000000000000000000000000000000000600052603260045260246000fd5b6000612be3826123b6565b91507fffffffffffffffffffffffffffffffffffffffffffffffffffffffffffffffff8203612c1557612c1461295d565b5b600182019050919050565b7f547275737444726f70733a3a496e73756666696369656e74207374616b65642060008201527f616d6f756e740000000000000000000000000000000000000000000000000000602082015250565b6000612c7c602683612828565b9150612c8782612c20565b604082019050919050565b60006020820190508181036000830152612cab81612c6f565b9050919050565b7f547275737444726f70733a3a4e6f7420617574686f7269736564000000000000600082015250565b6000612ce8601a83612828565b9150612cf382612cb2565b602082019050919050565b60006020820190508181036000830152612d1781612cdb565b9050919050565b7f547275737444726f70733a3a4164647265737320616c7265616479206170707260008201527f6f76656400000000000000000000000000000000000000000000000000000000602082015250565b6000612d7a602483612828565b9150612d8582612d1e565b604082019050919050565b60006020820190508181036000830152612da981612d6d565b9050919050565b7f547275737444726f70733a3a496420616c726561647920617070726f76656400600082015250565b6000612de6601f83612828565b9150612df182612db0565b602082019050919050565b60006020820190508181036000830152612e1581612dd9565b9050919050565b6000612e27826123b6565b9150612e32836123b6565b9250828202612e40816123b6565b91508282048414831517612e5757612e5661295d565b5b509291505056fea2646970667358221220964b0567509b882bf3854b7c7cf8f64bcea3fcd5d1fcbdea4e3494f6cd4a559b64736f6c63430008140033",
  "linkReferences": {},
  "deployedLinkReferences": {}
}