{
  "_format": "hh-sol-artifact-1",
  "contractName": "TrustDrops",
  "sourceName": "contracts/TrustDrops.sol",
  "abi": [
    {
      "inputs": [],
      "stateMutability": "nonpayable",
      "type": "constructor"
    },
    {
      "inputs": [
        {
          "internalType": "address",
          "name": "owner",
          "type": "address"
        }
      ],
      "name": "OwnableInvalidOwner",
      "type": "error"
    },
    {
      "inputs": [
        {
          "internalType": "address",
          "name": "account",
          "type": "address"
        }
      ],
      "name": "OwnableUnauthorizedAccount",
      "type": "error"
    },
    {
      "anonymous": false,
      "inputs": [
        {
          "indexed": true,
          "internalType": "address",
          "name": "previousOwner",
          "type": "address"
        },
        {
          "indexed": true,
          "internalType": "address",
          "name": "newOwner",
          "type": "address"
        }
      ],
      "name": "OwnershipTransferred",
      "type": "event"
    },
    {
      "anonymous": false,
      "inputs": [
        {
          "indexed": true,
          "internalType": "address",
          "name": "staker",
          "type": "address"
        },
        {
          "indexed": true,
          "internalType": "address",
          "name": "candidate",
          "type": "address"
        },
        {
          "indexed": false,
          "internalType": "uint256",
          "name": "amount",
          "type": "uint256"
        },
        {
          "indexed": false,
          "internalType": "uint256",
          "name": "cred",
          "type": "uint256"
        },
        {
          "indexed": false,
          "internalType": "uint256",
          "name": "timestamp",
          "type": "uint256"
        }
      ],
      "name": "Staked",
      "type": "event"
    },
    {
      "anonymous": false,
      "inputs": [
        {
          "indexed": true,
          "internalType": "address",
          "name": "candidate",
          "type": "address"
        },
        {
          "indexed": false,
          "internalType": "uint256",
          "name": "amount",
          "type": "uint256"
        }
      ],
      "name": "TokensClaimed",
      "type": "event"
    },
    {
      "anonymous": false,
      "inputs": [
        {
          "indexed": true,
          "internalType": "address",
          "name": "staker",
          "type": "address"
        },
        {
          "indexed": true,
          "internalType": "address",
          "name": "candidate",
          "type": "address"
        },
        {
          "indexed": false,
          "internalType": "uint256",
          "name": "amount",
          "type": "uint256"
        },
        {
          "indexed": false,
          "internalType": "uint256",
          "name": "cred",
          "type": "uint256"
        },
        {
          "indexed": false,
          "internalType": "uint256",
          "name": "timestamp",
          "type": "uint256"
        }
      ],
      "name": "Unstaked",
      "type": "event"
    },
    {
      "inputs": [],
      "name": "APPROVAL_AIRDROP_AMOUNT",
      "outputs": [
        {
          "internalType": "uint256",
          "name": "",
          "type": "uint256"
        }
      ],
      "stateMutability": "view",
      "type": "function"
    },
    {
      "inputs": [
        {
          "internalType": "address",
          "name": "",
          "type": "address"
        }
      ],
      "name": "allocation",
      "outputs": [
        {
          "internalType": "uint256",
          "name": "",
          "type": "uint256"
        }
      ],
      "stateMutability": "view",
      "type": "function"
    },
    {
      "inputs": [
        {
          "internalType": "address",
          "name": "_user",
          "type": "address"
        },
        {
          "internalType": "bytes32",
          "name": "_id",
          "type": "bytes32"
        }
      ],
      "name": "approve",
      "outputs": [],
      "stateMutability": "nonpayable",
      "type": "function"
    },
    {
      "inputs": [
        {
          "internalType": "address",
          "name": "",
          "type": "address"
        }
      ],
      "name": "approvedAddress",
      "outputs": [
        {
          "internalType": "bool",
          "name": "",
          "type": "bool"
        }
      ],
      "stateMutability": "view",
      "type": "function"
    },
    {
      "inputs": [
        {
          "internalType": "bytes32",
          "name": "",
          "type": "bytes32"
        }
      ],
      "name": "approvedId",
      "outputs": [
        {
          "internalType": "bool",
          "name": "",
          "type": "bool"
        }
      ],
      "stateMutability": "view",
      "type": "function"
    },
    {
      "inputs": [],
      "name": "approver",
      "outputs": [
        {
          "internalType": "address",
          "name": "",
          "type": "address"
        }
      ],
      "stateMutability": "view",
      "type": "function"
    },
    {
      "inputs": [],
      "name": "claimTokens",
      "outputs": [],
      "stateMutability": "nonpayable",
      "type": "function"
    },
    {
      "inputs": [],
      "name": "depositSeedFunds",
      "outputs": [],
      "stateMutability": "payable",
      "type": "function"
    },
    {
      "inputs": [],
      "name": "owner",
      "outputs": [
        {
          "internalType": "address",
          "name": "",
          "type": "address"
        }
      ],
      "stateMutability": "view",
      "type": "function"
    },
    {
      "inputs": [],
      "name": "renounceOwnership",
      "outputs": [],
      "stateMutability": "nonpayable",
      "type": "function"
    },
    {
      "inputs": [
        {
          "internalType": "address",
          "name": "",
          "type": "address"
        }
      ],
      "name": "reputation",
      "outputs": [
        {
          "internalType": "uint256",
          "name": "",
          "type": "uint256"
        }
      ],
      "stateMutability": "view",
      "type": "function"
    },
    {
      "inputs": [],
      "name": "seedFund",
      "outputs": [
        {
          "internalType": "uint256",
          "name": "",
          "type": "uint256"
        }
      ],
      "stateMutability": "view",
      "type": "function"
    },
    {
      "inputs": [
        {
          "internalType": "address",
          "name": "candidate",
          "type": "address"
        }
      ],
      "name": "stake",
      "outputs": [],
      "stateMutability": "payable",
      "type": "function"
    },
    {
      "inputs": [
        {
          "internalType": "address",
          "name": "",
          "type": "address"
        },
        {
          "internalType": "address",
          "name": "",
          "type": "address"
        }
      ],
      "name": "stakes",
      "outputs": [
        {
          "internalType": "uint256",
          "name": "amount",
          "type": "uint256"
        }
      ],
      "stateMutability": "view",
      "type": "function"
    },
    {
      "inputs": [],
      "name": "totalAllocationLocked",
      "outputs": [
        {
          "internalType": "uint256",
          "name": "",
          "type": "uint256"
        }
      ],
      "stateMutability": "view",
      "type": "function"
    },
    {
      "inputs": [],
      "name": "totalReputation",
      "outputs": [
        {
          "internalType": "uint256",
          "name": "",
          "type": "uint256"
        }
      ],
      "stateMutability": "view",
      "type": "function"
    },
    {
      "inputs": [
        {
          "internalType": "address",
          "name": "",
          "type": "address"
        }
      ],
      "name": "totalStakedByUser",
      "outputs": [
        {
          "internalType": "uint256",
          "name": "",
          "type": "uint256"
        }
      ],
      "stateMutability": "view",
      "type": "function"
    },
    {
      "inputs": [
        {
          "internalType": "address",
          "name": "newOwner",
          "type": "address"
        }
      ],
      "name": "transferOwnership",
      "outputs": [],
      "stateMutability": "nonpayable",
      "type": "function"
    },
    {
      "inputs": [
        {
          "internalType": "address",
          "name": "candidate",
          "type": "address"
        },
        {
          "internalType": "uint256",
          "name": "amount",
          "type": "uint256"
        }
      ],
      "name": "unstake",
      "outputs": [],
      "stateMutability": "nonpayable",
      "type": "function"
    },
    {
      "inputs": [
        {
          "internalType": "address",
          "name": "_newApprover",
          "type": "address"
        }
      ],
      "name": "updateApprover",
      "outputs": [],
      "stateMutability": "nonpayable",
      "type": "function"
    },
    {
      "inputs": [
        {
          "internalType": "address",
          "name": "",
          "type": "address"
        }
      ],
      "name": "userAdded",
      "outputs": [
        {
          "internalType": "bool",
          "name": "",
          "type": "bool"
        }
      ],
      "stateMutability": "view",
      "type": "function"
    },
    {
      "inputs": [
        {
          "internalType": "uint256",
          "name": "",
          "type": "uint256"
        }
      ],
      "name": "users",
      "outputs": [
        {
          "internalType": "address",
          "name": "",
          "type": "address"
        }
      ],
      "stateMutability": "view",
      "type": "function"
    },
    {
      "stateMutability": "payable",
      "type": "receive"
    }
  ],
  "bytecode": "0x60806040523480156200001157600080fd5b5033600073ffffffffffffffffffffffffffffffffffffffff168173ffffffffffffffffffffffffffffffffffffffff1603620000885760006040517f1e4fbdf70000000000000000000000000000000000000000000000000000000081526004016200007f9190620001ea565b60405180910390fd5b6200009981620000e160201b60201c565b5033600460006101000a81548173ffffffffffffffffffffffffffffffffffffffff021916908373ffffffffffffffffffffffffffffffffffffffff16021790555062000207565b60008060009054906101000a900473ffffffffffffffffffffffffffffffffffffffff169050816000806101000a81548173ffffffffffffffffffffffffffffffffffffffff021916908373ffffffffffffffffffffffffffffffffffffffff1602179055508173ffffffffffffffffffffffffffffffffffffffff168173ffffffffffffffffffffffffffffffffffffffff167f8be0079c531659141344cd1fd0a4f28419497f9722a3daafe3b4186f6b6457e060405160405180910390a35050565b600073ffffffffffffffffffffffffffffffffffffffff82169050919050565b6000620001d282620001a5565b9050919050565b620001e481620001c5565b82525050565b6000602082019050620002016000830184620001d9565b92915050565b61248280620002176000396000f3fe6080604052600436106101395760003560e01c80638da5cb5b116100ab578063bd7da6541161006f578063bd7da65414610584578063c2a672e0146105ad578063d0b2b579146105d6578063d263c61d14610601578063e58352411461063e578063f2fde38b14610669576102ab565b80638da5cb5b146104985780638e09cbd0146104c3578063a4e47b66146104cd578063b81b86301461050a578063b9f7945114610547576102ab565b806348c54b9d116100fd57806348c54b9d1461039c5780635cd2f4d3146103b35780636a2c91b3146103dc5780636a85f2c3146104075780636bda722b14610444578063715018a614610481576102ab565b8063141a8dd8146102b057806326476204146102db578063365b98b2146102f75780634419695114610334578063489aa0331461035f576102ab565b366102ab5760005b600c805490508110156102a957600060015460086000600c858154811061016b5761016a611c08565b5b9060005260206000200160009054906101000a900473ffffffffffffffffffffffffffffffffffffffff1673ffffffffffffffffffffffffffffffffffffffff1673ffffffffffffffffffffffffffffffffffffffff16815260200190815260200160002054346101dc9190611c70565b6101e69190611ce1565b905080600b6000600c858154811061020157610200611c08565b5b9060005260206000200160009054906101000a900473ffffffffffffffffffffffffffffffffffffffff1673ffffffffffffffffffffffffffffffffffffffff1673ffffffffffffffffffffffffffffffffffffffff16815260200190815260200160002060008282546102759190611d12565b92505081905550806003600082825461028e9190611d12565b925050819055505080806102a190611d46565b915050610141565b005b600080fd5b3480156102bc57600080fd5b506102c5610692565b6040516102d29190611dcf565b60405180910390f35b6102f560048036038101906102f09190611e1b565b6106b8565b005b34801561030357600080fd5b5061031e60048036038101906103199190611e74565b610d9c565b60405161032b9190611dcf565b60405180910390f35b34801561034057600080fd5b50610349610ddb565b6040516103569190611eb0565b60405180910390f35b34801561036b57600080fd5b5061038660048036038101906103819190611e1b565b610de1565b6040516103939190611eb0565b60405180910390f35b3480156103a857600080fd5b506103b1610df9565b005b3480156103bf57600080fd5b506103da60048036038101906103d59190611f01565b61101b565b005b3480156103e857600080fd5b506103f16113c0565b6040516103fe9190611eb0565b60405180910390f35b34801561041357600080fd5b5061042e60048036038101906104299190611e1b565b6113cd565b60405161043b9190611f5c565b60405180910390f35b34801561045057600080fd5b5061046b60048036038101906104669190611e1b565b6113ed565b6040516104789190611f5c565b60405180910390f35b34801561048d57600080fd5b5061049661140d565b005b3480156104a457600080fd5b506104ad611421565b6040516104ba9190611dcf565b60405180910390f35b6104cb61144a565b005b3480156104d957600080fd5b506104f460048036038101906104ef9190611f77565b611465565b6040516105019190611eb0565b60405180910390f35b34801561051657600080fd5b50610531600480360381019061052c9190611e1b565b611490565b60405161053e9190611eb0565b60405180910390f35b34801561055357600080fd5b5061056e60048036038101906105699190611e1b565b6114a8565b60405161057b9190611eb0565b60405180910390f35b34801561059057600080fd5b506105ab60048036038101906105a69190611e1b565b6114c0565b005b3480156105b957600080fd5b506105d460048036038101906105cf9190611fb7565b61150c565b005b3480156105e257600080fd5b506105eb61197f565b6040516105f89190611eb0565b60405180910390f35b34801561060d57600080fd5b5061062860048036038101906106239190611ff7565b611985565b6040516106359190611f5c565b60405180910390f35b34801561064a57600080fd5b506106536119a5565b6040516106609190611eb0565b60405180910390f35b34801561067557600080fd5b50610690600480360381019061068b9190611e1b565b6119ab565b005b600460009054906101000a900473ffffffffffffffffffffffffffffffffffffffff1681565b600960003373ffffffffffffffffffffffffffffffffffffffff1673ffffffffffffffffffffffffffffffffffffffff16815260200190815260200160002060009054906101000a900460ff16610744576040517f08c379a000000000000000000000000000000000000000000000000000000000815260040161073b90612081565b60405180910390fd5b60003490506000811161078c576040517f08c379a000000000000000000000000000000000000000000000000000000000815260040161078390612113565b60405180910390fd5b600d60008373ffffffffffffffffffffffffffffffffffffffff1673ffffffffffffffffffffffffffffffffffffffff16815260200190815260200160002060009054906101000a900460ff1661089957600c829080600181540180825580915050600190039060005260206000200160009091909190916101000a81548173ffffffffffffffffffffffffffffffffffffffff021916908373ffffffffffffffffffffffffffffffffffffffff1602179055506001600d60008473ffffffffffffffffffffffffffffffffffffffff1673ffffffffffffffffffffffffffffffffffffffff16815260200190815260200160002060006101000a81548160ff0219169083151502179055505b600560008373ffffffffffffffffffffffffffffffffffffffff1673ffffffffffffffffffffffffffffffffffffffff16815260200190815260200160002060010160003373ffffffffffffffffffffffffffffffffffffffff1673ffffffffffffffffffffffffffffffffffffffff16815260200190815260200160002060009054906101000a900460ff16610a6657600560008373ffffffffffffffffffffffffffffffffffffffff1673ffffffffffffffffffffffffffffffffffffffff168152602001908152602001600020600001339080600181540180825580915050600190039060005260206000200160009091909190916101000a81548173ffffffffffffffffffffffffffffffffffffffff021916908373ffffffffffffffffffffffffffffffffffffffff1602179055506001600560008473ffffffffffffffffffffffffffffffffffffffff1673ffffffffffffffffffffffffffffffffffffffff16815260200190815260200160002060010160003373ffffffffffffffffffffffffffffffffffffffff1673ffffffffffffffffffffffffffffffffffffffff16815260200190815260200160002060006101000a81548160ff0219169083151502179055505b6000610af0600660003373ffffffffffffffffffffffffffffffffffffffff1673ffffffffffffffffffffffffffffffffffffffff16815260200190815260200160002060008573ffffffffffffffffffffffffffffffffffffffff1673ffffffffffffffffffffffffffffffffffffffff16815260200190815260200160002060000154611a31565b905081600660003373ffffffffffffffffffffffffffffffffffffffff1673ffffffffffffffffffffffffffffffffffffffff16815260200190815260200160002060008573ffffffffffffffffffffffffffffffffffffffff1673ffffffffffffffffffffffffffffffffffffffff1681526020019081526020016000206000016000828254610b819190611d12565b9250508190555081600760003373ffffffffffffffffffffffffffffffffffffffff1673ffffffffffffffffffffffffffffffffffffffff1681526020019081526020016000206000828254610bd79190611d12565b925050819055506000610c68600660003373ffffffffffffffffffffffffffffffffffffffff1673ffffffffffffffffffffffffffffffffffffffff16815260200190815260200160002060008673ffffffffffffffffffffffffffffffffffffffff1673ffffffffffffffffffffffffffffffffffffffff16815260200190815260200160002060000154611a31565b90508082600860008773ffffffffffffffffffffffffffffffffffffffff1673ffffffffffffffffffffffffffffffffffffffff16815260200190815260200160002054610cb69190612133565b610cc09190611d12565b600860008673ffffffffffffffffffffffffffffffffffffffff1673ffffffffffffffffffffffffffffffffffffffff168152602001908152602001600020819055508181600154610d129190611d12565b610d1c9190612133565b6001819055508373ffffffffffffffffffffffffffffffffffffffff163373ffffffffffffffffffffffffffffffffffffffff167fad3fa07f4195b47e64892eb944ecbfc253384053c119852bb2bcae484c2fcb69858585610d7e9190612133565b42604051610d8e93929190612167565b60405180910390a350505050565b600c8181548110610dac57600080fd5b906000526020600020016000915054906101000a900473ffffffffffffffffffffffffffffffffffffffff1681565b60035481565b60076020528060005260406000206000915090505481565b6000600b60003373ffffffffffffffffffffffffffffffffffffffff1673ffffffffffffffffffffffffffffffffffffffff1681526020019081526020016000205411610e7b576040517f08c379a0000000000000000000000000000000000000000000000000000000008152600401610e72906121ea565b60405180910390fd5b6000600b60003373ffffffffffffffffffffffffffffffffffffffff1673ffffffffffffffffffffffffffffffffffffffff1681526020019081526020016000205490506000600b60003373ffffffffffffffffffffffffffffffffffffffff1673ffffffffffffffffffffffffffffffffffffffff1681526020019081526020016000208190555060003373ffffffffffffffffffffffffffffffffffffffff1682604051610f2a9061223b565b60006040518083038185875af1925050503d8060008114610f67576040519150601f19603f3d011682016040523d82523d6000602084013e610f6c565b606091505b505090508160036000828254610f829190612133565b9250508190555080610fc9576040517f08c379a0000000000000000000000000000000000000000000000000000000008152600401610fc09061229c565b60405180910390fd5b3373ffffffffffffffffffffffffffffffffffffffff167f896e034966eaaf1adc54acc0f257056febbd300c9e47182cf761982cf1f5e4308360405161100f9190611eb0565b60405180910390a25050565b600460009054906101000a900473ffffffffffffffffffffffffffffffffffffffff1673ffffffffffffffffffffffffffffffffffffffff163373ffffffffffffffffffffffffffffffffffffffff16146110ab576040517f08c379a00000000000000000000000000000000000000000000000000000000081526004016110a290612081565b60405180910390fd5b60001515600960008473ffffffffffffffffffffffffffffffffffffffff1673ffffffffffffffffffffffffffffffffffffffff16815260200190815260200160002060009054906101000a900460ff1615151461113e576040517f08c379a00000000000000000000000000000000000000000000000000000000081526004016111359061232e565b60405180910390fd5b60001515600a600083815260200190815260200160002060009054906101000a900460ff161515146111a5576040517f08c379a000000000000000000000000000000000000000000000000000000000815260040161119c9061239a565b60405180910390fd5b6001600960008473ffffffffffffffffffffffffffffffffffffffff1673ffffffffffffffffffffffffffffffffffffffff16815260200190815260200160002060006101000a81548160ff0219169083151502179055506001600a600083815260200190815260200160002060006101000a81548160ff021916908315150217905550600c339080600181540180825580915050600190039060005260206000200160009091909190916101000a81548173ffffffffffffffffffffffffffffffffffffffff021916908373ffffffffffffffffffffffffffffffffffffffff1602179055506001600d60003373ffffffffffffffffffffffffffffffffffffffff1673ffffffffffffffffffffffffffffffffffffffff16815260200190815260200160002060006101000a81548160ff02191690831515021790555060003373ffffffffffffffffffffffffffffffffffffffff166801a055690d9db800006040516113139061223b565b60006040518083038185875af1925050503d8060008114611350576040519150601f19603f3d011682016040523d82523d6000602084013e611355565b606091505b505090506801a055690d9db80000600260008282546113749190612133565b92505081905550806113bb576040517f08c379a00000000000000000000000000000000000000000000000000000000081526004016113b29061229c565b60405180910390fd5b505050565b6801a055690d9db8000081565b60096020528060005260406000206000915054906101000a900460ff1681565b600d6020528060005260406000206000915054906101000a900460ff1681565b611415611ab5565b61141f6000611b3c565b565b60008060009054906101000a900473ffffffffffffffffffffffffffffffffffffffff16905090565b346002600082825461145c9190611d12565b92505081905550565b6006602052816000526040600020602052806000526040600020600091509150508060000154905081565b600b6020528060005260406000206000915090505481565b60086020528060005260406000206000915090505481565b6114c8611ab5565b80600460006101000a81548173ffffffffffffffffffffffffffffffffffffffff021916908373ffffffffffffffffffffffffffffffffffffffff16021790555050565b6000811161154f576040517f08c379a000000000000000000000000000000000000000000000000000000000815260040161154690612113565b60405180910390fd5b6000600660003373ffffffffffffffffffffffffffffffffffffffff1673ffffffffffffffffffffffffffffffffffffffff16815260200190815260200160002060008473ffffffffffffffffffffffffffffffffffffffff1673ffffffffffffffffffffffffffffffffffffffff16815260200190815260200160002090508181600001541015611616576040517f08c379a000000000000000000000000000000000000000000000000000000000815260040161160d9061242c565b60405180910390fd5b60006116a0600660003373ffffffffffffffffffffffffffffffffffffffff1673ffffffffffffffffffffffffffffffffffffffff16815260200190815260200160002060008673ffffffffffffffffffffffffffffffffffffffff1673ffffffffffffffffffffffffffffffffffffffff16815260200190815260200160002060000154611a31565b9050828260000160008282546116b69190612133565b9250508190555082600760003373ffffffffffffffffffffffffffffffffffffffff1673ffffffffffffffffffffffffffffffffffffffff168152602001908152602001600020600082825461170c9190612133565b92505081905550600061179d600660003373ffffffffffffffffffffffffffffffffffffffff1673ffffffffffffffffffffffffffffffffffffffff16815260200190815260200160002060008773ffffffffffffffffffffffffffffffffffffffff1673ffffffffffffffffffffffffffffffffffffffff16815260200190815260200160002060000154611a31565b90508181600860008873ffffffffffffffffffffffffffffffffffffffff1673ffffffffffffffffffffffffffffffffffffffff168152602001908152602001600020546117eb9190611d12565b6117f59190612133565b600860008773ffffffffffffffffffffffffffffffffffffffff1673ffffffffffffffffffffffffffffffffffffffff1681526020019081526020016000208190555081816001546118479190611d12565b6118519190612133565b60018190555060003373ffffffffffffffffffffffffffffffffffffffff168560405161187d9061223b565b60006040518083038185875af1925050503d80600081146118ba576040519150601f19603f3d011682016040523d82523d6000602084013e6118bf565b606091505b5050905080611903576040517f08c379a00000000000000000000000000000000000000000000000000000000081526004016118fa9061229c565b60405180910390fd5b8573ffffffffffffffffffffffffffffffffffffffff163373ffffffffffffffffffffffffffffffffffffffff167f9ad65b6c7ddab48c57c60229304ab9d8a7726f680d2319c0704c705eb3f8c63587858761195f9190612133565b4260405161196f93929190612167565b60405180910390a3505050505050565b60025481565b600a6020528060005260406000206000915054906101000a900460ff1681565b60015481565b6119b3611ab5565b600073ffffffffffffffffffffffffffffffffffffffff168173ffffffffffffffffffffffffffffffffffffffff1603611a255760006040517f1e4fbdf7000000000000000000000000000000000000000000000000000000008152600401611a1c9190611dcf565b60405180910390fd5b611a2e81611b3c565b50565b6000808203611a435760009050611ab0565b60006002600184611a549190611d12565b611a5e9190611ce1565b905060008390505b80821015611a9b578190506002828386611a809190611ce1565b611a8a9190611d12565b611a949190611ce1565b9150611a66565b633b9aca0081611aab9190611ce1565b925050505b919050565b611abd611c00565b73ffffffffffffffffffffffffffffffffffffffff16611adb611421565b73ffffffffffffffffffffffffffffffffffffffff1614611b3a57611afe611c00565b6040517f118cdaa7000000000000000000000000000000000000000000000000000000008152600401611b319190611dcf565b60405180910390fd5b565b60008060009054906101000a900473ffffffffffffffffffffffffffffffffffffffff169050816000806101000a81548173ffffffffffffffffffffffffffffffffffffffff021916908373ffffffffffffffffffffffffffffffffffffffff1602179055508173ffffffffffffffffffffffffffffffffffffffff168173ffffffffffffffffffffffffffffffffffffffff167f8be0079c531659141344cd1fd0a4f28419497f9722a3daafe3b4186f6b6457e060405160405180910390a35050565b600033905090565b7f4e487b7100000000000000000000000000000000000000000000000000000000600052603260045260246000fd5b6000819050919050565b7f4e487b7100000000000000000000000000000000000000000000000000000000600052601160045260246000fd5b6000611c7b82611c37565b9150611c8683611c37565b9250828202611c9481611c37565b91508282048414831517611cab57611caa611c41565b5b5092915050565b7f4e487b7100000000000000000000000000000000000000000000000000000000600052601260045260246000fd5b6000611cec82611c37565b9150611cf783611c37565b925082611d0757611d06611cb2565b5b828204905092915050565b6000611d1d82611c37565b9150611d2883611c37565b9250828201905080821115611d4057611d3f611c41565b5b92915050565b6000611d5182611c37565b91507fffffffffffffffffffffffffffffffffffffffffffffffffffffffffffffffff8203611d8357611d82611c41565b5b600182019050919050565b600073ffffffffffffffffffffffffffffffffffffffff82169050919050565b6000611db982611d8e565b9050919050565b611dc981611dae565b82525050565b6000602082019050611de46000830184611dc0565b92915050565b600080fd5b611df881611dae565b8114611e0357600080fd5b50565b600081359050611e1581611def565b92915050565b600060208284031215611e3157611e30611dea565b5b6000611e3f84828501611e06565b91505092915050565b611e5181611c37565b8114611e5c57600080fd5b50565b600081359050611e6e81611e48565b92915050565b600060208284031215611e8a57611e89611dea565b5b6000611e9884828501611e5f565b91505092915050565b611eaa81611c37565b82525050565b6000602082019050611ec56000830184611ea1565b92915050565b6000819050919050565b611ede81611ecb565b8114611ee957600080fd5b50565b600081359050611efb81611ed5565b92915050565b60008060408385031215611f1857611f17611dea565b5b6000611f2685828601611e06565b9250506020611f3785828601611eec565b9150509250929050565b60008115159050919050565b611f5681611f41565b82525050565b6000602082019050611f716000830184611f4d565b92915050565b60008060408385031215611f8e57611f8d611dea565b5b6000611f9c85828601611e06565b9250506020611fad85828601611e06565b9150509250929050565b60008060408385031215611fce57611fcd611dea565b5b6000611fdc85828601611e06565b9250506020611fed85828601611e5f565b9150509250929050565b60006020828403121561200d5761200c611dea565b5b600061201b84828501611eec565b91505092915050565b600082825260208201905092915050565b7f547275737444726f70733a3a4e6f7420617574686f7269736564000000000000600082015250565b600061206b601a83612024565b915061207682612035565b602082019050919050565b6000602082019050818103600083015261209a8161205e565b9050919050565b7f547275737444726f70733a3a416d6f756e74206d75737420626520706f73697460008201527f6976650000000000000000000000000000000000000000000000000000000000602082015250565b60006120fd602383612024565b9150612108826120a1565b604082019050919050565b6000602082019050818103600083015261212c816120f0565b9050919050565b600061213e82611c37565b915061214983611c37565b925082820390508181111561216157612160611c41565b5b92915050565b600060608201905061217c6000830186611ea1565b6121896020830185611ea1565b6121966040830184611ea1565b949350505050565b7f547275737444726f70733a3a4e6f2072657761726420616c6c6f636174696f6e600082015250565b60006121d4602083612024565b91506121df8261219e565b602082019050919050565b60006020820190508181036000830152612203816121c7565b9050919050565b600081905092915050565b50565b600061222560008361220a565b915061223082612215565b600082019050919050565b600061224682612218565b9150819050919050565b7f547275737444726f70733a3a4661696c656420746f2073656e64204574686572600082015250565b6000612286602083612024565b915061229182612250565b602082019050919050565b600060208201905081810360008301526122b581612279565b9050919050565b7f547275737444726f70733a3a4164647265737320616c7265616479206170707260008201527f6f76656400000000000000000000000000000000000000000000000000000000602082015250565b6000612318602483612024565b9150612323826122bc565b604082019050919050565b600060208201905081810360008301526123478161230b565b9050919050565b7f547275737444726f70733a3a496420616c726561647920617070726f76656400600082015250565b6000612384601f83612024565b915061238f8261234e565b602082019050919050565b600060208201905081810360008301526123b381612377565b9050919050565b7f547275737444726f70733a3a496e73756666696369656e74207374616b65642060008201527f616d6f756e740000000000000000000000000000000000000000000000000000602082015250565b6000612416602683612024565b9150612421826123ba565b604082019050919050565b6000602082019050818103600083015261244581612409565b905091905056fea26469706673582212206a9c25167da7b37f1176926589894ba7f28f974f9f882c13f4357dc6d0d40aca64736f6c63430008140033",
  "linkReferences": {},
  "deployedLinkReferences": {}
}