{
  "_format": "hh-sol-artifact-1",
  "contractName": "TrustDrops",
  "sourceName": "contracts/TrustDrops.sol",
  "abi": [
    {
      "inputs": [],
      "stateMutability": "nonpayable",
      "type": "constructor"
    },
    {
      "inputs": [
        {
          "internalType": "address",
          "name": "owner",
          "type": "address"
        }
      ],
      "name": "OwnableInvalidOwner",
      "type": "error"
    },
    {
      "inputs": [
        {
          "internalType": "address",
          "name": "account",
          "type": "address"
        }
      ],
      "name": "OwnableUnauthorizedAccount",
      "type": "error"
    },
    {
      "anonymous": false,
      "inputs": [
        {
          "indexed": true,
          "internalType": "address",
          "name": "previousOwner",
          "type": "address"
        },
        {
          "indexed": true,
          "internalType": "address",
          "name": "newOwner",
          "type": "address"
        }
      ],
      "name": "OwnershipTransferred",
      "type": "event"
    },
    {
      "anonymous": false,
      "inputs": [
        {
          "indexed": true,
          "internalType": "address",
          "name": "staker",
          "type": "address"
        },
        {
          "indexed": true,
          "internalType": "address",
          "name": "candidate",
          "type": "address"
        },
        {
          "indexed": false,
          "internalType": "uint256",
          "name": "amount",
          "type": "uint256"
        },
        {
          "indexed": false,
          "internalType": "uint256",
          "name": "cred",
          "type": "uint256"
        },
        {
          "indexed": false,
          "internalType": "uint256",
          "name": "timestamp",
          "type": "uint256"
        }
      ],
      "name": "Staked",
      "type": "event"
    },
    {
      "anonymous": false,
      "inputs": [
        {
          "indexed": true,
          "internalType": "address",
          "name": "candidate",
          "type": "address"
        },
        {
          "indexed": false,
          "internalType": "uint256",
          "name": "amount",
          "type": "uint256"
        }
      ],
      "name": "TokensClaimed",
      "type": "event"
    },
    {
      "anonymous": false,
      "inputs": [
        {
          "indexed": true,
          "internalType": "address",
          "name": "staker",
          "type": "address"
        },
        {
          "indexed": true,
          "internalType": "address",
          "name": "candidate",
          "type": "address"
        },
        {
          "indexed": false,
          "internalType": "uint256",
          "name": "amount",
          "type": "uint256"
        },
        {
          "indexed": false,
          "internalType": "uint256",
          "name": "cred",
          "type": "uint256"
        },
        {
          "indexed": false,
          "internalType": "uint256",
          "name": "timestamp",
          "type": "uint256"
        }
      ],
      "name": "Unstaked",
      "type": "event"
    },
    {
      "inputs": [
        {
          "internalType": "address",
          "name": "",
          "type": "address"
        }
      ],
      "name": "allocation",
      "outputs": [
        {
          "internalType": "uint256",
          "name": "",
          "type": "uint256"
        }
      ],
      "stateMutability": "view",
      "type": "function"
    },
    {
      "inputs": [],
      "name": "approvalAirdropAmount",
      "outputs": [
        {
          "internalType": "uint256",
          "name": "",
          "type": "uint256"
        }
      ],
      "stateMutability": "view",
      "type": "function"
    },
    {
      "inputs": [
        {
          "internalType": "address",
          "name": "_user",
          "type": "address"
        },
        {
          "internalType": "bytes32",
          "name": "_id",
          "type": "bytes32"
        }
      ],
      "name": "approve",
      "outputs": [],
      "stateMutability": "nonpayable",
      "type": "function"
    },
    {
      "inputs": [
        {
          "internalType": "address",
          "name": "",
          "type": "address"
        }
      ],
      "name": "approvedAddress",
      "outputs": [
        {
          "internalType": "bool",
          "name": "",
          "type": "bool"
        }
      ],
      "stateMutability": "view",
      "type": "function"
    },
    {
      "inputs": [
        {
          "internalType": "bytes32",
          "name": "",
          "type": "bytes32"
        }
      ],
      "name": "approvedId",
      "outputs": [
        {
          "internalType": "bool",
          "name": "",
          "type": "bool"
        }
      ],
      "stateMutability": "view",
      "type": "function"
    },
    {
      "inputs": [],
      "name": "approver",
      "outputs": [
        {
          "internalType": "address",
          "name": "",
          "type": "address"
        }
      ],
      "stateMutability": "view",
      "type": "function"
    },
    {
      "inputs": [],
      "name": "claimTokens",
      "outputs": [],
      "stateMutability": "nonpayable",
      "type": "function"
    },
    {
      "inputs": [],
      "name": "depositSeedFunds",
      "outputs": [],
      "stateMutability": "payable",
      "type": "function"
    },
    {
      "inputs": [],
      "name": "owner",
      "outputs": [
        {
          "internalType": "address",
          "name": "",
          "type": "address"
        }
      ],
      "stateMutability": "view",
      "type": "function"
    },
    {
      "inputs": [],
      "name": "renounceOwnership",
      "outputs": [],
      "stateMutability": "nonpayable",
      "type": "function"
    },
    {
      "inputs": [
        {
          "internalType": "address",
          "name": "",
          "type": "address"
        }
      ],
      "name": "reputation",
      "outputs": [
        {
          "internalType": "uint256",
          "name": "",
          "type": "uint256"
        }
      ],
      "stateMutability": "view",
      "type": "function"
    },
    {
      "inputs": [],
      "name": "seedFund",
      "outputs": [
        {
          "internalType": "uint256",
          "name": "",
          "type": "uint256"
        }
      ],
      "stateMutability": "view",
      "type": "function"
    },
    {
      "inputs": [
        {
          "internalType": "address",
          "name": "candidate",
          "type": "address"
        }
      ],
      "name": "stake",
      "outputs": [],
      "stateMutability": "payable",
      "type": "function"
    },
    {
      "inputs": [
        {
          "internalType": "address",
          "name": "",
          "type": "address"
        },
        {
          "internalType": "address",
          "name": "",
          "type": "address"
        }
      ],
      "name": "stakes",
      "outputs": [
        {
          "internalType": "uint256",
          "name": "amount",
          "type": "uint256"
        }
      ],
      "stateMutability": "view",
      "type": "function"
    },
    {
      "inputs": [],
      "name": "totalAllocationLocked",
      "outputs": [
        {
          "internalType": "uint256",
          "name": "",
          "type": "uint256"
        }
      ],
      "stateMutability": "view",
      "type": "function"
    },
    {
      "inputs": [],
      "name": "totalReputation",
      "outputs": [
        {
          "internalType": "uint256",
          "name": "",
          "type": "uint256"
        }
      ],
      "stateMutability": "view",
      "type": "function"
    },
    {
      "inputs": [
        {
          "internalType": "address",
          "name": "",
          "type": "address"
        }
      ],
      "name": "totalStakedByUser",
      "outputs": [
        {
          "internalType": "uint256",
          "name": "",
          "type": "uint256"
        }
      ],
      "stateMutability": "view",
      "type": "function"
    },
    {
      "inputs": [
        {
          "internalType": "address",
          "name": "newOwner",
          "type": "address"
        }
      ],
      "name": "transferOwnership",
      "outputs": [],
      "stateMutability": "nonpayable",
      "type": "function"
    },
    {
      "inputs": [
        {
          "internalType": "address",
          "name": "candidate",
          "type": "address"
        },
        {
          "internalType": "uint256",
          "name": "amount",
          "type": "uint256"
        }
      ],
      "name": "unstake",
      "outputs": [],
      "stateMutability": "nonpayable",
      "type": "function"
    },
    {
      "inputs": [
        {
          "internalType": "uint256",
          "name": "_updatedAmount",
          "type": "uint256"
        }
      ],
      "name": "updateAirdropAmount",
      "outputs": [],
      "stateMutability": "nonpayable",
      "type": "function"
    },
    {
      "inputs": [
        {
          "internalType": "address",
          "name": "_newApprover",
          "type": "address"
        }
      ],
      "name": "updateApprover",
      "outputs": [],
      "stateMutability": "nonpayable",
      "type": "function"
    },
    {
      "inputs": [
        {
          "internalType": "address",
          "name": "",
          "type": "address"
        }
      ],
      "name": "userAdded",
      "outputs": [
        {
          "internalType": "bool",
          "name": "",
          "type": "bool"
        }
      ],
      "stateMutability": "view",
      "type": "function"
    },
    {
      "inputs": [
        {
          "internalType": "uint256",
          "name": "",
          "type": "uint256"
        }
      ],
      "name": "users",
      "outputs": [
        {
          "internalType": "address",
          "name": "",
          "type": "address"
        }
      ],
      "stateMutability": "view",
      "type": "function"
    },
    {
      "stateMutability": "payable",
      "type": "receive"
    }
  ],
  "bytecode": "0x60806040526801a055690d9db800006004553480156200001e57600080fd5b5033600073ffffffffffffffffffffffffffffffffffffffff168173ffffffffffffffffffffffffffffffffffffffff1603620000955760006040517f1e4fbdf70000000000000000000000000000000000000000000000000000000081526004016200008c9190620001f7565b60405180910390fd5b620000a681620000ee60201b60201c565b5033600560006101000a81548173ffffffffffffffffffffffffffffffffffffffff021916908373ffffffffffffffffffffffffffffffffffffffff16021790555062000214565b60008060009054906101000a900473ffffffffffffffffffffffffffffffffffffffff169050816000806101000a81548173ffffffffffffffffffffffffffffffffffffffff021916908373ffffffffffffffffffffffffffffffffffffffff1602179055508173ffffffffffffffffffffffffffffffffffffffff168173ffffffffffffffffffffffffffffffffffffffff167f8be0079c531659141344cd1fd0a4f28419497f9722a3daafe3b4186f6b6457e060405160405180910390a35050565b600073ffffffffffffffffffffffffffffffffffffffff82169050919050565b6000620001df82620001b2565b9050919050565b620001f181620001d2565b82525050565b60006020820190506200020e6000830184620001e6565b92915050565b61248a80620002246000396000f3fe6080604052600436106101445760003560e01c8063715018a6116100b6578063bd7da6541161006f578063bd7da654146105b8578063c2a672e0146105e1578063d0b2b5791461060a578063d263c61d14610635578063e583524114610672578063f2fde38b1461069d576102b6565b8063715018a6146104b55780638da5cb5b146104cc5780638e09cbd0146104f7578063a4e47b6614610501578063b81b86301461053e578063b9f794511461057b576102b6565b806347b3ac6e1161010857806347b3ac6e14610393578063489aa033146103be57806348c54b9d146103fb5780635cd2f4d3146104125780636a85f2c31461043b5780636bda722b14610478576102b6565b8063141a8dd8146102bb578063202dc181146102e6578063264762041461030f578063365b98b21461032b5780634419695114610368576102b6565b366102b65760005b600d805490508110156102b457600060015460096000600d858154811061017657610175611b7e565b5b9060005260206000200160009054906101000a900473ffffffffffffffffffffffffffffffffffffffff1673ffffffffffffffffffffffffffffffffffffffff1673ffffffffffffffffffffffffffffffffffffffff16815260200190815260200160002054346101e79190611be6565b6101f19190611c57565b905080600c6000600d858154811061020c5761020b611b7e565b5b9060005260206000200160009054906101000a900473ffffffffffffffffffffffffffffffffffffffff1673ffffffffffffffffffffffffffffffffffffffff1673ffffffffffffffffffffffffffffffffffffffff16815260200190815260200160002060008282546102809190611c88565b9250508190555080600360008282546102999190611c88565b925050819055505080806102ac90611cbc565b91505061014c565b005b600080fd5b3480156102c757600080fd5b506102d06106c6565b6040516102dd9190611d45565b60405180910390f35b3480156102f257600080fd5b5061030d60048036038101906103089190611d91565b6106ec565b005b61032960048036038101906103249190611dea565b6106fe565b005b34801561033757600080fd5b50610352600480360381019061034d9190611d91565b610de2565b60405161035f9190611d45565b60405180910390f35b34801561037457600080fd5b5061037d610e21565b60405161038a9190611e26565b60405180910390f35b34801561039f57600080fd5b506103a8610e27565b6040516103b59190611e26565b60405180910390f35b3480156103ca57600080fd5b506103e560048036038101906103e09190611dea565b610e2d565b6040516103f29190611e26565b60405180910390f35b34801561040757600080fd5b50610410610e45565b005b34801561041e57600080fd5b5061043960048036038101906104349190611e77565b611067565b005b34801561044757600080fd5b50610462600480360381019061045d9190611dea565b611343565b60405161046f9190611ed2565b60405180910390f35b34801561048457600080fd5b5061049f600480360381019061049a9190611dea565b611363565b6040516104ac9190611ed2565b60405180910390f35b3480156104c157600080fd5b506104ca611383565b005b3480156104d857600080fd5b506104e1611397565b6040516104ee9190611d45565b60405180910390f35b6104ff6113c0565b005b34801561050d57600080fd5b5061052860048036038101906105239190611eed565b6113db565b6040516105359190611e26565b60405180910390f35b34801561054a57600080fd5b5061056560048036038101906105609190611dea565b611406565b6040516105729190611e26565b60405180910390f35b34801561058757600080fd5b506105a2600480360381019061059d9190611dea565b61141e565b6040516105af9190611e26565b60405180910390f35b3480156105c457600080fd5b506105df60048036038101906105da9190611dea565b611436565b005b3480156105ed57600080fd5b5061060860048036038101906106039190611f2d565b611482565b005b34801561061657600080fd5b5061061f6118f5565b60405161062c9190611e26565b60405180910390f35b34801561064157600080fd5b5061065c60048036038101906106579190611f6d565b6118fb565b6040516106699190611ed2565b60405180910390f35b34801561067e57600080fd5b5061068761191b565b6040516106949190611e26565b60405180910390f35b3480156106a957600080fd5b506106c460048036038101906106bf9190611dea565b611921565b005b600560009054906101000a900473ffffffffffffffffffffffffffffffffffffffff1681565b6106f46119a7565b8060048190555050565b600a60003373ffffffffffffffffffffffffffffffffffffffff1673ffffffffffffffffffffffffffffffffffffffff16815260200190815260200160002060009054906101000a900460ff1661078a576040517f08c379a00000000000000000000000000000000000000000000000000000000081526004016107819061201d565b60405180910390fd5b6000349050600081116107d2576040517f08c379a00000000000000000000000000000000000000000000000000000000081526004016107c9906120af565b60405180910390fd5b600e60008373ffffffffffffffffffffffffffffffffffffffff1673ffffffffffffffffffffffffffffffffffffffff16815260200190815260200160002060009054906101000a900460ff166108df57600d829080600181540180825580915050600190039060005260206000200160009091909190916101000a81548173ffffffffffffffffffffffffffffffffffffffff021916908373ffffffffffffffffffffffffffffffffffffffff1602179055506001600e60008473ffffffffffffffffffffffffffffffffffffffff1673ffffffffffffffffffffffffffffffffffffffff16815260200190815260200160002060006101000a81548160ff0219169083151502179055505b600660008373ffffffffffffffffffffffffffffffffffffffff1673ffffffffffffffffffffffffffffffffffffffff16815260200190815260200160002060010160003373ffffffffffffffffffffffffffffffffffffffff1673ffffffffffffffffffffffffffffffffffffffff16815260200190815260200160002060009054906101000a900460ff16610aac57600660008373ffffffffffffffffffffffffffffffffffffffff1673ffffffffffffffffffffffffffffffffffffffff168152602001908152602001600020600001339080600181540180825580915050600190039060005260206000200160009091909190916101000a81548173ffffffffffffffffffffffffffffffffffffffff021916908373ffffffffffffffffffffffffffffffffffffffff1602179055506001600660008473ffffffffffffffffffffffffffffffffffffffff1673ffffffffffffffffffffffffffffffffffffffff16815260200190815260200160002060010160003373ffffffffffffffffffffffffffffffffffffffff1673ffffffffffffffffffffffffffffffffffffffff16815260200190815260200160002060006101000a81548160ff0219169083151502179055505b6000610b36600760003373ffffffffffffffffffffffffffffffffffffffff1673ffffffffffffffffffffffffffffffffffffffff16815260200190815260200160002060008573ffffffffffffffffffffffffffffffffffffffff1673ffffffffffffffffffffffffffffffffffffffff16815260200190815260200160002060000154611a2e565b905081600760003373ffffffffffffffffffffffffffffffffffffffff1673ffffffffffffffffffffffffffffffffffffffff16815260200190815260200160002060008573ffffffffffffffffffffffffffffffffffffffff1673ffffffffffffffffffffffffffffffffffffffff1681526020019081526020016000206000016000828254610bc79190611c88565b9250508190555081600860003373ffffffffffffffffffffffffffffffffffffffff1673ffffffffffffffffffffffffffffffffffffffff1681526020019081526020016000206000828254610c1d9190611c88565b925050819055506000610cae600760003373ffffffffffffffffffffffffffffffffffffffff1673ffffffffffffffffffffffffffffffffffffffff16815260200190815260200160002060008673ffffffffffffffffffffffffffffffffffffffff1673ffffffffffffffffffffffffffffffffffffffff16815260200190815260200160002060000154611a2e565b90508082600960008773ffffffffffffffffffffffffffffffffffffffff1673ffffffffffffffffffffffffffffffffffffffff16815260200190815260200160002054610cfc91906120cf565b610d069190611c88565b600960008673ffffffffffffffffffffffffffffffffffffffff1673ffffffffffffffffffffffffffffffffffffffff168152602001908152602001600020819055508181600154610d589190611c88565b610d6291906120cf565b6001819055508373ffffffffffffffffffffffffffffffffffffffff163373ffffffffffffffffffffffffffffffffffffffff167fad3fa07f4195b47e64892eb944ecbfc253384053c119852bb2bcae484c2fcb69858585610dc491906120cf565b42604051610dd493929190612103565b60405180910390a350505050565b600d8181548110610df257600080fd5b906000526020600020016000915054906101000a900473ffffffffffffffffffffffffffffffffffffffff1681565b60035481565b60045481565b60086020528060005260406000206000915090505481565b6000600c60003373ffffffffffffffffffffffffffffffffffffffff1673ffffffffffffffffffffffffffffffffffffffff1681526020019081526020016000205411610ec7576040517f08c379a0000000000000000000000000000000000000000000000000000000008152600401610ebe90612186565b60405180910390fd5b6000600c60003373ffffffffffffffffffffffffffffffffffffffff1673ffffffffffffffffffffffffffffffffffffffff1681526020019081526020016000205490506000600c60003373ffffffffffffffffffffffffffffffffffffffff1673ffffffffffffffffffffffffffffffffffffffff1681526020019081526020016000208190555060003373ffffffffffffffffffffffffffffffffffffffff1682604051610f76906121d7565b60006040518083038185875af1925050503d8060008114610fb3576040519150601f19603f3d011682016040523d82523d6000602084013e610fb8565b606091505b505090508160036000828254610fce91906120cf565b9250508190555080611015576040517f08c379a000000000000000000000000000000000000000000000000000000000815260040161100c90612238565b60405180910390fd5b3373ffffffffffffffffffffffffffffffffffffffff167f896e034966eaaf1adc54acc0f257056febbd300c9e47182cf761982cf1f5e4308360405161105b9190611e26565b60405180910390a25050565b600560009054906101000a900473ffffffffffffffffffffffffffffffffffffffff1673ffffffffffffffffffffffffffffffffffffffff163373ffffffffffffffffffffffffffffffffffffffff16146110f7576040517f08c379a00000000000000000000000000000000000000000000000000000000081526004016110ee906122a4565b60405180910390fd5b60001515600a60008473ffffffffffffffffffffffffffffffffffffffff1673ffffffffffffffffffffffffffffffffffffffff16815260200190815260200160002060009054906101000a900460ff1615151461118a576040517f08c379a000000000000000000000000000000000000000000000000000000000815260040161118190612336565b60405180910390fd5b60001515600b600083815260200190815260200160002060009054906101000a900460ff161515146111f1576040517f08c379a00000000000000000000000000000000000000000000000000000000081526004016111e8906123a2565b60405180910390fd5b6001600a60008473ffffffffffffffffffffffffffffffffffffffff1673ffffffffffffffffffffffffffffffffffffffff16815260200190815260200160002060006101000a81548160ff0219169083151502179055506001600b600083815260200190815260200160002060006101000a81548160ff02191690831515021790555060008273ffffffffffffffffffffffffffffffffffffffff1660045460405161129d906121d7565b60006040518083038185875af1925050503d80600081146112da576040519150601f19603f3d011682016040523d82523d6000602084013e6112df565b606091505b50509050600454600260008282546112f791906120cf565b925050819055508061133e576040517f08c379a000000000000000000000000000000000000000000000000000000000815260040161133590612238565b60405180910390fd5b505050565b600a6020528060005260406000206000915054906101000a900460ff1681565b600e6020528060005260406000206000915054906101000a900460ff1681565b61138b6119a7565b6113956000611ab2565b565b60008060009054906101000a900473ffffffffffffffffffffffffffffffffffffffff16905090565b34600260008282546113d29190611c88565b92505081905550565b6007602052816000526040600020602052806000526040600020600091509150508060000154905081565b600c6020528060005260406000206000915090505481565b60096020528060005260406000206000915090505481565b61143e6119a7565b80600560006101000a81548173ffffffffffffffffffffffffffffffffffffffff021916908373ffffffffffffffffffffffffffffffffffffffff16021790555050565b600081116114c5576040517f08c379a00000000000000000000000000000000000000000000000000000000081526004016114bc906120af565b60405180910390fd5b6000600760003373ffffffffffffffffffffffffffffffffffffffff1673ffffffffffffffffffffffffffffffffffffffff16815260200190815260200160002060008473ffffffffffffffffffffffffffffffffffffffff1673ffffffffffffffffffffffffffffffffffffffff1681526020019081526020016000209050818160000154101561158c576040517f08c379a000000000000000000000000000000000000000000000000000000000815260040161158390612434565b60405180910390fd5b6000611616600760003373ffffffffffffffffffffffffffffffffffffffff1673ffffffffffffffffffffffffffffffffffffffff16815260200190815260200160002060008673ffffffffffffffffffffffffffffffffffffffff1673ffffffffffffffffffffffffffffffffffffffff16815260200190815260200160002060000154611a2e565b90508282600001600082825461162c91906120cf565b9250508190555082600860003373ffffffffffffffffffffffffffffffffffffffff1673ffffffffffffffffffffffffffffffffffffffff168152602001908152602001600020600082825461168291906120cf565b925050819055506000611713600760003373ffffffffffffffffffffffffffffffffffffffff1673ffffffffffffffffffffffffffffffffffffffff16815260200190815260200160002060008773ffffffffffffffffffffffffffffffffffffffff1673ffffffffffffffffffffffffffffffffffffffff16815260200190815260200160002060000154611a2e565b90508181600960008873ffffffffffffffffffffffffffffffffffffffff1673ffffffffffffffffffffffffffffffffffffffff168152602001908152602001600020546117619190611c88565b61176b91906120cf565b600960008773ffffffffffffffffffffffffffffffffffffffff1673ffffffffffffffffffffffffffffffffffffffff1681526020019081526020016000208190555081816001546117bd9190611c88565b6117c791906120cf565b60018190555060003373ffffffffffffffffffffffffffffffffffffffff16856040516117f3906121d7565b60006040518083038185875af1925050503d8060008114611830576040519150601f19603f3d011682016040523d82523d6000602084013e611835565b606091505b5050905080611879576040517f08c379a000000000000000000000000000000000000000000000000000000000815260040161187090612238565b60405180910390fd5b8573ffffffffffffffffffffffffffffffffffffffff163373ffffffffffffffffffffffffffffffffffffffff167f9ad65b6c7ddab48c57c60229304ab9d8a7726f680d2319c0704c705eb3f8c6358785876118d591906120cf565b426040516118e593929190612103565b60405180910390a3505050505050565b60025481565b600b6020528060005260406000206000915054906101000a900460ff1681565b60015481565b6119296119a7565b600073ffffffffffffffffffffffffffffffffffffffff168173ffffffffffffffffffffffffffffffffffffffff160361199b5760006040517f1e4fbdf70000000000000000000000000000000000000000000000000000000081526004016119929190611d45565b60405180910390fd5b6119a481611ab2565b50565b6119af611b76565b73ffffffffffffffffffffffffffffffffffffffff166119cd611397565b73ffffffffffffffffffffffffffffffffffffffff1614611a2c576119f0611b76565b6040517f118cdaa7000000000000000000000000000000000000000000000000000000008152600401611a239190611d45565b60405180910390fd5b565b6000808203611a405760009050611aad565b60006002600184611a519190611c88565b611a5b9190611c57565b905060008390505b80821015611a98578190506002828386611a7d9190611c57565b611a879190611c88565b611a919190611c57565b9150611a63565b633b9aca0081611aa89190611c57565b925050505b919050565b60008060009054906101000a900473ffffffffffffffffffffffffffffffffffffffff169050816000806101000a81548173ffffffffffffffffffffffffffffffffffffffff021916908373ffffffffffffffffffffffffffffffffffffffff1602179055508173ffffffffffffffffffffffffffffffffffffffff168173ffffffffffffffffffffffffffffffffffffffff167f8be0079c531659141344cd1fd0a4f28419497f9722a3daafe3b4186f6b6457e060405160405180910390a35050565b600033905090565b7f4e487b7100000000000000000000000000000000000000000000000000000000600052603260045260246000fd5b6000819050919050565b7f4e487b7100000000000000000000000000000000000000000000000000000000600052601160045260246000fd5b6000611bf182611bad565b9150611bfc83611bad565b9250828202611c0a81611bad565b91508282048414831517611c2157611c20611bb7565b5b5092915050565b7f4e487b7100000000000000000000000000000000000000000000000000000000600052601260045260246000fd5b6000611c6282611bad565b9150611c6d83611bad565b925082611c7d57611c7c611c28565b5b828204905092915050565b6000611c9382611bad565b9150611c9e83611bad565b9250828201905080821115611cb657611cb5611bb7565b5b92915050565b6000611cc782611bad565b91507fffffffffffffffffffffffffffffffffffffffffffffffffffffffffffffffff8203611cf957611cf8611bb7565b5b600182019050919050565b600073ffffffffffffffffffffffffffffffffffffffff82169050919050565b6000611d2f82611d04565b9050919050565b611d3f81611d24565b82525050565b6000602082019050611d5a6000830184611d36565b92915050565b600080fd5b611d6e81611bad565b8114611d7957600080fd5b50565b600081359050611d8b81611d65565b92915050565b600060208284031215611da757611da6611d60565b5b6000611db584828501611d7c565b91505092915050565b611dc781611d24565b8114611dd257600080fd5b50565b600081359050611de481611dbe565b92915050565b600060208284031215611e0057611dff611d60565b5b6000611e0e84828501611dd5565b91505092915050565b611e2081611bad565b82525050565b6000602082019050611e3b6000830184611e17565b92915050565b6000819050919050565b611e5481611e41565b8114611e5f57600080fd5b50565b600081359050611e7181611e4b565b92915050565b60008060408385031215611e8e57611e8d611d60565b5b6000611e9c85828601611dd5565b9250506020611ead85828601611e62565b9150509250929050565b60008115159050919050565b611ecc81611eb7565b82525050565b6000602082019050611ee76000830184611ec3565b92915050565b60008060408385031215611f0457611f03611d60565b5b6000611f1285828601611dd5565b9250506020611f2385828601611dd5565b9150509250929050565b60008060408385031215611f4457611f43611d60565b5b6000611f5285828601611dd5565b9250506020611f6385828601611d7c565b9150509250929050565b600060208284031215611f8357611f82611d60565b5b6000611f9184828501611e62565b91505092915050565b600082825260208201905092915050565b7f4c696e6b20796f75722077616c6c65742077697468207477697474657220746f60008201527f207374616b650000000000000000000000000000000000000000000000000000602082015250565b6000612007602683611f9a565b915061201282611fab565b604082019050919050565b6000602082019050818103600083015261203681611ffa565b9050919050565b7f547275737444726f70733a3a416d6f756e74206d75737420626520706f73697460008201527f6976650000000000000000000000000000000000000000000000000000000000602082015250565b6000612099602383611f9a565b91506120a48261203d565b604082019050919050565b600060208201905081810360008301526120c88161208c565b9050919050565b60006120da82611bad565b91506120e583611bad565b92508282039050818111156120fd576120fc611bb7565b5b92915050565b60006060820190506121186000830186611e17565b6121256020830185611e17565b6121326040830184611e17565b949350505050565b7f4e6f2072657761726420616c6c6f636174696f6e000000000000000000000000600082015250565b6000612170601483611f9a565b915061217b8261213a565b602082019050919050565b6000602082019050818103600083015261219f81612163565b9050919050565b600081905092915050565b50565b60006121c16000836121a6565b91506121cc826121b1565b600082019050919050565b60006121e2826121b4565b9150819050919050565b7f547275737444726f70733a3a4661696c656420746f2073656e64204574686572600082015250565b6000612222602083611f9a565b915061222d826121ec565b602082019050919050565b6000602082019050818103600083015261225181612215565b9050919050565b7f547275737444726f70733a3a4e6f7420617574686f7269736564000000000000600082015250565b600061228e601a83611f9a565b915061229982612258565b602082019050919050565b600060208201905081810360008301526122bd81612281565b9050919050565b7f547275737444726f70733a3a4164647265737320616c7265616479206170707260008201527f6f76656400000000000000000000000000000000000000000000000000000000602082015250565b6000612320602483611f9a565b915061232b826122c4565b604082019050919050565b6000602082019050818103600083015261234f81612313565b9050919050565b7f547275737444726f70733a3a496420616c726561647920617070726f76656400600082015250565b600061238c601f83611f9a565b915061239782612356565b602082019050919050565b600060208201905081810360008301526123bb8161237f565b9050919050565b7f547275737444726f70733a3a496e73756666696369656e74207374616b65642060008201527f616d6f756e740000000000000000000000000000000000000000000000000000602082015250565b600061241e602683611f9a565b9150612429826123c2565b604082019050919050565b6000602082019050818103600083015261244d81612411565b905091905056fea264697066735822122064bcc5eeb873f4c9b557fd14a20e95e9036e1e27cf88271d6084f163b27166ae64736f6c63430008140033",
  "linkReferences": {},
  "deployedLinkReferences": {}
}