{
  "_format": "hh-sol-artifact-1",
  "contractName": "TrustDrops",
  "sourceName": "contracts/TrustDrops.sol",
  "abi": [
    {
      "inputs": [
        {
          "internalType": "address",
          "name": "_mandTokenAddress",
          "type": "address"
        },
        {
          "internalType": "address",
          "name": "_anonAadhaarVerifierAddr",
          "type": "address"
        }
      ],
      "stateMutability": "nonpayable",
      "type": "constructor"
    },
    {
      "inputs": [
        {
          "internalType": "address",
          "name": "owner",
          "type": "address"
        }
      ],
      "name": "OwnableInvalidOwner",
      "type": "error"
    },
    {
      "inputs": [
        {
          "internalType": "address",
          "name": "account",
          "type": "address"
        }
      ],
      "name": "OwnableUnauthorizedAccount",
      "type": "error"
    },
    {
      "anonymous": false,
      "inputs": [
        {
          "indexed": true,
          "internalType": "address",
          "name": "previousOwner",
          "type": "address"
        },
        {
          "indexed": true,
          "internalType": "address",
          "name": "newOwner",
          "type": "address"
        }
      ],
      "name": "OwnershipTransferred",
      "type": "event"
    },
    {
      "anonymous": false,
      "inputs": [
        {
          "indexed": true,
          "internalType": "address",
          "name": "staker",
          "type": "address"
        },
        {
          "indexed": true,
          "internalType": "address",
          "name": "candidate",
          "type": "address"
        },
        {
          "indexed": false,
          "internalType": "uint256",
          "name": "amount",
          "type": "uint256"
        }
      ],
      "name": "Staked",
      "type": "event"
    },
    {
      "anonymous": false,
      "inputs": [
        {
          "indexed": true,
          "internalType": "address",
          "name": "candidate",
          "type": "address"
        },
        {
          "indexed": false,
          "internalType": "uint256",
          "name": "amount",
          "type": "uint256"
        }
      ],
      "name": "TokensClaimed",
      "type": "event"
    },
    {
      "anonymous": false,
      "inputs": [
        {
          "indexed": true,
          "internalType": "address",
          "name": "staker",
          "type": "address"
        },
        {
          "indexed": true,
          "internalType": "address",
          "name": "candidate",
          "type": "address"
        },
        {
          "indexed": false,
          "internalType": "uint256",
          "name": "amount",
          "type": "uint256"
        }
      ],
      "name": "Unstaked",
      "type": "event"
    },
    {
      "inputs": [],
      "name": "DISTRIBUTION_DENOMINATOR",
      "outputs": [
        {
          "internalType": "uint256",
          "name": "",
          "type": "uint256"
        }
      ],
      "stateMutability": "view",
      "type": "function"
    },
    {
      "inputs": [],
      "name": "DISTRIBUTION_INTERVAL",
      "outputs": [
        {
          "internalType": "uint256",
          "name": "",
          "type": "uint256"
        }
      ],
      "stateMutability": "view",
      "type": "function"
    },
    {
      "inputs": [],
      "name": "LOGIN_AIRDROP_AMOUNT",
      "outputs": [
        {
          "internalType": "uint256",
          "name": "",
          "type": "uint256"
        }
      ],
      "stateMutability": "view",
      "type": "function"
    },
    {
      "inputs": [],
      "name": "NETWORK_CONSTANT",
      "outputs": [
        {
          "internalType": "uint256",
          "name": "",
          "type": "uint256"
        }
      ],
      "stateMutability": "view",
      "type": "function"
    },
    {
      "inputs": [
        {
          "internalType": "address",
          "name": "",
          "type": "address"
        }
      ],
      "name": "alreadyLoggedIn",
      "outputs": [
        {
          "internalType": "bool",
          "name": "",
          "type": "bool"
        }
      ],
      "stateMutability": "view",
      "type": "function"
    },
    {
      "inputs": [
        {
          "internalType": "uint256",
          "name": "",
          "type": "uint256"
        }
      ],
      "name": "alreadyVerified",
      "outputs": [
        {
          "internalType": "bool",
          "name": "",
          "type": "bool"
        }
      ],
      "stateMutability": "view",
      "type": "function"
    },
    {
      "inputs": [],
      "name": "anonAadhaarVerifierAddr",
      "outputs": [
        {
          "internalType": "address",
          "name": "",
          "type": "address"
        }
      ],
      "stateMutability": "view",
      "type": "function"
    },
    {
      "inputs": [
        {
          "internalType": "address",
          "name": "candidate",
          "type": "address"
        }
      ],
      "name": "calculateIndividualAllocation",
      "outputs": [
        {
          "internalType": "uint256",
          "name": "",
          "type": "uint256"
        }
      ],
      "stateMutability": "view",
      "type": "function"
    },
    {
      "inputs": [],
      "name": "claimTokens",
      "outputs": [],
      "stateMutability": "nonpayable",
      "type": "function"
    },
    {
      "inputs": [
        {
          "internalType": "address",
          "name": "candidate",
          "type": "address"
        }
      ],
      "name": "getCurrentReputation",
      "outputs": [
        {
          "internalType": "uint256",
          "name": "",
          "type": "uint256"
        }
      ],
      "stateMutability": "nonpayable",
      "type": "function"
    },
    {
      "inputs": [
        {
          "internalType": "address",
          "name": "",
          "type": "address"
        }
      ],
      "name": "lastClaimTime",
      "outputs": [
        {
          "internalType": "uint256",
          "name": "",
          "type": "uint256"
        }
      ],
      "stateMutability": "view",
      "type": "function"
    },
    {
      "inputs": [],
      "name": "mandToken",
      "outputs": [
        {
          "internalType": "contract IERC20",
          "name": "",
          "type": "address"
        }
      ],
      "stateMutability": "view",
      "type": "function"
    },
    {
      "inputs": [],
      "name": "owner",
      "outputs": [
        {
          "internalType": "address",
          "name": "",
          "type": "address"
        }
      ],
      "stateMutability": "view",
      "type": "function"
    },
    {
      "inputs": [],
      "name": "renounceOwnership",
      "outputs": [],
      "stateMutability": "nonpayable",
      "type": "function"
    },
    {
      "inputs": [
        {
          "internalType": "address",
          "name": "",
          "type": "address"
        }
      ],
      "name": "reputation",
      "outputs": [
        {
          "internalType": "uint256",
          "name": "",
          "type": "uint256"
        }
      ],
      "stateMutability": "view",
      "type": "function"
    },
    {
      "inputs": [
        {
          "internalType": "address",
          "name": "candidate",
          "type": "address"
        },
        {
          "internalType": "uint256",
          "name": "amount",
          "type": "uint256"
        }
      ],
      "name": "stake",
      "outputs": [],
      "stateMutability": "nonpayable",
      "type": "function"
    },
    {
      "inputs": [
        {
          "internalType": "address",
          "name": "",
          "type": "address"
        },
        {
          "internalType": "address",
          "name": "",
          "type": "address"
        }
      ],
      "name": "stakes",
      "outputs": [
        {
          "internalType": "uint256",
          "name": "amount",
          "type": "uint256"
        }
      ],
      "stateMutability": "view",
      "type": "function"
    },
    {
      "inputs": [],
      "name": "totalReputation",
      "outputs": [
        {
          "internalType": "uint256",
          "name": "",
          "type": "uint256"
        }
      ],
      "stateMutability": "view",
      "type": "function"
    },
    {
      "inputs": [
        {
          "internalType": "address",
          "name": "",
          "type": "address"
        }
      ],
      "name": "totalStakedByUser",
      "outputs": [
        {
          "internalType": "uint256",
          "name": "",
          "type": "uint256"
        }
      ],
      "stateMutability": "view",
      "type": "function"
    },
    {
      "inputs": [
        {
          "internalType": "address",
          "name": "newOwner",
          "type": "address"
        }
      ],
      "name": "transferOwnership",
      "outputs": [],
      "stateMutability": "nonpayable",
      "type": "function"
    },
    {
      "inputs": [
        {
          "internalType": "address",
          "name": "candidate",
          "type": "address"
        },
        {
          "internalType": "uint256",
          "name": "amount",
          "type": "uint256"
        }
      ],
      "name": "unstake",
      "outputs": [],
      "stateMutability": "nonpayable",
      "type": "function"
    },
    {
      "inputs": [
        {
          "internalType": "uint256[2]",
          "name": "_pA",
          "type": "uint256[2]"
        },
        {
          "internalType": "uint256[2][2]",
          "name": "_pB",
          "type": "uint256[2][2]"
        },
        {
          "internalType": "uint256[2]",
          "name": "_pC",
          "type": "uint256[2]"
        },
        {
          "internalType": "uint256[34]",
          "name": "_pubSignals",
          "type": "uint256[34]"
        }
      ],
      "name": "verifyAadhaar",
      "outputs": [],
      "stateMutability": "nonpayable",
      "type": "function"
    }
  ],
  "bytecode": "0x60806040523480156200001157600080fd5b506040516200268638038062002686833981810160405281019062000037919062000277565b33600073ffffffffffffffffffffffffffffffffffffffff168173ffffffffffffffffffffffffffffffffffffffff1603620000ad5760006040517f1e4fbdf7000000000000000000000000000000000000000000000000000000008152600401620000a49190620002cf565b60405180910390fd5b620000be816200014960201b60201c565b5081600160006101000a81548173ffffffffffffffffffffffffffffffffffffffff021916908373ffffffffffffffffffffffffffffffffffffffff16021790555080600260006101000a81548173ffffffffffffffffffffffffffffffffffffffff021916908373ffffffffffffffffffffffffffffffffffffffff1602179055505050620002ec565b60008060009054906101000a900473ffffffffffffffffffffffffffffffffffffffff169050816000806101000a81548173ffffffffffffffffffffffffffffffffffffffff021916908373ffffffffffffffffffffffffffffffffffffffff1602179055508173ffffffffffffffffffffffffffffffffffffffff168173ffffffffffffffffffffffffffffffffffffffff167f8be0079c531659141344cd1fd0a4f28419497f9722a3daafe3b4186f6b6457e060405160405180910390a35050565b600080fd5b600073ffffffffffffffffffffffffffffffffffffffff82169050919050565b60006200023f8262000212565b9050919050565b620002518162000232565b81146200025d57600080fd5b50565b600081519050620002718162000246565b92915050565b600080604083850312156200029157620002906200020d565b5b6000620002a18582860162000260565b9250506020620002b48582860162000260565b9150509250929050565b620002c98162000232565b82525050565b6000602082019050620002e66000830184620002be565b92915050565b61238a80620002fc6000396000f3fe608060405234801561001057600080fd5b50600436106101425760003560e01c8063896854d8116100b8578063b77cf9c61161007c578063b77cf9c614610367578063b9f7945114610397578063c2a672e0146103c7578063cdc290f3146103e3578063e583524114610401578063f2fde38b1461041f57610142565b8063896854d81461029d5780638da5cb5b146102cd578063a4e47b66146102eb578063a56528801461031b578063adc9772e1461034b57610142565b8063489aa0331161010a578063489aa033146101ed57806348c54b9d1461021d57806349d17ec5146102275780634fc73c0a146102455780636a6904fb14610275578063715018a61461029357610142565b806308b26b75146101475780630dbffbcd1461016557806317f5e33d1461018357806321f05249146101a15780633148c441146101bd575b600080fd5b61014f61043b565b60405161015c9190611988565b60405180910390f35b61016d610440565b60405161017a91906119e4565b60405180910390f35b61018b610466565b6040516101989190611a5e565b60405180910390f35b6101bb60048036038101906101b69190611ae9565b61048c565b005b6101d760048036038101906101d29190611b7e565b610744565b6040516101e49190611bc6565b60405180910390f35b61020760048036038101906102029190611c0d565b610764565b6040516102149190611988565b60405180910390f35b61022561077c565b005b61022f610990565b60405161023c9190611988565b60405180910390f35b61025f600480360381019061025a9190611c0d565b61099d565b60405161026c9190611988565b60405180910390f35b61027d610ad7565b60405161028a9190611988565b60405180910390f35b61029b610adc565b005b6102b760048036038101906102b29190611c0d565b610af0565b6040516102c49190611bc6565b60405180910390f35b6102d5610b10565b6040516102e291906119e4565b60405180910390f35b61030560048036038101906103009190611c3a565b610b39565b6040516103129190611988565b60405180910390f35b61033560048036038101906103309190611c0d565b610b64565b6040516103429190611988565b60405180910390f35b61036560048036038101906103609190611c7a565b610ce0565b005b610381600480360381019061037c9190611c0d565b611232565b60405161038e9190611988565b60405180910390f35b6103b160048036038101906103ac9190611c0d565b61124a565b6040516103be9190611988565b60405180910390f35b6103e160048036038101906103dc9190611c7a565b611262565b005b6103eb611632565b6040516103f89190611988565b60405180910390f35b610409611637565b6040516104169190611988565b60405180910390f35b61043960048036038101906104349190611c0d565b61163d565b005b603c81565b600260009054906101000a900473ffffffffffffffffffffffffffffffffffffffff1681565b600160009054906101000a900473ffffffffffffffffffffffffffffffffffffffff1681565b6000151560096000836000602281106104a8576104a7611cba565b5b6020020135815260200190815260200160002060009054906101000a900460ff1615151461050b576040517f08c379a000000000000000000000000000000000000000000000000000000000815260040161050290611d46565b60405180910390fd5b6000600260009054906101000a900473ffffffffffffffffffffffffffffffffffffffff1673ffffffffffffffffffffffffffffffffffffffff16638525a61d868686866040518563ffffffff1660e01b815260040161056e9493929190611e4f565b602060405180830381865afa15801561058b573d6000803e3d6000fd5b505050506040513d601f19601f820116820180604052508101906105af9190611ec2565b9050801561070257600160096000846000602281106105d1576105d0611cba565b5b6020020135815260200190815260200160002060006101000a81548160ff0219169083151502179055506001600a60003373ffffffffffffffffffffffffffffffffffffffff1673ffffffffffffffffffffffffffffffffffffffff16815260200190815260200160002060006101000a81548160ff021916908315150217905550600160009054906101000a900473ffffffffffffffffffffffffffffffffffffffff1673ffffffffffffffffffffffffffffffffffffffff1663a9059cbb3368056bc75e2d631000006040518363ffffffff1660e01b81526004016106b9929190611eef565b6020604051808303816000875af11580156106d8573d6000803e3d6000fd5b505050506040513d601f19601f820116820180604052508101906106fc9190611ec2565b5061073d565b6040517f08c379a000000000000000000000000000000000000000000000000000000000815260040161073490611f64565b60405180910390fd5b5050505050565b60096020528060005260406000206000915054906101000a900460ff1681565b60066020528060005260406000206000915090505481565b603c600860003373ffffffffffffffffffffffffffffffffffffffff1673ffffffffffffffffffffffffffffffffffffffff168152602001908152602001600020546107c89190611fb3565b42101561080a576040517f08c379a000000000000000000000000000000000000000000000000000000000815260040161080190612059565b60405180910390fd5b600061081533610b64565b90506000811161085a576040517f08c379a0000000000000000000000000000000000000000000000000000000008152600401610851906120c5565b60405180910390fd5b42600860003373ffffffffffffffffffffffffffffffffffffffff1673ffffffffffffffffffffffffffffffffffffffff16815260200190815260200160002081905550600160009054906101000a900473ffffffffffffffffffffffffffffffffffffffff1673ffffffffffffffffffffffffffffffffffffffff1663a9059cbb33836040518363ffffffff1660e01b81526004016108fb929190611eef565b6020604051808303816000875af115801561091a573d6000803e3d6000fd5b505050506040513d601f19601f8201168201806040525081019061093e9190611ec2565b503373ffffffffffffffffffffffffffffffffffffffff167f896e034966eaaf1adc54acc0f257056febbd300c9e47182cf761982cf1f5e430826040516109859190611988565b60405180910390a250565b68056bc75e2d6310000081565b600080600460008473ffffffffffffffffffffffffffffffffffffffff1673ffffffffffffffffffffffffffffffffffffffff16815260200190815260200160002060000180549050905060005b81811015610a8e57610a7b600460008673ffffffffffffffffffffffffffffffffffffffff1673ffffffffffffffffffffffffffffffffffffffff1681526020019081526020016000206000018281548110610a4a57610a49611cba565b5b9060005260206000200160009054906101000a900473ffffffffffffffffffffffffffffffffffffffff16856116c3565b8080610a86906120e5565b9150506109eb565b50600760008473ffffffffffffffffffffffffffffffffffffffff1673ffffffffffffffffffffffffffffffffffffffff16815260200190815260200160002054915050919050565b60c881565b610ae4611798565b610aee600061181f565b565b600a6020528060005260406000206000915054906101000a900460ff1681565b60008060009054906101000a900473ffffffffffffffffffffffffffffffffffffffff16905090565b6005602052816000526040600020602052806000526040600020600091509150508060000154905081565b6000603c600860003373ffffffffffffffffffffffffffffffffffffffff1673ffffffffffffffffffffffffffffffffffffffff16815260200190815260200160002054610bb29190611fb3565b4210610cd6576000600160009054906101000a900473ffffffffffffffffffffffffffffffffffffffff1673ffffffffffffffffffffffffffffffffffffffff166370a08231306040518263ffffffff1660e01b8152600401610c1591906119e4565b602060405180830381865afa158015610c32573d6000803e3d6000fd5b505050506040513d601f19601f82011682018060405250810190610c569190612142565b9050600060c882610c67919061219e565b90506000600760008673ffffffffffffffffffffffffffffffffffffffff1673ffffffffffffffffffffffffffffffffffffffff16815260200190815260200160002054905060006003548284610cbe91906121cf565b610cc8919061219e565b905080945050505050610cdb565b600090505b919050565b60008111610d23576040517f08c379a0000000000000000000000000000000000000000000000000000000008152600401610d1a9061225d565b60405180910390fd5b600160009054906101000a900473ffffffffffffffffffffffffffffffffffffffff1673ffffffffffffffffffffffffffffffffffffffff166323b872dd3330846040518463ffffffff1660e01b8152600401610d829392919061227d565b6020604051808303816000875af1158015610da1573d6000803e3d6000fd5b505050506040513d601f19601f82011682018060405250810190610dc59190611ec2565b50600460008373ffffffffffffffffffffffffffffffffffffffff1673ffffffffffffffffffffffffffffffffffffffff16815260200190815260200160002060010160003373ffffffffffffffffffffffffffffffffffffffff1673ffffffffffffffffffffffffffffffffffffffff16815260200190815260200160002060009054906101000a900460ff16610f9357600460008373ffffffffffffffffffffffffffffffffffffffff1673ffffffffffffffffffffffffffffffffffffffff168152602001908152602001600020600001339080600181540180825580915050600190039060005260206000200160009091909190916101000a81548173ffffffffffffffffffffffffffffffffffffffff021916908373ffffffffffffffffffffffffffffffffffffffff1602179055506001600460008473ffffffffffffffffffffffffffffffffffffffff1673ffffffffffffffffffffffffffffffffffffffff16815260200190815260200160002060010160003373ffffffffffffffffffffffffffffffffffffffff1673ffffffffffffffffffffffffffffffffffffffff16815260200190815260200160002060006101000a81548160ff0219169083151502179055505b61101b600560003373ffffffffffffffffffffffffffffffffffffffff1673ffffffffffffffffffffffffffffffffffffffff16815260200190815260200160002060008473ffffffffffffffffffffffffffffffffffffffff1673ffffffffffffffffffffffffffffffffffffffff168152602001908152602001600020600001546118e3565b6003600082825461102c91906122b4565b9250508190555080600560003373ffffffffffffffffffffffffffffffffffffffff1673ffffffffffffffffffffffffffffffffffffffff16815260200190815260200160002060008473ffffffffffffffffffffffffffffffffffffffff1673ffffffffffffffffffffffffffffffffffffffff16815260200190815260200160002060000160008282546110c29190611fb3565b9250508190555080600660003373ffffffffffffffffffffffffffffffffffffffff1673ffffffffffffffffffffffffffffffffffffffff16815260200190815260200160002060008282546111189190611fb3565b9250508190555061112933836116c3565b6111b1600560003373ffffffffffffffffffffffffffffffffffffffff1673ffffffffffffffffffffffffffffffffffffffff16815260200190815260200160002060008473ffffffffffffffffffffffffffffffffffffffff1673ffffffffffffffffffffffffffffffffffffffff168152602001908152602001600020600001546118e3565b600360008282546111c29190611fb3565b925050819055508173ffffffffffffffffffffffffffffffffffffffff163373ffffffffffffffffffffffffffffffffffffffff167f5dac0c1b1112564a045ba943c9d50270893e8e826c49be8e7073adc713ab7bd7836040516112269190611988565b60405180910390a35050565b60086020528060005260406000206000915090505481565b60076020528060005260406000206000915090505481565b600081116112a5576040517f08c379a000000000000000000000000000000000000000000000000000000000815260040161129c9061225d565b60405180910390fd5b6000600560003373ffffffffffffffffffffffffffffffffffffffff1673ffffffffffffffffffffffffffffffffffffffff16815260200190815260200160002060008473ffffffffffffffffffffffffffffffffffffffff1673ffffffffffffffffffffffffffffffffffffffff1681526020019081526020016000209050818160000154101561136c576040517f08c379a000000000000000000000000000000000000000000000000000000000815260040161136390612334565b60405180910390fd5b6113f4600560003373ffffffffffffffffffffffffffffffffffffffff1673ffffffffffffffffffffffffffffffffffffffff16815260200190815260200160002060008573ffffffffffffffffffffffffffffffffffffffff1673ffffffffffffffffffffffffffffffffffffffff168152602001908152602001600020600001546118e3565b6003600082825461140591906122b4565b925050819055508181600001600082825461142091906122b4565b9250508190555081600660003373ffffffffffffffffffffffffffffffffffffffff1673ffffffffffffffffffffffffffffffffffffffff168152602001908152602001600020600082825461147691906122b4565b9250508190555061148733846116c3565b61150f600560003373ffffffffffffffffffffffffffffffffffffffff1673ffffffffffffffffffffffffffffffffffffffff16815260200190815260200160002060008573ffffffffffffffffffffffffffffffffffffffff1673ffffffffffffffffffffffffffffffffffffffff168152602001908152602001600020600001546118e3565b600360008282546115209190611fb3565b92505081905550600160009054906101000a900473ffffffffffffffffffffffffffffffffffffffff1673ffffffffffffffffffffffffffffffffffffffff1663a9059cbb33846040518363ffffffff1660e01b8152600401611584929190611eef565b6020604051808303816000875af11580156115a3573d6000803e3d6000fd5b505050506040513d601f19601f820116820180604052508101906115c79190611ec2565b508273ffffffffffffffffffffffffffffffffffffffff163373ffffffffffffffffffffffffffffffffffffffff167fd8654fcc8cf5b36d30b3f5e4688fc78118e6d68de60b9994e09902268b57c3e3846040516116259190611988565b60405180910390a3505050565b600281565b60035481565b611645611798565b600073ffffffffffffffffffffffffffffffffffffffff168173ffffffffffffffffffffffffffffffffffffffff16036116b75760006040517f1e4fbdf70000000000000000000000000000000000000000000000000000000081526004016116ae91906119e4565b60405180910390fd5b6116c08161181f565b50565b6000600560008473ffffffffffffffffffffffffffffffffffffffff1673ffffffffffffffffffffffffffffffffffffffff16815260200190815260200160002060008373ffffffffffffffffffffffffffffffffffffffff1673ffffffffffffffffffffffffffffffffffffffff168152602001908152602001600020905061175081600001546118e3565b600760008473ffffffffffffffffffffffffffffffffffffffff1673ffffffffffffffffffffffffffffffffffffffff16815260200190815260200160002081905550505050565b6117a0611967565b73ffffffffffffffffffffffffffffffffffffffff166117be610b10565b73ffffffffffffffffffffffffffffffffffffffff161461181d576117e1611967565b6040517f118cdaa700000000000000000000000000000000000000000000000000000000815260040161181491906119e4565b60405180910390fd5b565b60008060009054906101000a900473ffffffffffffffffffffffffffffffffffffffff169050816000806101000a81548173ffffffffffffffffffffffffffffffffffffffff021916908373ffffffffffffffffffffffffffffffffffffffff1602179055508173ffffffffffffffffffffffffffffffffffffffff168173ffffffffffffffffffffffffffffffffffffffff167f8be0079c531659141344cd1fd0a4f28419497f9722a3daafe3b4186f6b6457e060405160405180910390a35050565b60008082036118f55760009050611962565b600060026001846119069190611fb3565b611910919061219e565b905060008390505b8082101561194d578190506002828386611932919061219e565b61193c9190611fb3565b611946919061219e565b9150611918565b633b9aca008161195d919061219e565b925050505b919050565b600033905090565b6000819050919050565b6119828161196f565b82525050565b600060208201905061199d6000830184611979565b92915050565b600073ffffffffffffffffffffffffffffffffffffffff82169050919050565b60006119ce826119a3565b9050919050565b6119de816119c3565b82525050565b60006020820190506119f960008301846119d5565b92915050565b6000819050919050565b6000611a24611a1f611a1a846119a3565b6119ff565b6119a3565b9050919050565b6000611a3682611a09565b9050919050565b6000611a4882611a2b565b9050919050565b611a5881611a3d565b82525050565b6000602082019050611a736000830184611a4f565b92915050565b600080fd5b600080fd5b600081905082602060020282011115611a9f57611a9e611a7e565b5b92915050565b600081905082604060020282011115611ac157611ac0611a7e565b5b92915050565b600081905082602060220282011115611ae357611ae2611a7e565b5b92915050565b6000806000806105408587031215611b0457611b03611a79565b5b6000611b1287828801611a83565b9450506040611b2387828801611aa5565b93505060c0611b3487828801611a83565b925050610100611b4687828801611ac7565b91505092959194509250565b611b5b8161196f565b8114611b6657600080fd5b50565b600081359050611b7881611b52565b92915050565b600060208284031215611b9457611b93611a79565b5b6000611ba284828501611b69565b91505092915050565b60008115159050919050565b611bc081611bab565b82525050565b6000602082019050611bdb6000830184611bb7565b92915050565b611bea816119c3565b8114611bf557600080fd5b50565b600081359050611c0781611be1565b92915050565b600060208284031215611c2357611c22611a79565b5b6000611c3184828501611bf8565b91505092915050565b60008060408385031215611c5157611c50611a79565b5b6000611c5f85828601611bf8565b9250506020611c7085828601611bf8565b9150509250929050565b60008060408385031215611c9157611c90611a79565b5b6000611c9f85828601611bf8565b9250506020611cb085828601611b69565b9150509250929050565b7f4e487b7100000000000000000000000000000000000000000000000000000000600052603260045260246000fd5b600082825260208201905092915050565b7f4161646861617220616c72656164792076657269666965640000000000000000600082015250565b6000611d30601883611ce9565b9150611d3b82611cfa565b602082019050919050565b60006020820190508181036000830152611d5f81611d23565b9050919050565b82818337505050565b611d7b60408383611d66565b5050565b600060029050919050565b600081905092915050565b6000819050919050565b611dab60408383611d66565b5050565b6000611dbb8383611d9f565b60408301905092915050565b600082905092915050565b6000604082019050919050565b611de881611d7f565b611df28184611d8a565b9250611dfd82611d95565b8060005b83811015611e3657611e138284611dc7565b611e1d8782611daf565b9650611e2883611dd2565b925050600181019050611e01565b505050505050565b611e4b6104408383611d66565b5050565b600061054082019050611e656000830187611d6f565b611e726040830186611ddf565b611e7f60c0830185611d6f565b611e8d610100830184611e3e565b95945050505050565b611e9f81611bab565b8114611eaa57600080fd5b50565b600081519050611ebc81611e96565b92915050565b600060208284031215611ed857611ed7611a79565b5b6000611ee684828501611ead565b91505092915050565b6000604082019050611f0460008301856119d5565b611f116020830184611979565b9392505050565b7f496e76616c696420616164686161722070726f6f660000000000000000000000600082015250565b6000611f4e601583611ce9565b9150611f5982611f18565b602082019050919050565b60006020820190508181036000830152611f7d81611f41565b9050919050565b7f4e487b7100000000000000000000000000000000000000000000000000000000600052601160045260246000fd5b6000611fbe8261196f565b9150611fc98361196f565b9250828201905080821115611fe157611fe0611f84565b5b92915050565b7f416c726561647920636c61696d656420666f7220746865206c6174657374206460008201527f6973747269627574696f6e000000000000000000000000000000000000000000602082015250565b6000612043602b83611ce9565b915061204e82611fe7565b604082019050919050565b6000602082019050818103600083015261207281612036565b9050919050565b7f4e6f20746f6b656e7320746f20636c61696d0000000000000000000000000000600082015250565b60006120af601283611ce9565b91506120ba82612079565b602082019050919050565b600060208201905081810360008301526120de816120a2565b9050919050565b60006120f08261196f565b91507fffffffffffffffffffffffffffffffffffffffffffffffffffffffffffffffff820361212257612121611f84565b5b600182019050919050565b60008151905061213c81611b52565b92915050565b60006020828403121561215857612157611a79565b5b60006121668482850161212d565b91505092915050565b7f4e487b7100000000000000000000000000000000000000000000000000000000600052601260045260246000fd5b60006121a98261196f565b91506121b48361196f565b9250826121c4576121c361216f565b5b828204905092915050565b60006121da8261196f565b91506121e58361196f565b92508282026121f38161196f565b9150828204841483151761220a57612209611f84565b5b5092915050565b7f416d6f756e74206d75737420626520706f736974697665000000000000000000600082015250565b6000612247601783611ce9565b915061225282612211565b602082019050919050565b600060208201905081810360008301526122768161223a565b9050919050565b600060608201905061229260008301866119d5565b61229f60208301856119d5565b6122ac6040830184611979565b949350505050565b60006122bf8261196f565b91506122ca8361196f565b92508282039050818111156122e2576122e1611f84565b5b92915050565b7f496e73756666696369656e74207374616b656420616d6f756e74000000000000600082015250565b600061231e601a83611ce9565b9150612329826122e8565b602082019050919050565b6000602082019050818103600083015261234d81612311565b905091905056fea26469706673582212205c2d0423927fef236542a2f2fbd5fb9c5d8b2ca44aca92c53295064f6f6f985964736f6c63430008140033",
  "linkReferences": {},
  "deployedLinkReferences": {}
}