{
    "_format": "hh-sol-artifact-1",
    "contractName": "TrustDrops",
    "sourceName": "contracts/TrustDrops.sol",
    "abi": [
        {
            "inputs": [
                {
                    "internalType": "address",
                    "name": "_mandTokenAddress",
                    "type": "address"
                }
            ],
            "stateMutability": "nonpayable",
            "type": "constructor"
        },
        {
            "inputs": [
                {
                    "internalType": "address",
                    "name": "owner",
                    "type": "address"
                }
            ],
            "name": "OwnableInvalidOwner",
            "type": "error"
        },
        {
            "inputs": [
                {
                    "internalType": "address",
                    "name": "account",
                    "type": "address"
                }
            ],
            "name": "OwnableUnauthorizedAccount",
            "type": "error"
        },
        {
            "anonymous": false,
            "inputs": [
                {
                    "indexed": false,
                    "internalType": "uint256",
                    "name": "oldConstant",
                    "type": "uint256"
                },
                {
                    "indexed": false,
                    "internalType": "uint256",
                    "name": "newConstant",
                    "type": "uint256"
                }
            ],
            "name": "NetworkConstantChanged",
            "type": "event"
        },
        {
            "anonymous": false,
            "inputs": [
                {
                    "indexed": true,
                    "internalType": "address",
                    "name": "previousOwner",
                    "type": "address"
                },
                {
                    "indexed": true,
                    "internalType": "address",
                    "name": "newOwner",
                    "type": "address"
                }
            ],
            "name": "OwnershipTransferred",
            "type": "event"
        },
        {
            "anonymous": false,
            "inputs": [
                {
                    "indexed": true,
                    "internalType": "address",
                    "name": "staker",
                    "type": "address"
                },
                {
                    "indexed": true,
                    "internalType": "address",
                    "name": "candidate",
                    "type": "address"
                },
                {
                    "indexed": false,
                    "internalType": "uint256",
                    "name": "amount",
                    "type": "uint256"
                }
            ],
            "name": "Staked",
            "type": "event"
        },
        {
            "anonymous": false,
            "inputs": [
                {
                    "indexed": true,
                    "internalType": "address",
                    "name": "candidate",
                    "type": "address"
                },
                {
                    "indexed": false,
                    "internalType": "uint256",
                    "name": "amount",
                    "type": "uint256"
                }
            ],
            "name": "TokensClaimed",
            "type": "event"
        },
        {
            "anonymous": false,
            "inputs": [
                {
                    "indexed": true,
                    "internalType": "address",
                    "name": "staker",
                    "type": "address"
                },
                {
                    "indexed": true,
                    "internalType": "address",
                    "name": "candidate",
                    "type": "address"
                },
                {
                    "indexed": false,
                    "internalType": "uint256",
                    "name": "amount",
                    "type": "uint256"
                }
            ],
            "name": "Unstaked",
            "type": "event"
        },
        {
            "inputs": [],
            "name": "DISTRIBUTION_DENOMINATOR",
            "outputs": [
                {
                    "internalType": "uint256",
                    "name": "",
                    "type": "uint256"
                }
            ],
            "stateMutability": "view",
            "type": "function"
        },
        {
            "inputs": [],
            "name": "DISTRIBUTION_INTERVAL",
            "outputs": [
                {
                    "internalType": "uint256",
                    "name": "",
                    "type": "uint256"
                }
            ],
            "stateMutability": "view",
            "type": "function"
        },
        {
            "inputs": [],
            "name": "claimTokens",
            "outputs": [],
            "stateMutability": "nonpayable",
            "type": "function"
        },
        {
            "inputs": [],
            "name": "getAllUsersReputation",
            "outputs": [
                {
                    "internalType": "address[]",
                    "name": "",
                    "type": "address[]"
                },
                {
                    "internalType": "uint256[]",
                    "name": "",
                    "type": "uint256[]"
                }
            ],
            "stateMutability": "view",
            "type": "function"
        },
        {
            "inputs": [
                {
                    "internalType": "address",
                    "name": "candidate",
                    "type": "address"
                }
            ],
            "name": "getCandidateStakesAndReputation",
            "outputs": [
                {
                    "internalType": "uint256",
                    "name": "",
                    "type": "uint256"
                },
                {
                    "internalType": "uint256",
                    "name": "",
                    "type": "uint256"
                }
            ],
            "stateMutability": "view",
            "type": "function"
        },
        {
            "inputs": [
                {
                    "internalType": "address",
                    "name": "candidate",
                    "type": "address"
                }
            ],
            "name": "getCurrentReputation",
            "outputs": [
                {
                    "internalType": "uint256",
                    "name": "",
                    "type": "uint256"
                }
            ],
            "stateMutability": "nonpayable",
            "type": "function"
        },
        {
            "inputs": [
                {
                    "internalType": "address",
                    "name": "user",
                    "type": "address"
                }
            ],
            "name": "getUserStakeAndReputation",
            "outputs": [
                {
                    "internalType": "uint256[]",
                    "name": "",
                    "type": "uint256[]"
                },
                {
                    "internalType": "uint256",
                    "name": "",
                    "type": "uint256"
                }
            ],
            "stateMutability": "view",
            "type": "function"
        },
        {
            "inputs": [
                {
                    "internalType": "address",
                    "name": "",
                    "type": "address"
                }
            ],
            "name": "lastClaimTime",
            "outputs": [
                {
                    "internalType": "uint256",
                    "name": "",
                    "type": "uint256"
                }
            ],
            "stateMutability": "view",
            "type": "function"
        },
        {
            "inputs": [],
            "name": "lastDistributionTime",
            "outputs": [
                {
                    "internalType": "uint256",
                    "name": "",
                    "type": "uint256"
                }
            ],
            "stateMutability": "view",
            "type": "function"
        },
        {
            "inputs": [],
            "name": "mandToken",
            "outputs": [
                {
                    "internalType": "contract IERC20",
                    "name": "",
                    "type": "address"
                }
            ],
            "stateMutability": "view",
            "type": "function"
        },
        {
            "inputs": [],
            "name": "networkConstant",
            "outputs": [
                {
                    "internalType": "uint256",
                    "name": "",
                    "type": "uint256"
                }
            ],
            "stateMutability": "view",
            "type": "function"
        },
        {
            "inputs": [],
            "name": "owner",
            "outputs": [
                {
                    "internalType": "address",
                    "name": "",
                    "type": "address"
                }
            ],
            "stateMutability": "view",
            "type": "function"
        },
        {
            "inputs": [],
            "name": "renounceOwnership",
            "outputs": [],
            "stateMutability": "nonpayable",
            "type": "function"
        },
        {
            "inputs": [
                {
                    "internalType": "address",
                    "name": "",
                    "type": "address"
                }
            ],
            "name": "reputation",
            "outputs": [
                {
                    "internalType": "uint256",
                    "name": "",
                    "type": "uint256"
                }
            ],
            "stateMutability": "view",
            "type": "function"
        },
        {
            "inputs": [
                {
                    "internalType": "address",
                    "name": "candidate",
                    "type": "address"
                },
                {
                    "internalType": "uint256",
                    "name": "amount",
                    "type": "uint256"
                }
            ],
            "name": "stake",
            "outputs": [],
            "stateMutability": "nonpayable",
            "type": "function"
        },
        {
            "inputs": [
                {
                    "internalType": "address",
                    "name": "",
                    "type": "address"
                },
                {
                    "internalType": "address",
                    "name": "",
                    "type": "address"
                }
            ],
            "name": "stakes",
            "outputs": [
                {
                    "internalType": "uint256",
                    "name": "amount",
                    "type": "uint256"
                },
                {
                    "internalType": "uint256",
                    "name": "lastNetworkConstant",
                    "type": "uint256"
                }
            ],
            "stateMutability": "view",
            "type": "function"
        },
        {
            "inputs": [],
            "name": "totalReputation",
            "outputs": [
                {
                    "internalType": "uint256",
                    "name": "",
                    "type": "uint256"
                }
            ],
            "stateMutability": "view",
            "type": "function"
        },
        {
            "inputs": [
                {
                    "internalType": "address",
                    "name": "newOwner",
                    "type": "address"
                }
            ],
            "name": "transferOwnership",
            "outputs": [],
            "stateMutability": "nonpayable",
            "type": "function"
        },
        {
            "inputs": [
                {
                    "internalType": "address",
                    "name": "candidate",
                    "type": "address"
                },
                {
                    "internalType": "uint256",
                    "name": "amount",
                    "type": "uint256"
                }
            ],
            "name": "unstake",
            "outputs": [],
            "stateMutability": "nonpayable",
            "type": "function"
        },
        {
            "inputs": [
                {
                    "internalType": "uint256",
                    "name": "newConstant",
                    "type": "uint256"
                }
            ],
            "name": "updateNetworkConstant",
            "outputs": [],
            "stateMutability": "nonpayable",
            "type": "function"
        }
    ],
    "bytecode": "0x6080604052600280553480156200001557600080fd5b50604051620025f4380380620025f483398181016040528101906200003b919062000239565b33600073ffffffffffffffffffffffffffffffffffffffff168173ffffffffffffffffffffffffffffffffffffffff1603620000b15760006040517f1e4fbdf7000000000000000000000000000000000000000000000000000000008152600401620000a891906200027c565b60405180910390fd5b620000c2816200010b60201b60201c565b5080600160006101000a81548173ffffffffffffffffffffffffffffffffffffffff021916908373ffffffffffffffffffffffffffffffffffffffff1602179055505062000299565b60008060009054906101000a900473ffffffffffffffffffffffffffffffffffffffff169050816000806101000a81548173ffffffffffffffffffffffffffffffffffffffff021916908373ffffffffffffffffffffffffffffffffffffffff1602179055508173ffffffffffffffffffffffffffffffffffffffff168173ffffffffffffffffffffffffffffffffffffffff167f8be0079c531659141344cd1fd0a4f28419497f9722a3daafe3b4186f6b6457e060405160405180910390a35050565b600080fd5b600073ffffffffffffffffffffffffffffffffffffffff82169050919050565b60006200020182620001d4565b9050919050565b6200021381620001f4565b81146200021f57600080fd5b50565b600081519050620002338162000208565b92915050565b600060208284031215620002525762000251620001cf565b5b6000620002628482850162000222565b91505092915050565b6200027681620001f4565b82525050565b60006020820190506200029360008301846200026b565b92915050565b61234b80620002a96000396000f3fe608060405234801561001057600080fd5b506004361061012c5760003560e01c8063a4e47b66116100ad578063c436229311610071578063c43622931461030f578063dd24dec514610340578063dd48293314610371578063e58352411461038f578063f2fde38b146103ad5761012c565b8063a4e47b6614610246578063adc9772e14610277578063b77cf9c614610293578063b9f79451146102c3578063c2a672e0146102f35761012c565b80634fc73c0a116100f45780634fc73c0a146101b25780636a6904fb146101e2578063715018a61461020057806375b173501461020a5780638da5cb5b146102285761012c565b806308b26b751461013157806317f5e33d1461014f578063240b05541461016d5780632b4b12e61461018957806348c54b9d146101a8575b600080fd5b6101396103c9565b604051610146919061193b565b60405180910390f35b6101576103d0565b60405161016491906119d5565b60405180910390f35b61018760048036038101906101829190611a21565b6103f6565b005b61019161048c565b60405161019f929190611bdc565b60405180910390f35b6101b0610584565b005b6101cc60048036038101906101c79190611c3f565b61078d565b6040516101d9919061193b565b60405180910390f35b6101ea6108c7565b6040516101f7919061193b565b60405180910390f35b6102086108cc565b005b6102126108e0565b60405161021f919061193b565b60405180910390f35b6102306108e6565b60405161023d9190611c7b565b60405180910390f35b610260600480360381019061025b9190611c96565b61090f565b60405161026e929190611cd6565b60405180910390f35b610291600480360381019061028c9190611cff565b610940565b005b6102ad60048036038101906102a89190611c3f565b610da6565b6040516102ba919061193b565b60405180910390f35b6102dd60048036038101906102d89190611c3f565b610dbe565b6040516102ea919061193b565b60405180910390f35b61030d60048036038101906103089190611cff565b610dd6565b005b61032960048036038101906103249190611c3f565b611034565b604051610337929190611d3f565b60405180910390f35b61035a60048036038101906103559190611c3f565b611295565b604051610368929190611cd6565b60405180910390f35b610379611453565b604051610386919061193b565b60405180910390f35b610397611459565b6040516103a4919061193b565b60405180910390f35b6103c760048036038101906103c29190611c3f565b61145f565b005b6201518081565b600160009054906101000a900473ffffffffffffffffffffffffffffffffffffffff1681565b6103fe6114e5565b60008111610441576040517f08c379a000000000000000000000000000000000000000000000000000000000815260040161043890611dcc565b60405180910390fd5b60006002549050816002819055507fb80ce647c36d73f94189750e31434ae05477b192a66db02f1fc3fff3e71847de8183604051610480929190611cd6565b60405180910390a15050565b60608060606000815167ffffffffffffffff8111156104ae576104ad611dec565b5b6040519080825280602002602001820160405280156104dc5781602001602082028036833780820191505090505b50905060005b8251811015610577576007600084838151811061050257610501611e1b565b5b602002602001015173ffffffffffffffffffffffffffffffffffffffff1673ffffffffffffffffffffffffffffffffffffffff1681526020019081526020016000205482828151811061055857610557611e1b565b5b602002602001018181525050808061056f90611e79565b9150506104e2565b5081819350935050509091565b600454600860003373ffffffffffffffffffffffffffffffffffffffff1673ffffffffffffffffffffffffffffffffffffffff1681526020019081526020016000205410610607576040517f08c379a00000000000000000000000000000000000000000000000000000000081526004016105fe90611f33565b60405180910390fd5b60006106123361156c565b905060008111610657576040517f08c379a000000000000000000000000000000000000000000000000000000000815260040161064e90611f9f565b60405180910390fd5b42600860003373ffffffffffffffffffffffffffffffffffffffff1673ffffffffffffffffffffffffffffffffffffffff16815260200190815260200160002081905550600160009054906101000a900473ffffffffffffffffffffffffffffffffffffffff1673ffffffffffffffffffffffffffffffffffffffff1663a9059cbb33836040518363ffffffff1660e01b81526004016106f8929190611fbf565b6020604051808303816000875af1158015610717573d6000803e3d6000fd5b505050506040513d601f19601f8201168201806040525081019061073b9190612020565b503373ffffffffffffffffffffffffffffffffffffffff167f896e034966eaaf1adc54acc0f257056febbd300c9e47182cf761982cf1f5e43082604051610782919061193b565b60405180910390a250565b600080600560008473ffffffffffffffffffffffffffffffffffffffff1673ffffffffffffffffffffffffffffffffffffffff16815260200190815260200160002060000180549050905060005b8181101561087e5761086b600560008673ffffffffffffffffffffffffffffffffffffffff1673ffffffffffffffffffffffffffffffffffffffff168152602001908152602001600020600001828154811061083a57610839611e1b565b5b9060005260206000200160009054906101000a900473ffffffffffffffffffffffffffffffffffffffff16856116b4565b808061087690611e79565b9150506107db565b50600760008473ffffffffffffffffffffffffffffffffffffffff1673ffffffffffffffffffffffffffffffffffffffff16815260200190815260200160002054915050919050565b60c881565b6108d46114e5565b6108de6000611817565b565b60045481565b60008060009054906101000a900473ffffffffffffffffffffffffffffffffffffffff16905090565b6006602052816000526040600020602052806000526040600020600091509150508060000154908060010154905082565b60008111610983576040517f08c379a000000000000000000000000000000000000000000000000000000000815260040161097a90612099565b60405180910390fd5b600160009054906101000a900473ffffffffffffffffffffffffffffffffffffffff1673ffffffffffffffffffffffffffffffffffffffff166323b872dd3330846040518463ffffffff1660e01b81526004016109e2939291906120b9565b6020604051808303816000875af1158015610a01573d6000803e3d6000fd5b505050506040513d601f19601f82011682018060405250810190610a259190612020565b50600560008373ffffffffffffffffffffffffffffffffffffffff1673ffffffffffffffffffffffffffffffffffffffff16815260200190815260200160002060010160003373ffffffffffffffffffffffffffffffffffffffff1673ffffffffffffffffffffffffffffffffffffffff16815260200190815260200160002060009054906101000a900460ff16610bf357600560008373ffffffffffffffffffffffffffffffffffffffff1673ffffffffffffffffffffffffffffffffffffffff168152602001908152602001600020600001339080600181540180825580915050600190039060005260206000200160009091909190916101000a81548173ffffffffffffffffffffffffffffffffffffffff021916908373ffffffffffffffffffffffffffffffffffffffff1602179055506001600560008473ffffffffffffffffffffffffffffffffffffffff1673ffffffffffffffffffffffffffffffffffffffff16815260200190815260200160002060010160003373ffffffffffffffffffffffffffffffffffffffff1673ffffffffffffffffffffffffffffffffffffffff16815260200190815260200160002060006101000a81548160ff0219169083151502179055505b610bfd33836116b4565b80600660003373ffffffffffffffffffffffffffffffffffffffff1673ffffffffffffffffffffffffffffffffffffffff16815260200190815260200160002060008473ffffffffffffffffffffffffffffffffffffffff1673ffffffffffffffffffffffffffffffffffffffff1681526020019081526020016000206000016000828254610c8c91906120f0565b92505081905550600254600660003373ffffffffffffffffffffffffffffffffffffffff1673ffffffffffffffffffffffffffffffffffffffff16815260200190815260200160002060008473ffffffffffffffffffffffffffffffffffffffff1673ffffffffffffffffffffffffffffffffffffffff16815260200190815260200160002060010181905550610d25816002546118db565b60036000828254610d3691906120f0565b925050819055508173ffffffffffffffffffffffffffffffffffffffff163373ffffffffffffffffffffffffffffffffffffffff167f5dac0c1b1112564a045ba943c9d50270893e8e826c49be8e7073adc713ab7bd783604051610d9a919061193b565b60405180910390a35050565b60086020528060005260406000206000915090505481565b60076020528060005260406000206000915090505481565b60008111610e19576040517f08c379a0000000000000000000000000000000000000000000000000000000008152600401610e1090612099565b60405180910390fd5b6000600660003373ffffffffffffffffffffffffffffffffffffffff1673ffffffffffffffffffffffffffffffffffffffff16815260200190815260200160002060008473ffffffffffffffffffffffffffffffffffffffff1673ffffffffffffffffffffffffffffffffffffffff16815260200190815260200160002090508181600001541015610ee0576040517f08c379a0000000000000000000000000000000000000000000000000000000008152600401610ed790612170565b60405180910390fd5b610eea33846116b4565b81816000016000828254610efe9190612190565b92505081905550610f11826002546118db565b60036000828254610f229190612190565b92505081905550600160009054906101000a900473ffffffffffffffffffffffffffffffffffffffff1673ffffffffffffffffffffffffffffffffffffffff1663a9059cbb33846040518363ffffffff1660e01b8152600401610f86929190611fbf565b6020604051808303816000875af1158015610fa5573d6000803e3d6000fd5b505050506040513d601f19601f82011682018060405250810190610fc99190612020565b508273ffffffffffffffffffffffffffffffffffffffff163373ffffffffffffffffffffffffffffffffffffffff167fd8654fcc8cf5b36d30b3f5e4688fc78118e6d68de60b9994e09902268b57c3e384604051611027919061193b565b60405180910390a3505050565b6060600080600560008573ffffffffffffffffffffffffffffffffffffffff1673ffffffffffffffffffffffffffffffffffffffff1681526020019081526020016000206000018054905067ffffffffffffffff81111561109857611097611dec565b5b6040519080825280602002602001820160405280156110c65781602001602082028036833780820191505090505b50905060005b600560008673ffffffffffffffffffffffffffffffffffffffff1673ffffffffffffffffffffffffffffffffffffffff1681526020019081526020016000206000018054905081101561124957600660008673ffffffffffffffffffffffffffffffffffffffff1673ffffffffffffffffffffffffffffffffffffffff1681526020019081526020016000206000600560008873ffffffffffffffffffffffffffffffffffffffff1673ffffffffffffffffffffffffffffffffffffffff16815260200190815260200160002060000183815481106111ae576111ad611e1b565b5b9060005260206000200160009054906101000a900473ffffffffffffffffffffffffffffffffffffffff1673ffffffffffffffffffffffffffffffffffffffff1673ffffffffffffffffffffffffffffffffffffffff1681526020019081526020016000206000015482828151811061122a57611229611e1b565b5b602002602001018181525050808061124190611e79565b9150506110cc565b5080600760008673ffffffffffffffffffffffffffffffffffffffff1673ffffffffffffffffffffffffffffffffffffffff168152602001908152602001600020549250925050915091565b6000806000805b600560008673ffffffffffffffffffffffffffffffffffffffff1673ffffffffffffffffffffffffffffffffffffffff168152602001908152602001600020600001805490508110156114075760066000600560008873ffffffffffffffffffffffffffffffffffffffff1673ffffffffffffffffffffffffffffffffffffffff168152602001908152602001600020600001838154811061134157611340611e1b565b5b9060005260206000200160009054906101000a900473ffffffffffffffffffffffffffffffffffffffff1673ffffffffffffffffffffffffffffffffffffffff1673ffffffffffffffffffffffffffffffffffffffff16815260200190815260200160002060008673ffffffffffffffffffffffffffffffffffffffff1673ffffffffffffffffffffffffffffffffffffffff16815260200190815260200160002060000154826113f291906120f0565b915080806113ff90611e79565b91505061129c565b5080600760008673ffffffffffffffffffffffffffffffffffffffff1673ffffffffffffffffffffffffffffffffffffffff168152602001908152602001600020549250925050915091565b60025481565b60035481565b6114676114e5565b600073ffffffffffffffffffffffffffffffffffffffff168173ffffffffffffffffffffffffffffffffffffffff16036114d95760006040517f1e4fbdf70000000000000000000000000000000000000000000000000000000081526004016114d09190611c7b565b60405180910390fd5b6114e281611817565b50565b6114ed61191a565b73ffffffffffffffffffffffffffffffffffffffff1661150b6108e6565b73ffffffffffffffffffffffffffffffffffffffff161461156a5761152e61191a565b6040517f118cdaa70000000000000000000000000000000000000000000000000000000081526004016115619190611c7b565b60405180910390fd5b565b60006201518060045461157f91906120f0565b42106116aa576000600160009054906101000a900473ffffffffffffffffffffffffffffffffffffffff1673ffffffffffffffffffffffffffffffffffffffff166370a08231306040518263ffffffff1660e01b81526004016115e29190611c7b565b602060405180830381865afa1580156115ff573d6000803e3d6000fd5b505050506040513d601f19601f8201168201806040525081019061162391906121d9565b9050600060c8826116349190612235565b90506000600760008673ffffffffffffffffffffffffffffffffffffffff1673ffffffffffffffffffffffffffffffffffffffff1681526020019081526020016000205490506000600354828461168b9190612266565b6116959190612235565b905042600481905550809450505050506116af565b600090505b919050565b6000600660008473ffffffffffffffffffffffffffffffffffffffff1673ffffffffffffffffffffffffffffffffffffffff16815260200190815260200160002060008373ffffffffffffffffffffffffffffffffffffffff1673ffffffffffffffffffffffffffffffffffffffff1681526020019081526020016000209050600254816001015414611812576000611755826000015483600101546118db565b9050600061176983600001546002546118db565b90508082600760008773ffffffffffffffffffffffffffffffffffffffff1673ffffffffffffffffffffffffffffffffffffffff168152602001908152602001600020546117b79190612190565b6117c191906120f0565b600760008673ffffffffffffffffffffffffffffffffffffffff1673ffffffffffffffffffffffffffffffffffffffff16815260200190815260200160002081905550600254836001018190555050505b505050565b60008060009054906101000a900473ffffffffffffffffffffffffffffffffffffffff169050816000806101000a81548173ffffffffffffffffffffffffffffffffffffffff021916908373ffffffffffffffffffffffffffffffffffffffff1602179055508173ffffffffffffffffffffffffffffffffffffffff168173ffffffffffffffffffffffffffffffffffffffff167f8be0079c531659141344cd1fd0a4f28419497f9722a3daafe3b4186f6b6457e060405160405180910390a35050565b600081836040516020016118ef91906122c9565b6040516020818303038152906040528051906020012060001c61191291906122e4565b905092915050565b600033905090565b6000819050919050565b61193581611922565b82525050565b6000602082019050611950600083018461192c565b92915050565b600073ffffffffffffffffffffffffffffffffffffffff82169050919050565b6000819050919050565b600061199b61199661199184611956565b611976565b611956565b9050919050565b60006119ad82611980565b9050919050565b60006119bf826119a2565b9050919050565b6119cf816119b4565b82525050565b60006020820190506119ea60008301846119c6565b92915050565b600080fd5b6119fe81611922565b8114611a0957600080fd5b50565b600081359050611a1b816119f5565b92915050565b600060208284031215611a3757611a366119f0565b5b6000611a4584828501611a0c565b91505092915050565b600081519050919050565b600082825260208201905092915050565b6000819050602082019050919050565b6000611a8582611956565b9050919050565b611a9581611a7a565b82525050565b6000611aa78383611a8c565b60208301905092915050565b6000602082019050919050565b6000611acb82611a4e565b611ad58185611a59565b9350611ae083611a6a565b8060005b83811015611b11578151611af88882611a9b565b9750611b0383611ab3565b925050600181019050611ae4565b5085935050505092915050565b600081519050919050565b600082825260208201905092915050565b6000819050602082019050919050565b611b5381611922565b82525050565b6000611b658383611b4a565b60208301905092915050565b6000602082019050919050565b6000611b8982611b1e565b611b938185611b29565b9350611b9e83611b3a565b8060005b83811015611bcf578151611bb68882611b59565b9750611bc183611b71565b925050600181019050611ba2565b5085935050505092915050565b60006040820190508181036000830152611bf68185611ac0565b90508181036020830152611c0a8184611b7e565b90509392505050565b611c1c81611a7a565b8114611c2757600080fd5b50565b600081359050611c3981611c13565b92915050565b600060208284031215611c5557611c546119f0565b5b6000611c6384828501611c2a565b91505092915050565b611c7581611a7a565b82525050565b6000602082019050611c906000830184611c6c565b92915050565b60008060408385031215611cad57611cac6119f0565b5b6000611cbb85828601611c2a565b9250506020611ccc85828601611c2a565b9150509250929050565b6000604082019050611ceb600083018561192c565b611cf8602083018461192c565b9392505050565b60008060408385031215611d1657611d156119f0565b5b6000611d2485828601611c2a565b9250506020611d3585828601611a0c565b9150509250929050565b60006040820190508181036000830152611d598185611b7e565b9050611d68602083018461192c565b9392505050565b600082825260208201905092915050565b7f436f6e7374616e74206d75737420626520706f73697469766500000000000000600082015250565b6000611db6601983611d6f565b9150611dc182611d80565b602082019050919050565b60006020820190508181036000830152611de581611da9565b9050919050565b7f4e487b7100000000000000000000000000000000000000000000000000000000600052604160045260246000fd5b7f4e487b7100000000000000000000000000000000000000000000000000000000600052603260045260246000fd5b7f4e487b7100000000000000000000000000000000000000000000000000000000600052601160045260246000fd5b6000611e8482611922565b91507fffffffffffffffffffffffffffffffffffffffffffffffffffffffffffffffff8203611eb657611eb5611e4a565b5b600182019050919050565b7f416c726561647920636c61696d656420666f7220746865206c6174657374206460008201527f6973747269627574696f6e000000000000000000000000000000000000000000602082015250565b6000611f1d602b83611d6f565b9150611f2882611ec1565b604082019050919050565b60006020820190508181036000830152611f4c81611f10565b9050919050565b7f4e6f20746f6b656e7320746f20636c61696d0000000000000000000000000000600082015250565b6000611f89601283611d6f565b9150611f9482611f53565b602082019050919050565b60006020820190508181036000830152611fb881611f7c565b9050919050565b6000604082019050611fd46000830185611c6c565b611fe1602083018461192c565b9392505050565b60008115159050919050565b611ffd81611fe8565b811461200857600080fd5b50565b60008151905061201a81611ff4565b92915050565b600060208284031215612036576120356119f0565b5b60006120448482850161200b565b91505092915050565b7f416d6f756e74206d75737420626520706f736974697665000000000000000000600082015250565b6000612083601783611d6f565b915061208e8261204d565b602082019050919050565b600060208201905081810360008301526120b281612076565b9050919050565b60006060820190506120ce6000830186611c6c565b6120db6020830185611c6c565b6120e8604083018461192c565b949350505050565b60006120fb82611922565b915061210683611922565b925082820190508082111561211e5761211d611e4a565b5b92915050565b7f496e73756666696369656e74207374616b656420616d6f756e74000000000000600082015250565b600061215a601a83611d6f565b915061216582612124565b602082019050919050565b600060208201905081810360008301526121898161214d565b9050919050565b600061219b82611922565b91506121a683611922565b92508282039050818111156121be576121bd611e4a565b5b92915050565b6000815190506121d3816119f5565b92915050565b6000602082840312156121ef576121ee6119f0565b5b60006121fd848285016121c4565b91505092915050565b7f4e487b7100000000000000000000000000000000000000000000000000000000600052601260045260246000fd5b600061224082611922565b915061224b83611922565b92508261225b5761225a612206565b5b828204905092915050565b600061227182611922565b915061227c83611922565b925082820261228a81611922565b915082820484148315176122a1576122a0611e4a565b5b5092915050565b6000819050919050565b6122c36122be82611922565b6122a8565b82525050565b60006122d582846122b2565b60208201915081905092915050565b60006122ef82611922565b91506122fa83611922565b92508261230a57612309612206565b5b82820690509291505056fea2646970667358221220eaa5d170a3993e98e6ef4fee35d376c422aaf55a3ee2fdf45bbdefcf9af64c5c64736f6c63430008140033",
    "linkReferences": {},
    "deployedLinkReferences": {}
}