{
  "_format": "hh-sol-artifact-1",
  "contractName": "TrustDrops",
  "sourceName": "contracts/TrustDrops.sol",
  "abi": [
    {
      "inputs": [
        {
          "internalType": "address",
          "name": "_mandTokenAddress",
          "type": "address"
        },
        {
          "internalType": "address",
          "name": "_anonAadhaarVerifierAddr",
          "type": "address"
        }
      ],
      "stateMutability": "nonpayable",
      "type": "constructor"
    },
    {
      "inputs": [
        {
          "internalType": "address",
          "name": "owner",
          "type": "address"
        }
      ],
      "name": "OwnableInvalidOwner",
      "type": "error"
    },
    {
      "inputs": [
        {
          "internalType": "address",
          "name": "account",
          "type": "address"
        }
      ],
      "name": "OwnableUnauthorizedAccount",
      "type": "error"
    },
    {
      "anonymous": false,
      "inputs": [
        {
          "indexed": false,
          "internalType": "uint256",
          "name": "oldConstant",
          "type": "uint256"
        },
        {
          "indexed": false,
          "internalType": "uint256",
          "name": "newConstant",
          "type": "uint256"
        }
      ],
      "name": "NetworkConstantChanged",
      "type": "event"
    },
    {
      "anonymous": false,
      "inputs": [
        {
          "indexed": true,
          "internalType": "address",
          "name": "previousOwner",
          "type": "address"
        },
        {
          "indexed": true,
          "internalType": "address",
          "name": "newOwner",
          "type": "address"
        }
      ],
      "name": "OwnershipTransferred",
      "type": "event"
    },
    {
      "anonymous": false,
      "inputs": [
        {
          "indexed": true,
          "internalType": "address",
          "name": "staker",
          "type": "address"
        },
        {
          "indexed": true,
          "internalType": "address",
          "name": "candidate",
          "type": "address"
        },
        {
          "indexed": false,
          "internalType": "uint256",
          "name": "amount",
          "type": "uint256"
        }
      ],
      "name": "Staked",
      "type": "event"
    },
    {
      "anonymous": false,
      "inputs": [
        {
          "indexed": true,
          "internalType": "address",
          "name": "candidate",
          "type": "address"
        },
        {
          "indexed": false,
          "internalType": "uint256",
          "name": "amount",
          "type": "uint256"
        }
      ],
      "name": "TokensClaimed",
      "type": "event"
    },
    {
      "anonymous": false,
      "inputs": [
        {
          "indexed": true,
          "internalType": "address",
          "name": "staker",
          "type": "address"
        },
        {
          "indexed": true,
          "internalType": "address",
          "name": "candidate",
          "type": "address"
        },
        {
          "indexed": false,
          "internalType": "uint256",
          "name": "amount",
          "type": "uint256"
        }
      ],
      "name": "Unstaked",
      "type": "event"
    },
    {
      "inputs": [],
      "name": "DISTRIBUTION_DENOMINATOR",
      "outputs": [
        {
          "internalType": "uint256",
          "name": "",
          "type": "uint256"
        }
      ],
      "stateMutability": "view",
      "type": "function"
    },
    {
      "inputs": [],
      "name": "DISTRIBUTION_INTERVAL",
      "outputs": [
        {
          "internalType": "uint256",
          "name": "",
          "type": "uint256"
        }
      ],
      "stateMutability": "view",
      "type": "function"
    },
    {
      "inputs": [],
      "name": "LOGIN_AIRDROP_AMOUNT",
      "outputs": [
        {
          "internalType": "uint256",
          "name": "",
          "type": "uint256"
        }
      ],
      "stateMutability": "view",
      "type": "function"
    },
    {
      "inputs": [
        {
          "internalType": "address",
          "name": "",
          "type": "address"
        }
      ],
      "name": "alreadyLoggedIn",
      "outputs": [
        {
          "internalType": "bool",
          "name": "",
          "type": "bool"
        }
      ],
      "stateMutability": "view",
      "type": "function"
    },
    {
      "inputs": [
        {
          "internalType": "uint256",
          "name": "",
          "type": "uint256"
        }
      ],
      "name": "alreadyVerified",
      "outputs": [
        {
          "internalType": "bool",
          "name": "",
          "type": "bool"
        }
      ],
      "stateMutability": "view",
      "type": "function"
    },
    {
      "inputs": [],
      "name": "anonAadhaarVerifierAddr",
      "outputs": [
        {
          "internalType": "address",
          "name": "",
          "type": "address"
        }
      ],
      "stateMutability": "view",
      "type": "function"
    },
    {
      "inputs": [],
      "name": "claimTokens",
      "outputs": [],
      "stateMutability": "nonpayable",
      "type": "function"
    },
    {
      "inputs": [],
      "name": "getAllUsersReputation",
      "outputs": [
        {
          "internalType": "address[]",
          "name": "",
          "type": "address[]"
        },
        {
          "internalType": "uint256[]",
          "name": "",
          "type": "uint256[]"
        }
      ],
      "stateMutability": "view",
      "type": "function"
    },
    {
      "inputs": [
        {
          "internalType": "address",
          "name": "candidate",
          "type": "address"
        }
      ],
      "name": "getCandidateStakesAndReputation",
      "outputs": [
        {
          "internalType": "uint256",
          "name": "",
          "type": "uint256"
        },
        {
          "internalType": "uint256",
          "name": "",
          "type": "uint256"
        }
      ],
      "stateMutability": "view",
      "type": "function"
    },
    {
      "inputs": [
        {
          "internalType": "address",
          "name": "candidate",
          "type": "address"
        }
      ],
      "name": "getCurrentReputation",
      "outputs": [
        {
          "internalType": "uint256",
          "name": "",
          "type": "uint256"
        }
      ],
      "stateMutability": "nonpayable",
      "type": "function"
    },
    {
      "inputs": [
        {
          "internalType": "address",
          "name": "user",
          "type": "address"
        }
      ],
      "name": "getUserStakeAndReputation",
      "outputs": [
        {
          "internalType": "uint256[]",
          "name": "",
          "type": "uint256[]"
        },
        {
          "internalType": "uint256",
          "name": "",
          "type": "uint256"
        }
      ],
      "stateMutability": "view",
      "type": "function"
    },
    {
      "inputs": [
        {
          "internalType": "address",
          "name": "",
          "type": "address"
        }
      ],
      "name": "lastClaimTime",
      "outputs": [
        {
          "internalType": "uint256",
          "name": "",
          "type": "uint256"
        }
      ],
      "stateMutability": "view",
      "type": "function"
    },
    {
      "inputs": [],
      "name": "lastDistributionTime",
      "outputs": [
        {
          "internalType": "uint256",
          "name": "",
          "type": "uint256"
        }
      ],
      "stateMutability": "view",
      "type": "function"
    },
    {
      "inputs": [],
      "name": "mandToken",
      "outputs": [
        {
          "internalType": "contract IERC20",
          "name": "",
          "type": "address"
        }
      ],
      "stateMutability": "view",
      "type": "function"
    },
    {
      "inputs": [],
      "name": "networkConstant",
      "outputs": [
        {
          "internalType": "uint256",
          "name": "",
          "type": "uint256"
        }
      ],
      "stateMutability": "view",
      "type": "function"
    },
    {
      "inputs": [],
      "name": "owner",
      "outputs": [
        {
          "internalType": "address",
          "name": "",
          "type": "address"
        }
      ],
      "stateMutability": "view",
      "type": "function"
    },
    {
      "inputs": [],
      "name": "renounceOwnership",
      "outputs": [],
      "stateMutability": "nonpayable",
      "type": "function"
    },
    {
      "inputs": [
        {
          "internalType": "address",
          "name": "",
          "type": "address"
        }
      ],
      "name": "reputation",
      "outputs": [
        {
          "internalType": "uint256",
          "name": "",
          "type": "uint256"
        }
      ],
      "stateMutability": "view",
      "type": "function"
    },
    {
      "inputs": [
        {
          "internalType": "address",
          "name": "candidate",
          "type": "address"
        },
        {
          "internalType": "uint256",
          "name": "amount",
          "type": "uint256"
        }
      ],
      "name": "stake",
      "outputs": [],
      "stateMutability": "nonpayable",
      "type": "function"
    },
    {
      "inputs": [
        {
          "internalType": "address",
          "name": "",
          "type": "address"
        },
        {
          "internalType": "address",
          "name": "",
          "type": "address"
        }
      ],
      "name": "stakes",
      "outputs": [
        {
          "internalType": "uint256",
          "name": "amount",
          "type": "uint256"
        },
        {
          "internalType": "uint256",
          "name": "lastNetworkConstant",
          "type": "uint256"
        }
      ],
      "stateMutability": "view",
      "type": "function"
    },
    {
      "inputs": [],
      "name": "totalReputation",
      "outputs": [
        {
          "internalType": "uint256",
          "name": "",
          "type": "uint256"
        }
      ],
      "stateMutability": "view",
      "type": "function"
    },
    {
      "inputs": [
        {
          "internalType": "address",
          "name": "newOwner",
          "type": "address"
        }
      ],
      "name": "transferOwnership",
      "outputs": [],
      "stateMutability": "nonpayable",
      "type": "function"
    },
    {
      "inputs": [
        {
          "internalType": "address",
          "name": "candidate",
          "type": "address"
        },
        {
          "internalType": "uint256",
          "name": "amount",
          "type": "uint256"
        }
      ],
      "name": "unstake",
      "outputs": [],
      "stateMutability": "nonpayable",
      "type": "function"
    },
    {
      "inputs": [
        {
          "internalType": "uint256",
          "name": "newConstant",
          "type": "uint256"
        }
      ],
      "name": "updateNetworkConstant",
      "outputs": [],
      "stateMutability": "nonpayable",
      "type": "function"
    },
    {
      "inputs": [
        {
          "internalType": "uint256[2]",
          "name": "_pA",
          "type": "uint256[2]"
        },
        {
          "internalType": "uint256[2][2]",
          "name": "_pB",
          "type": "uint256[2][2]"
        },
        {
          "internalType": "uint256[2]",
          "name": "_pC",
          "type": "uint256[2]"
        },
        {
          "internalType": "uint256[34]",
          "name": "_pubSignals",
          "type": "uint256[34]"
        }
      ],
      "name": "verifyAadhaar",
      "outputs": [],
      "stateMutability": "nonpayable",
      "type": "function"
    }
  ],
  "bytecode": "0x608060405260026003553480156200001657600080fd5b5060405162002d8338038062002d8383398181016040528101906200003c919062000283565b33600073ffffffffffffffffffffffffffffffffffffffff168173ffffffffffffffffffffffffffffffffffffffff1603620000b25760006040517f1e4fbdf7000000000000000000000000000000000000000000000000000000008152600401620000a99190620002db565b60405180910390fd5b620000c3816200015560201b60201c565b5081600160006101000a81548173ffffffffffffffffffffffffffffffffffffffff021916908373ffffffffffffffffffffffffffffffffffffffff16021790555080600260006101000a81548173ffffffffffffffffffffffffffffffffffffffff021916908373ffffffffffffffffffffffffffffffffffffffff160217905550426005819055505050620002f8565b60008060009054906101000a900473ffffffffffffffffffffffffffffffffffffffff169050816000806101000a81548173ffffffffffffffffffffffffffffffffffffffff021916908373ffffffffffffffffffffffffffffffffffffffff1602179055508173ffffffffffffffffffffffffffffffffffffffff168173ffffffffffffffffffffffffffffffffffffffff167f8be0079c531659141344cd1fd0a4f28419497f9722a3daafe3b4186f6b6457e060405160405180910390a35050565b600080fd5b600073ffffffffffffffffffffffffffffffffffffffff82169050919050565b60006200024b826200021e565b9050919050565b6200025d816200023e565b81146200026957600080fd5b50565b6000815190506200027d8162000252565b92915050565b600080604083850312156200029d576200029c62000219565b5b6000620002ad858286016200026c565b9250506020620002c0858286016200026c565b9150509250929050565b620002d5816200023e565b82525050565b6000602082019050620002f26000830184620002ca565b92915050565b612a7b80620003086000396000f3fe608060405234801561001057600080fd5b50600436106101735760003560e01c806375b17350116100de578063b9f7945111610097578063dd24dec511610071578063dd24dec51461043f578063dd48293314610470578063e58352411461048e578063f2fde38b146104ac57610173565b8063b9f79451146103c2578063c2a672e0146103f2578063c43622931461040e57610173565b806375b17350146102d9578063896854d8146102f75780638da5cb5b14610327578063a4e47b6614610345578063adc9772e14610376578063b77cf9c61461039257610173565b80633148c441116101305780633148c4411461022957806348c54b9d1461025957806349d17ec5146102635780634fc73c0a146102815780636a6904fb146102b1578063715018a6146102cf57610173565b806308b26b75146101785780630dbffbcd1461019657806317f5e33d146101b457806321f05249146101d2578063240b0554146101ee5780632b4b12e61461020a575b600080fd5b6101806104c8565b60405161018d9190611d65565b60405180910390f35b61019e6104cf565b6040516101ab9190611dc1565b60405180910390f35b6101bc6104f5565b6040516101c99190611e3b565b60405180910390f35b6101ec60048036038101906101e79190611ec6565b61051b565b005b61020860048036038101906102039190611f5b565b6107d3565b005b610212610869565b604051610220929190612104565b60405180910390f35b610243600480360381019061023e9190611f5b565b610961565b6040516102509190612156565b60405180910390f35b610261610981565b005b61026b610b8a565b6040516102789190611d65565b60405180910390f35b61029b6004803603810190610296919061219d565b610b97565b6040516102a89190611d65565b60405180910390f35b6102b9610cd1565b6040516102c69190611d65565b60405180910390f35b6102d7610cd6565b005b6102e1610cea565b6040516102ee9190611d65565b60405180910390f35b610311600480360381019061030c919061219d565b610cf0565b60405161031e9190612156565b60405180910390f35b61032f610d10565b60405161033c9190611dc1565b60405180910390f35b61035f600480360381019061035a91906121ca565b610d39565b60405161036d92919061220a565b60405180910390f35b610390600480360381019061038b9190612233565b610d6a565b005b6103ac60048036038101906103a7919061219d565b6111d0565b6040516103b99190611d65565b60405180910390f35b6103dc60048036038101906103d7919061219d565b6111e8565b6040516103e99190611d65565b60405180910390f35b61040c60048036038101906104079190612233565b611200565b005b6104286004803603810190610423919061219d565b61145e565b604051610436929190612273565b60405180910390f35b6104596004803603810190610454919061219d565b6116bf565b60405161046792919061220a565b60405180910390f35b61047861187d565b6040516104859190611d65565b60405180910390f35b610496611883565b6040516104a39190611d65565b60405180910390f35b6104c660048036038101906104c1919061219d565b611889565b005b6201518081565b600260009054906101000a900473ffffffffffffffffffffffffffffffffffffffff1681565b600160009054906101000a900473ffffffffffffffffffffffffffffffffffffffff1681565b60001515600a600083600060228110610537576105366122a3565b5b6020020135815260200190815260200160002060009054906101000a900460ff1615151461059a576040517f08c379a00000000000000000000000000000000000000000000000000000000081526004016105919061232f565b60405180910390fd5b6000600260009054906101000a900473ffffffffffffffffffffffffffffffffffffffff1673ffffffffffffffffffffffffffffffffffffffff16638525a61d868686866040518563ffffffff1660e01b81526004016105fd9493929190612438565b602060405180830381865afa15801561061a573d6000803e3d6000fd5b505050506040513d601f19601f8201168201806040525081019061063e91906124ab565b90508015610791576001600a6000846000602281106106605761065f6122a3565b5b6020020135815260200190815260200160002060006101000a81548160ff0219169083151502179055506001600b60003373ffffffffffffffffffffffffffffffffffffffff1673ffffffffffffffffffffffffffffffffffffffff16815260200190815260200160002060006101000a81548160ff021916908315150217905550600160009054906101000a900473ffffffffffffffffffffffffffffffffffffffff1673ffffffffffffffffffffffffffffffffffffffff1663a9059cbb3368056bc75e2d631000006040518363ffffffff1660e01b81526004016107489291906124d8565b6020604051808303816000875af1158015610767573d6000803e3d6000fd5b505050506040513d601f19601f8201168201806040525081019061078b91906124ab565b506107cc565b6040517f08c379a00000000000000000000000000000000000000000000000000000000081526004016107c39061254d565b60405180910390fd5b5050505050565b6107db61190f565b6000811161081e576040517f08c379a0000000000000000000000000000000000000000000000000000000008152600401610815906125b9565b60405180910390fd5b60006003549050816003819055507fb80ce647c36d73f94189750e31434ae05477b192a66db02f1fc3fff3e71847de818360405161085d92919061220a565b60405180910390a15050565b60608060606000815167ffffffffffffffff81111561088b5761088a6125d9565b5b6040519080825280602002602001820160405280156108b95781602001602082028036833780820191505090505b50905060005b825181101561095457600860008483815181106108df576108de6122a3565b5b602002602001015173ffffffffffffffffffffffffffffffffffffffff1673ffffffffffffffffffffffffffffffffffffffff16815260200190815260200160002054828281518110610935576109346122a3565b5b602002602001018181525050808061094c90612637565b9150506108bf565b5081819350935050509091565b600a6020528060005260406000206000915054906101000a900460ff1681565b600554600960003373ffffffffffffffffffffffffffffffffffffffff1673ffffffffffffffffffffffffffffffffffffffff1681526020019081526020016000205410610a04576040517f08c379a00000000000000000000000000000000000000000000000000000000081526004016109fb906126f1565b60405180910390fd5b6000610a0f33611996565b905060008111610a54576040517f08c379a0000000000000000000000000000000000000000000000000000000008152600401610a4b9061275d565b60405180910390fd5b42600960003373ffffffffffffffffffffffffffffffffffffffff1673ffffffffffffffffffffffffffffffffffffffff16815260200190815260200160002081905550600160009054906101000a900473ffffffffffffffffffffffffffffffffffffffff1673ffffffffffffffffffffffffffffffffffffffff1663a9059cbb33836040518363ffffffff1660e01b8152600401610af59291906124d8565b6020604051808303816000875af1158015610b14573d6000803e3d6000fd5b505050506040513d601f19601f82011682018060405250810190610b3891906124ab565b503373ffffffffffffffffffffffffffffffffffffffff167f896e034966eaaf1adc54acc0f257056febbd300c9e47182cf761982cf1f5e43082604051610b7f9190611d65565b60405180910390a250565b68056bc75e2d6310000081565b600080600660008473ffffffffffffffffffffffffffffffffffffffff1673ffffffffffffffffffffffffffffffffffffffff16815260200190815260200160002060000180549050905060005b81811015610c8857610c75600660008673ffffffffffffffffffffffffffffffffffffffff1673ffffffffffffffffffffffffffffffffffffffff1681526020019081526020016000206000018281548110610c4457610c436122a3565b5b9060005260206000200160009054906101000a900473ffffffffffffffffffffffffffffffffffffffff1685611ade565b8080610c8090612637565b915050610be5565b50600860008473ffffffffffffffffffffffffffffffffffffffff1673ffffffffffffffffffffffffffffffffffffffff16815260200190815260200160002054915050919050565b60c881565b610cde61190f565b610ce86000611c41565b565b60055481565b600b6020528060005260406000206000915054906101000a900460ff1681565b60008060009054906101000a900473ffffffffffffffffffffffffffffffffffffffff16905090565b6007602052816000526040600020602052806000526040600020600091509150508060000154908060010154905082565b60008111610dad576040517f08c379a0000000000000000000000000000000000000000000000000000000008152600401610da4906127c9565b60405180910390fd5b600160009054906101000a900473ffffffffffffffffffffffffffffffffffffffff1673ffffffffffffffffffffffffffffffffffffffff166323b872dd3330846040518463ffffffff1660e01b8152600401610e0c939291906127e9565b6020604051808303816000875af1158015610e2b573d6000803e3d6000fd5b505050506040513d601f19601f82011682018060405250810190610e4f91906124ab565b50600660008373ffffffffffffffffffffffffffffffffffffffff1673ffffffffffffffffffffffffffffffffffffffff16815260200190815260200160002060010160003373ffffffffffffffffffffffffffffffffffffffff1673ffffffffffffffffffffffffffffffffffffffff16815260200190815260200160002060009054906101000a900460ff1661101d57600660008373ffffffffffffffffffffffffffffffffffffffff1673ffffffffffffffffffffffffffffffffffffffff168152602001908152602001600020600001339080600181540180825580915050600190039060005260206000200160009091909190916101000a81548173ffffffffffffffffffffffffffffffffffffffff021916908373ffffffffffffffffffffffffffffffffffffffff1602179055506001600660008473ffffffffffffffffffffffffffffffffffffffff1673ffffffffffffffffffffffffffffffffffffffff16815260200190815260200160002060010160003373ffffffffffffffffffffffffffffffffffffffff1673ffffffffffffffffffffffffffffffffffffffff16815260200190815260200160002060006101000a81548160ff0219169083151502179055505b6110273383611ade565b80600760003373ffffffffffffffffffffffffffffffffffffffff1673ffffffffffffffffffffffffffffffffffffffff16815260200190815260200160002060008473ffffffffffffffffffffffffffffffffffffffff1673ffffffffffffffffffffffffffffffffffffffff16815260200190815260200160002060000160008282546110b69190612820565b92505081905550600354600760003373ffffffffffffffffffffffffffffffffffffffff1673ffffffffffffffffffffffffffffffffffffffff16815260200190815260200160002060008473ffffffffffffffffffffffffffffffffffffffff1673ffffffffffffffffffffffffffffffffffffffff1681526020019081526020016000206001018190555061114f81600354611d05565b600460008282546111609190612820565b925050819055508173ffffffffffffffffffffffffffffffffffffffff163373ffffffffffffffffffffffffffffffffffffffff167f5dac0c1b1112564a045ba943c9d50270893e8e826c49be8e7073adc713ab7bd7836040516111c49190611d65565b60405180910390a35050565b60096020528060005260406000206000915090505481565b60086020528060005260406000206000915090505481565b60008111611243576040517f08c379a000000000000000000000000000000000000000000000000000000000815260040161123a906127c9565b60405180910390fd5b6000600760003373ffffffffffffffffffffffffffffffffffffffff1673ffffffffffffffffffffffffffffffffffffffff16815260200190815260200160002060008473ffffffffffffffffffffffffffffffffffffffff1673ffffffffffffffffffffffffffffffffffffffff1681526020019081526020016000209050818160000154101561130a576040517f08c379a0000000000000000000000000000000000000000000000000000000008152600401611301906128a0565b60405180910390fd5b6113143384611ade565b8181600001600082825461132891906128c0565b9250508190555061133b82600354611d05565b6004600082825461134c91906128c0565b92505081905550600160009054906101000a900473ffffffffffffffffffffffffffffffffffffffff1673ffffffffffffffffffffffffffffffffffffffff1663a9059cbb33846040518363ffffffff1660e01b81526004016113b09291906124d8565b6020604051808303816000875af11580156113cf573d6000803e3d6000fd5b505050506040513d601f19601f820116820180604052508101906113f391906124ab565b508273ffffffffffffffffffffffffffffffffffffffff163373ffffffffffffffffffffffffffffffffffffffff167fd8654fcc8cf5b36d30b3f5e4688fc78118e6d68de60b9994e09902268b57c3e3846040516114519190611d65565b60405180910390a3505050565b6060600080600660008573ffffffffffffffffffffffffffffffffffffffff1673ffffffffffffffffffffffffffffffffffffffff1681526020019081526020016000206000018054905067ffffffffffffffff8111156114c2576114c16125d9565b5b6040519080825280602002602001820160405280156114f05781602001602082028036833780820191505090505b50905060005b600660008673ffffffffffffffffffffffffffffffffffffffff1673ffffffffffffffffffffffffffffffffffffffff1681526020019081526020016000206000018054905081101561167357600760008673ffffffffffffffffffffffffffffffffffffffff1673ffffffffffffffffffffffffffffffffffffffff1681526020019081526020016000206000600660008873ffffffffffffffffffffffffffffffffffffffff1673ffffffffffffffffffffffffffffffffffffffff16815260200190815260200160002060000183815481106115d8576115d76122a3565b5b9060005260206000200160009054906101000a900473ffffffffffffffffffffffffffffffffffffffff1673ffffffffffffffffffffffffffffffffffffffff1673ffffffffffffffffffffffffffffffffffffffff16815260200190815260200160002060000154828281518110611654576116536122a3565b5b602002602001018181525050808061166b90612637565b9150506114f6565b5080600860008673ffffffffffffffffffffffffffffffffffffffff1673ffffffffffffffffffffffffffffffffffffffff168152602001908152602001600020549250925050915091565b6000806000805b600660008673ffffffffffffffffffffffffffffffffffffffff1673ffffffffffffffffffffffffffffffffffffffff168152602001908152602001600020600001805490508110156118315760076000600660008873ffffffffffffffffffffffffffffffffffffffff1673ffffffffffffffffffffffffffffffffffffffff168152602001908152602001600020600001838154811061176b5761176a6122a3565b5b9060005260206000200160009054906101000a900473ffffffffffffffffffffffffffffffffffffffff1673ffffffffffffffffffffffffffffffffffffffff1673ffffffffffffffffffffffffffffffffffffffff16815260200190815260200160002060008673ffffffffffffffffffffffffffffffffffffffff1673ffffffffffffffffffffffffffffffffffffffff168152602001908152602001600020600001548261181c9190612820565b9150808061182990612637565b9150506116c6565b5080600860008673ffffffffffffffffffffffffffffffffffffffff1673ffffffffffffffffffffffffffffffffffffffff168152602001908152602001600020549250925050915091565b60035481565b60045481565b61189161190f565b600073ffffffffffffffffffffffffffffffffffffffff168173ffffffffffffffffffffffffffffffffffffffff16036119035760006040517f1e4fbdf70000000000000000000000000000000000000000000000000000000081526004016118fa9190611dc1565b60405180910390fd5b61190c81611c41565b50565b611917611d44565b73ffffffffffffffffffffffffffffffffffffffff16611935610d10565b73ffffffffffffffffffffffffffffffffffffffff161461199457611958611d44565b6040517f118cdaa700000000000000000000000000000000000000000000000000000000815260040161198b9190611dc1565b60405180910390fd5b565b6000620151806005546119a99190612820565b4210611ad4576000600160009054906101000a900473ffffffffffffffffffffffffffffffffffffffff1673ffffffffffffffffffffffffffffffffffffffff166370a08231306040518263ffffffff1660e01b8152600401611a0c9190611dc1565b602060405180830381865afa158015611a29573d6000803e3d6000fd5b505050506040513d601f19601f82011682018060405250810190611a4d9190612909565b9050600060c882611a5e9190612965565b90506000600860008673ffffffffffffffffffffffffffffffffffffffff1673ffffffffffffffffffffffffffffffffffffffff16815260200190815260200160002054905060006004548284611ab59190612996565b611abf9190612965565b90504260058190555080945050505050611ad9565b600090505b919050565b6000600760008473ffffffffffffffffffffffffffffffffffffffff1673ffffffffffffffffffffffffffffffffffffffff16815260200190815260200160002060008373ffffffffffffffffffffffffffffffffffffffff1673ffffffffffffffffffffffffffffffffffffffff1681526020019081526020016000209050600354816001015414611c3c576000611b7f82600001548360010154611d05565b90506000611b938360000154600354611d05565b90508082600860008773ffffffffffffffffffffffffffffffffffffffff1673ffffffffffffffffffffffffffffffffffffffff16815260200190815260200160002054611be191906128c0565b611beb9190612820565b600860008673ffffffffffffffffffffffffffffffffffffffff1673ffffffffffffffffffffffffffffffffffffffff16815260200190815260200160002081905550600354836001018190555050505b505050565b60008060009054906101000a900473ffffffffffffffffffffffffffffffffffffffff169050816000806101000a81548173ffffffffffffffffffffffffffffffffffffffff021916908373ffffffffffffffffffffffffffffffffffffffff1602179055508173ffffffffffffffffffffffffffffffffffffffff168173ffffffffffffffffffffffffffffffffffffffff167f8be0079c531659141344cd1fd0a4f28419497f9722a3daafe3b4186f6b6457e060405160405180910390a35050565b60008183604051602001611d1991906129f9565b6040516020818303038152906040528051906020012060001c611d3c9190612a14565b905092915050565b600033905090565b6000819050919050565b611d5f81611d4c565b82525050565b6000602082019050611d7a6000830184611d56565b92915050565b600073ffffffffffffffffffffffffffffffffffffffff82169050919050565b6000611dab82611d80565b9050919050565b611dbb81611da0565b82525050565b6000602082019050611dd66000830184611db2565b92915050565b6000819050919050565b6000611e01611dfc611df784611d80565b611ddc565b611d80565b9050919050565b6000611e1382611de6565b9050919050565b6000611e2582611e08565b9050919050565b611e3581611e1a565b82525050565b6000602082019050611e506000830184611e2c565b92915050565b600080fd5b600080fd5b600081905082602060020282011115611e7c57611e7b611e5b565b5b92915050565b600081905082604060020282011115611e9e57611e9d611e5b565b5b92915050565b600081905082602060220282011115611ec057611ebf611e5b565b5b92915050565b6000806000806105408587031215611ee157611ee0611e56565b5b6000611eef87828801611e60565b9450506040611f0087828801611e82565b93505060c0611f1187828801611e60565b925050610100611f2387828801611ea4565b91505092959194509250565b611f3881611d4c565b8114611f4357600080fd5b50565b600081359050611f5581611f2f565b92915050565b600060208284031215611f7157611f70611e56565b5b6000611f7f84828501611f46565b91505092915050565b600081519050919050565b600082825260208201905092915050565b6000819050602082019050919050565b611fbd81611da0565b82525050565b6000611fcf8383611fb4565b60208301905092915050565b6000602082019050919050565b6000611ff382611f88565b611ffd8185611f93565b935061200883611fa4565b8060005b838110156120395781516120208882611fc3565b975061202b83611fdb565b92505060018101905061200c565b5085935050505092915050565b600081519050919050565b600082825260208201905092915050565b6000819050602082019050919050565b61207b81611d4c565b82525050565b600061208d8383612072565b60208301905092915050565b6000602082019050919050565b60006120b182612046565b6120bb8185612051565b93506120c683612062565b8060005b838110156120f75781516120de8882612081565b97506120e983612099565b9250506001810190506120ca565b5085935050505092915050565b6000604082019050818103600083015261211e8185611fe8565b9050818103602083015261213281846120a6565b90509392505050565b60008115159050919050565b6121508161213b565b82525050565b600060208201905061216b6000830184612147565b92915050565b61217a81611da0565b811461218557600080fd5b50565b60008135905061219781612171565b92915050565b6000602082840312156121b3576121b2611e56565b5b60006121c184828501612188565b91505092915050565b600080604083850312156121e1576121e0611e56565b5b60006121ef85828601612188565b925050602061220085828601612188565b9150509250929050565b600060408201905061221f6000830185611d56565b61222c6020830184611d56565b9392505050565b6000806040838503121561224a57612249611e56565b5b600061225885828601612188565b925050602061226985828601611f46565b9150509250929050565b6000604082019050818103600083015261228d81856120a6565b905061229c6020830184611d56565b9392505050565b7f4e487b7100000000000000000000000000000000000000000000000000000000600052603260045260246000fd5b600082825260208201905092915050565b7f4161646861617220616c72656164792076657269666965640000000000000000600082015250565b60006123196018836122d2565b9150612324826122e3565b602082019050919050565b600060208201905081810360008301526123488161230c565b9050919050565b82818337505050565b6123646040838361234f565b5050565b600060029050919050565b600081905092915050565b6000819050919050565b6123946040838361234f565b5050565b60006123a48383612388565b60408301905092915050565b600082905092915050565b6000604082019050919050565b6123d181612368565b6123db8184612373565b92506123e68261237e565b8060005b8381101561241f576123fc82846123b0565b6124068782612398565b9650612411836123bb565b9250506001810190506123ea565b505050505050565b612434610440838361234f565b5050565b60006105408201905061244e6000830187612358565b61245b60408301866123c8565b61246860c0830185612358565b612476610100830184612427565b95945050505050565b6124888161213b565b811461249357600080fd5b50565b6000815190506124a58161247f565b92915050565b6000602082840312156124c1576124c0611e56565b5b60006124cf84828501612496565b91505092915050565b60006040820190506124ed6000830185611db2565b6124fa6020830184611d56565b9392505050565b7f496e76616c696420616164686161722070726f6f660000000000000000000000600082015250565b60006125376015836122d2565b915061254282612501565b602082019050919050565b600060208201905081810360008301526125668161252a565b9050919050565b7f436f6e7374616e74206d75737420626520706f73697469766500000000000000600082015250565b60006125a36019836122d2565b91506125ae8261256d565b602082019050919050565b600060208201905081810360008301526125d281612596565b9050919050565b7f4e487b7100000000000000000000000000000000000000000000000000000000600052604160045260246000fd5b7f4e487b7100000000000000000000000000000000000000000000000000000000600052601160045260246000fd5b600061264282611d4c565b91507fffffffffffffffffffffffffffffffffffffffffffffffffffffffffffffffff820361267457612673612608565b5b600182019050919050565b7f416c726561647920636c61696d656420666f7220746865206c6174657374206460008201527f6973747269627574696f6e000000000000000000000000000000000000000000602082015250565b60006126db602b836122d2565b91506126e68261267f565b604082019050919050565b6000602082019050818103600083015261270a816126ce565b9050919050565b7f4e6f20746f6b656e7320746f20636c61696d0000000000000000000000000000600082015250565b60006127476012836122d2565b915061275282612711565b602082019050919050565b600060208201905081810360008301526127768161273a565b9050919050565b7f416d6f756e74206d75737420626520706f736974697665000000000000000000600082015250565b60006127b36017836122d2565b91506127be8261277d565b602082019050919050565b600060208201905081810360008301526127e2816127a6565b9050919050565b60006060820190506127fe6000830186611db2565b61280b6020830185611db2565b6128186040830184611d56565b949350505050565b600061282b82611d4c565b915061283683611d4c565b925082820190508082111561284e5761284d612608565b5b92915050565b7f496e73756666696369656e74207374616b656420616d6f756e74000000000000600082015250565b600061288a601a836122d2565b915061289582612854565b602082019050919050565b600060208201905081810360008301526128b98161287d565b9050919050565b60006128cb82611d4c565b91506128d683611d4c565b92508282039050818111156128ee576128ed612608565b5b92915050565b60008151905061290381611f2f565b92915050565b60006020828403121561291f5761291e611e56565b5b600061292d848285016128f4565b91505092915050565b7f4e487b7100000000000000000000000000000000000000000000000000000000600052601260045260246000fd5b600061297082611d4c565b915061297b83611d4c565b92508261298b5761298a612936565b5b828204905092915050565b60006129a182611d4c565b91506129ac83611d4c565b92508282026129ba81611d4c565b915082820484148315176129d1576129d0612608565b5b5092915050565b6000819050919050565b6129f36129ee82611d4c565b6129d8565b82525050565b6000612a0582846129e2565b60208201915081905092915050565b6000612a1f82611d4c565b9150612a2a83611d4c565b925082612a3a57612a39612936565b5b82820690509291505056fea2646970667358221220d915db5056cbd9b61ad7712d0d8791248ef95a039387751704bfbabd0201066464736f6c63430008140033",
  "linkReferences": {},
  "deployedLinkReferences": {}
}